:10000000B6C40000D1C40000CFC40000CDC40000BD
:10001000CBC40000C9C40000C7C40000C5C40000B0
:10002000C3C40000C1C40000BFC400000C94191B6D
:100030000C94C21BB9C40000B7C4000030C7000054
:1000400038C7000040C70000AFC40000E8C6000089
:10005000ABC40000A9C40000A7C40000B1C70000E1
:100060006FC70000A1C400009FC400009DC4000031
:100070009BC400001C034C005500460041002000BA
:100080004300440043002000440065006D006F0001
:10009000000018034400650061006E00200043006A
:1000A00061006D0065007200610000000403090436
:1000B00009023E00020100C03209040000010202F0
:1000C0000100052400100104240206052406000195
:1000D000070582030800FF09040100020A0000006E
:1000E0000705040210000507058302100005120130
:1000F000100102000008EB03442001000102DC01B2
:100100004F4B0A0D004552523A5041525345520A44
:100110000D004552523A504152414D0A0D0055537F
:100120004147453A2027474554204543484F272C0F
:100130002027534554204543484F205858585827A6
:1001400020776974682030203D204F464620616E3C
:100150006420656C7365204F4E0A0D00555341476E
:10016000453A20274745542053544259544D50276F
:100170002C20275345542053544259544D50205855
:100180005858580A0D0055534147453A20275345C2
:1001900054204155544F4F4646204F4E272C202780
:1001A000534554204155544F4F4646204F4646270D
:1001B000206F722027534554204155544F4F4646D7
:1001C000204F464627200A0D0055534147453A2007
:1001D00027474554204C45564C4527206F72202711
:1001E000534554204C4556454C20585858582720C4
:1001F000776974682072616E6765206F66203020B1
:10020000746F20320A0D0055534147453A20274765
:10021000455420424F494C4552544D502720746F4D
:100220002072656164207468652063757272656E02
:100230007420626F696C65722074656D7020696EE0
:1002400020312F3130302064656772656520432E80
:100250000A0D004F4B3A25690A0D00555341474599
:100260003A2027474554204355525057522720746F
:100270006F207265616420746865206375727265B1
:100280006E7420706F776572207573656420696E77
:10029000206D410A0D004F4B3A25690A0D00555358
:1002A0004147453A20274745542043485052472765
:1002B000206F7220275345542043485052472058FE
:1002C0005858582720776974682072616E676520D6
:1002D0006F66203020746F20370A0D004F4B3A258F
:1002E000690A0D0055534147453A20274745542098
:1002F00050524727206F72202753455420505247B1
:1003000020585858582720776974682072616E67A2
:1003100065206F66203020746F20370A0D004F4B28
:100320003A25690A0D0055534147453A202747456C
:1003300054205741495427206F7220275345542099
:1003400057414954205858585827207769746820D5
:1003500072616E6765206F66203020746F203635BD
:100360003533350A0D004F4B3A25690A0D005553B8
:100370004147453A20274745542057415445522785
:10038000206F72202753455420574154455220581E
:100390005858582720776974682072616E67652005
:1003A0006F66203020746F2036353533350A0D00E6
:1003B0004F4B3A25690A0D0055534147453A2027CE
:1003C000474554205052574127206F7220275345EC
:1003D0005420505257412058585858272077697454
:1003E000682072616E6765206F66203020746F2010
:1003F00036353533350A0D0055534147453A2027E8
:100400004745542054454D5027206F7220275345AF
:10041000542054454D502058585858272077697417
:10042000682072616E6765206F66203020746F20CF
:10043000393939390A0D004F4B3A25690A0D004EFA
:100440006F20286D6F72652920626F74746C6573FC
:10045000206F662062656572206F6E20746865206B
:1004600077616C6C2C0A0D4E6F20286D6F726529B8
:1004700020626F74746C6573206F662062656572AC
:100480002E0A0D476F20746F207468652073746F97
:10049000726520616E642062757920736F6D6520CE
:1004A0006D6F72652C0A0D4E696E6574792D6E69DB
:1004B0006E6520626F74746C6573206F6620626570
:1004C0006572206F6E207468652077616C6C2E0AEF
:1004D0000D00256920426F74746C65287329206FA4
:1004E000662062656572206F6E2074686520776192
:1004F0006C6C2C20256920626F74746C65287329DC
:10050000206F6620626565720A0D54616B65206F0D
:100510006E6520646F776E20616E64207061737306
:100520002069742061726F756E642C0A0D25692034
:10053000626F74746C65287329206F66206265652C
:1005400072206F6E207468652077616C6C0A0D00F4
:1005500053656E736548614A6F202D2048656C7045
:100560000A0D2D2D2D2D2D2D2D2D2D2D2D2D2D2DFE
:100570002D2D2D2D2D2D2D2D2D2D2D2D2D2D2D2DAB
:100580002D2D2D2D2D2D2D2D2D2D2D2D2D2D2D2D9B
:100590002D2D2D2D2D2D2D2D2D2D2D2D2D2D2D2D8B
:1005A0002D2D2D2D2D2D2D2D2D2D2D2D2D2D2D2D7B
:1005B0002D2D2D2D2D2D2D2D2D2D2D2D0A0D557340
:1005C00065205345542C204745542C20434D44204E
:1005D000616E642048454C500A0D436F6D6D616E2D
:1005E0006473206172653A0A0D54454D50202D20E8
:1005F000536574206F72204765742050726F672EA8
:100600002054656D702E0A0D505247202D205365E1
:1006100074206F72204765742063757272656E7402
:100620002050726F672E0A0D4348505247202D20EC
:10063000536574206F722047657420746865206369
:10064000757272656E742050726F672E20746F2001
:100650006D6F646966790A0D50525741202D205301
:100660006574206F72204765742074686520616D21
:100670006F756E74206F6620776174657220757374
:10068000656420746F2077657420746865207061DC
:10069000640A0D5741544552202D20536574206F34
:1006A00072204765742074686520616D6F756E7483
:1006B000206F66207761746572207573656420749D
:1006C0006F20627265772074686520636F66666567
:1006D000650A0D57414954202D20536574206F72CF
:1006E000204765742074686520616D6F756E742095
:1006F0006F662074696D6520746F2077616974205E
:100700006265747765656E2077657420746865200E
:1007100070616420616E64206D616B652074686532
:1007200020636F666665650A0D4355525057522027
:100730002D20476574207468652063757272656E3C
:100740007420706F77657220757365640A0D424F6F
:10075000494C4552544D50202D20476574207468F3
:10076000652063757272656E7420626F696C657264
:100770002074656D702E0A0D4C4556454C202D2079
:10078000536574206F722047657420746865206318
:10079000757272656E742066696C6C206C65766526
:1007A0006C206F6620746865204375700A0D415592
:1007B000544F4F46202D20536574206F722047659B
:1007C00074207468652054696D6520696E204D69D8
:1007D0006E7574657320756E74696C6C20417574E8
:1007E0006F204F66660A0D5354425954454D5020B0
:1007F0002D20536574206F722047657420746865DE
:10080000207374616E6462792074656D702E0A0DB8
:100810004D414B4520284F4E45435550202C2054E8
:10082000574F43555029207573656420746F206DB0
:10083000616B6520636F666665650A0D4543484FC9
:10084000202D20656E61626C65206F722064697373
:1008500061626C652073657269616C204543484F25
:100860000A0D466F72206D6F72652048656C7020AE
:10087000747970652048454C50203C434F4D4D41A4
:100880004E443E0A0D2D2D2D2D2D2D2D2D2D2D2D92
:100890002D2D2D2D2D2D2D2D2D2D2D2D2D2D2D2D88
:1008A0002D2D2D2D2D2D2D2D2D2D2D2D2D2D2D2D78
:1008B0002D2D2D2D2D2D2D2D2D2D2D2D2D2D2D2D68
:1008C0002D2D2D2D2D2D2D2D2D2D2D2D2D2D2D2D58
:1008D0002D2D2D2D2D2D2D2D2D2D2D2D2D2D2D2D48
:1008E0000A0D004F4646004F4E0054574F43555097
:1008F000004F4E4543555000504F574552004D4113
:100900004B45004543484F005354425954454D50C0
:10091000004155544F4F4646004C4556454C004209
:100920004F494C4552544D50004355525057520078
:1009300043485052470050524700574149540057CE
:100940004154455200505257410054454D500042C9
:100950004545520048454C5000434D4400474554DE
:1009600000534554002563006548614A6F00112417
:100970001FBECFEFD4E0DEBFCDBF11E0A0E0B1E0FD
:10098000E2E6F4E402C005900D92AA3CB107D9F763
:1009900022E0AAECB1E001C01D92AB3BB207E1F747
:1009A0000E941F1E0C942F222BCB8F9387EF0000E9
:1009B0000197F1F78F9108953D983C9A449A459894
:1009C00008953D9AF2DF1DC008954498EEDF3D98EA
:1009D000ECDF449AEADF3D9AE8DF13C00895082E61
:1009E0003D9AE3DF802D0DD0882311F002D0F8CF9F
:1009F000089544983D9AD9DF449AD7DF3D98D5CFE2
:100A000008950894881F01C0880F59F0449818F47D
:100A100000003D9802C03D9A00C0C7DF449AC5DF80
:100A2000F3CF44983D98C1DF449A8827359981E0F7
:100A3000BCDF99270895882701C081E071E04498C0
:100A40003D98B3DF449AB1DFFFCF8894359908947D
:100A5000771FA8F74498813011F03D9801C03D9A66
:100A6000A4DF449AFFCFA1DF872F99270895292F6C
:100A700033272230310559F02330310569F0213018
:100A80003105F9F482E190E02EEE30E01EC08EE3F5
:100A900090E020EB30E019C099278130910541F0BA
:100AA0008230910541F0892B61F4ECEAF0E005C059
:100AB000E2E9F0E002C0E4E7F0E0849190E09F0119
:100AC00004C080E090E020E030E0FA013183208330
:100AD0000895599A519A589A509A5F9A579A2C9A0F
:100AE000249A2E9A269A2098289A25982D9A279803
:100AF0002F9A3E98469A3F98479A0895813081F000
:100B000018F08230C1F00895611102C05F98089515
:100B1000613011F45F9A08958BB180588BB90895B4
:100B2000611102C02C980895613011F42C9A089537
:100B300095B180E10AC0611102C02E98089561301C
:100B400011F42E9A089595B180E4892785B9089506
:100B5000813069F038F0823071F483B186FB8827E8
:100B600080F9089581E04F9907C080E0089583B12E
:100B700082958170089581E00895813039F018F0F0
:100B8000823049F00DC083B18170089583B185FB37
:100B9000882780F9089581E01F9903C080E00895B7
:100BA00081E00895882319F0813031F00AC086B1C0
:100BB00086FB882780F9089581E0379903C080E09B
:100BC000089581E00895811102C0599A08955998B5
:100BD000089529B121FB882780F990E021E0822740
:100BE00081700895811102C0589A08955898089507
:100BF00089B180958170089583C1CF93DF93C82F09
:100C00007BD181E090D1C11102C080EE01C080EAA9
:100C10008AD1C82FD0E0DC2FCC278AEA84D1C82B18
:100C20006DD1CE0124E0880F991F2A95E1F7DF915D
:100C3000CF9108953C9844983498089586B1829550
:100C4000817008958430A1F148F4813011F190F061
:100C5000823009F44AC08330C9F10895863009F41E
:100C600062C008F451C0873009F46CC0883009F4C0
:100C700078C008958091CA019091CB01611102C0A2
:100C800080627CC0623019F420E2822777C08F7DB9
:100C900075C08091CA019091CB01611102C084603E
:100CA0006DC0623019F424E0822768C08B7F66C073
:100CB0008091CA019091CB01611102C080685EC031
:100CC000623011F480585AC08F7758C08091CA01A1
:100CD0009091CB01611102C0806450C0623019F460
:100CE00020E482274BC08F7B49C08091CA0190913C
:100CF000CB01611102C0806141C0623019F420E172
:100D000082273CC08F7E3AC08091CA019091CB016E
:100D1000611102C0886032C0623019F428E0822775
:100D20002DC0877F2BC08091CA019091CB016111AA
:100D300002C0816023C0623019F421E082271EC006
:100D40008E7F1CC08091CA019091CB01611102C0BD
:100D5000826014C0623019F422E082270FC08D7FB8
:100D60000DC08091CA019091CB01611102C09068C1
:100D700005C0623011F4905801C09F779093CB0169
:100D80008093CA010895EAECF1E080819181907826
:100D90009183808380819181982F882790952081ED
:100DA000318188279F77822B932B918380830895AD
:100DB000EADF2091CA013091CB018091CC01909162
:100DC000CD0128173907A1F0F7DD8EE7FADD811193
:100DD0000EC08091CA0115DE8091CB0112DE809198
:100DE000CA019091CB019093CD018093CC0101DE9B
:100DF00021CF893090F44091CC015091CD0121E078
:100E000030E002C0220F331F8A95E2F724233523F6
:100E100081E0232B19F080E0089581E008951F926E
:100E20000F920FB60F9211242F933F934F935F931E
:100E30006F937F938F939F93AF93BF93EF93FF93A2
:100E40008091CE019091CF0101969093CF01809334
:100E5000CE018091CE019091CF0180FD04C081E050
:100E6000CCDE0E9454168091CE019091CF018F77F5
:100E70009927892B19F480E0C0DEEAD0FF91EF9129
:100E8000BF91AF919F918F917F916F915F914F91A2
:100E90003F912F910F900FBE0F901F9018951F92AA
:100EA0000F920FB60F9211240F900FBE0F901F904C
:100EB00018951F920F920FB60F9211240F900FBE2C
:100EC0000F901F9018951F920F920FB60F9211243A
:100ED0000F900FBE0F901F90189582E084BD93E095
:100EE00095BD9AEF97BD80936E000895F6CF8091DF
:100EF000CE019091CF01089542980895429A0895A5
:100F0000ECECF0E011821082429A3A9A5D9A559A7E
:100F100080EC8093CA0084E090E09183808388E134
:100F20008093C90008959091C80095FFFCCF8093ED
:100F3000CE008091C80087FFFCCF8091CE0008953D
:100F40001F920F920FB60F9211242F933F934F933E
:100F50005F936F937F938F939F93AF93BF93EF9321
:100F6000FF938091D0018823A1F08091D00181501E
:100F70008093D001E091D101F091D2010190F081F4
:100F8000E02D309711F0808101C08AEA8093CE0075
:100F900006C08091C9008F718093C900AFDFFF91B7
:100FA000EF91BF91AF919F918F917F916F915F91E1
:100FB0004F913F912F910F900FBE0F901F9018955A
:100FC0001F920F920FB60F9211248F939F93AF939E
:100FD000BF93EF93FF93E091D101F091D201A281F1
:100FE000B3818091CE00109731F08C9382819381F0
:100FF000019693838283FF91EF91BF91AF919F916F
:101000008F910F900FBE0F901F90189580E00E9457
:1010100095151092D4011092D301089538D02091E3
:10102000D3013091D4018217930714F480E001C0FA
:1010300081E0C9CD9093D4018093D301089527C056
:10104000C8DD91E0813009F490E0892F089508957A
:1010500090933B0280933A02A0E0B0E0BC01CD0146
:101060006C5671408109910924E630E040E050E07F
:101070000E94BC1EB901CA0120ED31E040E050E001
:101080000E94A01E30933D0220933C02089580915F
:101090003C0290913D02089520E030E041E0A2E062
:1010A000C90165E070E00E94591EFC01EB52FE4F41
:1010B00012824383A08341832F5F3F4F2430310549
:1010C00079F70895833018F0833011F4B7CD55CDFA
:1010D00081E008951F93CF93DF93C0E0D0E011E04B
:1010E0008C2FF0DF482FCE0165E070E00E94591E82
:1010F0009C01FC01EB52FE4F8381481731F01282B4
:101100004383848181112AC013C08281853051F4C8
:1011100041831083148382818F5FF901EB52FE4F6C
:1011200082831CC08281863040F08481811105C099
:10113000F901EB52FE4F108211C0CE0165E070E064
:101140000E94591EFC01EB52FE4F22812F3F31F0CD
:1011500022812F5FFC01EB52FE4F22832196C43087
:10116000D10509F0BDCFDF91CF911F910895843053
:1011700060F490E065E070E00E94591EFC01EB52C3
:10118000FE4F14828081918108958091E4019091B5
:10119000E50108958091040290910502089580313F
:1011A00027E2920710F08FE097E290930502809378
:1011B00004028FEF91E00C9413131092090208952A
:1011C0001F93CF93DF93CDB7DEB760970FB6F89438
:1011D000DEBF0FBECDBF90910902992331F09091EF
:1011E0000902913011F080E016C08830E0F7182F26
:1011F000BE016F5F7F4F0E94B2138823A1F380E18D
:10120000FE013196AFEEB1E001900D928A95E1F7C3
:101210001093EA0181E060960FB6F894DEBF0FBE2E
:10122000CDBFDF91CF911F9108958091EA0108957C
:10123000CF93DF93CDB7DEB72A970FB6F894DEBF12
:101240000FBECDBFCE0101960E943E13882359F0F8
:101250008AE0FE013196AFEFB1E001900D928A95E0
:10126000E1F781E005C08FEF91E00E94A31280E0DA
:101270002A960FB6F894DEBF0FBECDBFDF91CF9197
:10128000089590910902992321F0909109029130DB
:1012900081F4823020F08091E901846003C0809164
:1012A000E9018B7F8093E90182E08093090281E06C
:1012B000089580E00895882341F08091090281110A
:1012C00006C081E0809309020895109209020895F2
:1012D00090910902992321F090910902913049F4EB
:1012E000833008F082E0809303028FEF91E00C944A
:1012F000131308958091030208958D3308F08CE351
:101300008093FF018FEF91E00C9413138091FF0104
:101310000895CF93C82F65E080E00E948C12C13001
:1013200021F050F466E081E002C066E080E00E94B7
:101330008C1267E081E006C066E080E00E948C12BB
:1013400067E080E0CF910C948C12CF93C82F83E09C
:101350000EDFC230A0F4813091F4911110C0809161
:1013600003028F5F8093030280910302833010F0A9
:10137000109203028FEF91E0CF910C941313CF9151
:10138000089560E0882311F081E001C080E00C94B2
:101390008C1262E0813011F483E005C081E00E948C
:1013A0008C1262E084E00C948212662339F064E0CF
:1013B00080E00E94821263E080E01AC063E088232C
:1013C00051F080E00E948C1263E084E00E9482125F
:1013D00064E083E00DC081E00E948C1264E081E053
:1013E0000E948C1263E084E00E94821264E084E038
:1013F0000C9482128F929F92AF92BF92CF92DF9203
:10140000EF92FF920F931F93CF93DF9300D000D002
:101410001F92CDB7DEB781E0AADE182FF92E80E04B
:10142000A6DEB82EA92E82E0A2DED82EC92E80918B
:10143000E9018E7F8093E9010E946C15022FE42E52
:1014400029833A834B835C836D83411102C022233D
:1014500051F080910902882321F081E080930902F4
:1014600002C01092090230910902333009F4F0C031
:1014700028F4313009F45BC050F0AFC0353009F4C6
:10148000B2C108F41EC1363009F43AC1DFC110926E
:10149000EB011092EC011092ED011092EE0180E050
:1014A00090E8C8DD81E09EDB68E080E00E943516B0
:1014B00068E082E00E94351668E081E00E943516FF
:1014C0008091E9018B7F8093E901F11015C0113003
:1014D00099F46091FF0170E080E090E020E63AEE40
:1014E00040E050E00E94BE1EBA01422F532F81E01F
:1014F0000E94241710930902A1100BC081E0B812BA
:1015000008C082E0809309028091E9018B7F80937B
:10151000E901C1109DC181E0D8129AC182E0809397
:1015200009028091E90184608093E90191C168E03A
:1015300080E00E94351668E082E00E94351681E066
:101540000E94D7168091E9018B7F8093E9010023E7
:1015500029F080E090E86EDD60E010C08091040228
:101560009091050267DD6BDD209104023091050248
:101570008217930710F463E001C069E081E00E94E4
:101580003516F11004C0113011F410920902A110A7
:101590000BC081E0B81208C082E0809309028091FC
:1015A000E9018B7F8093E901C1100BC081E0D81263
:1015B00008C082E0809309028091E90184608093F1
:1015C000E9018091FF01882309F442C181E00E9472
:1015D0003317813009F03CC139C18091E901816044
:1015E0008093E90168E081E00E9435168091E9016D
:1015F00068E082FD06C082E00E94351662E080E06D
:1016000005C080E00E94351662E082E00E94351637
:101610008091EF019091F001845D9E4F0BDD0FDD15
:101620004091EF015091F001092E000CAA0BBB0B69
:1016300060E070E084179507A607B70714F4000070
:101640003AC080E00E94D71683E08093090233C03D
:1016500068E081E00E9435168091E90168E082FD32
:1016600006C082E00E94351662E080E005C080E09E
:101670000E94351662E082E00E9435160E94E21652
:101680002091F3013091F4014901A12CB12C68158E
:1016900079058A059B0578F084E08093090281E052
:1016A0000E94D7164091F5015091F60160E070E07C
:1016B00080E00E942417F110CBC0113009F0C8C09F
:1016C000C5C068E081E00E9435168091E90168E0BC
:1016D00082FD06C082E00E94351662E080E005C00F
:1016E00080E00E94351662E082E00E94351680E0BC
:1016F0000E943317811102C00000AAC086E0A3C077
:101700008091F1019091F201A0E0B0E08093EB01B3
:101710009093EC01A093ED01B093EE018091E9016B
:1017200082FF14C08091EB019091EC01A091ED013A
:10173000B091EE01880F991FAA1FBB1F8093EB0188
:101740009093EC01A093ED01B093EE018091030220
:10175000813051F030F56091EB017091EC01809196
:10176000ED019091EE010EC08091EB019091EC01A2
:10177000A091ED01B091EE01BC01CD01660F771F84
:10178000881F991F23E030E040E050E00E947E1E59
:101790002093EB013093EC014093ED015093EE0167
:1017A00010C08091EB019091EC01A091ED01B091FE
:1017B000EE018093EB019093EC01A093ED01B093C7
:1017C000EE0185E0809309024091EB015091EC011C
:1017D0006091ED017091EE0182E00E94241780E09B
:1017E0000E94D71635C068E081E00E9435168091CE
:1017F000E90162E082FF06C082E00E94351668E0DF
:1018000080E005C080E00E94351668E082E00E941A
:10181000351682E00E9433178823D1F081E00E94C0
:10182000D7166091FF0170E080E090E020E63AEE8C
:1018300040E050E00E94BE1EBA01422F532F81E0CB
:101840000E94241781E08093090202C010920902CD
:10185000809109027ADD8091E901817092DD8091A9
:10186000030257DD81E0011101C080E092DDE8DB79
:1018700061E0E11001C060E00F900F900F900F90B9
:101880000F90DF91CF911F910F91FF90EF90DF901C
:10189000CF90BF90AF909F908F9087CD80E090E0E9
:1018A000FC01E05CFD4F1082019680349105C1F788
:1018B00010928102089580913E028E7F80933E02B5
:1018C00010923F02EBCFCF93DF939091810290343F
:1018D00068F4E0918102F0E0E05CFD4F808390913C
:1018E00081029F5F90938102D1E003C080937F02C9
:1018F000D0E090913E0290FF17C0C82F0E94B81D03
:10190000882391F00E94BF1D1F92CF9325E639E0F6
:101910003F932F939F938F930E94561F0F900F908A
:101920000F900F900F900F908D2FDF91CF91089512
:10193000FF920F931F93CF93DF93EC018B01FB0179
:10194000108211821282138288818B3229F08D32AB
:1019500031F4FF24F39401C0F12C219634C0F12C12
:1019600032C0FF24F3943323A1F1F11032C02A30A6
:1019700070F5F80160817181828193816939F9E99B
:101980007F078F07F9E19F0760F72AE030E040E02A
:1019900050E00E94BE1EC901DA01F80180839183E4
:1019A000A283B383299130E0A90140535109052E48
:1019B000000C660B770B480F591F6A1F7B1F408373
:1019C000518362837383388120ED230FCCCFFF24B2
:1019D000F3948F2DDF91CF911F910F91FF90089578
:1019E000FC0120E03E2F381B7081DA019C917723A7
:1019F00051F0391740F4211106C0761302C010824D
:101A000021E03196EFCF931BDA019C93211102C0A4
:101A1000E0E0F0E0CF0108950E94B81D882371F046
:101A20000E94BF1D22E131E03F932F939F938F933C
:101A30000E94561F0F900F900F900F9008950E94D4
:101A4000B81D882371F00E94BF1D25E031E03F934F
:101A50002F939F938F930E94561F0F900F900F907C
:101A60000F9008950E94B81D882371F00E94BF1D39
:101A700020E031E03F932F939F938F930E94561F56
:101A80000F900F900F900F9008952F923F924F92CA
:101A90005F926F927F928F929F92AF92BF92CF92FE
:101AA000DF92EF92FF920F931F93CF93DF93CDB707
:101AB000DEB728970FB6F894DEBF0FBECDBF86E025
:101AC0008A8381E089831B821C821D821E8280E4BE
:101AD0008F8300E412E0F12C86E0E82E99E0992E45
:101AE00028E0822E37E0732E45E0642E54E0D52E98
:101AF00063E0C62E212C312C21012394AE01495FD5
:101B00005F4F60E2C8016CDF5C010115110509F44B
:101B100003C181E0F816C1F1F81628F092E0F91639
:101B200009F4BCC0F6C061E679E0C8010E943E1F1E
:101B3000892B11F41982EDC06DE579E0C8010E948E
:101B40003E1F892B11F481E008C069E579E0C801E6
:101B50000E943E1F892B19F482E08983DAC064E574
:101B600079E0C8010E943E1F892B11F4C98208C088
:101B70006FE479E0C8010E943E1F892B19F4D982D5
:101B80008CE019C0E982C5C08981833019F08230A8
:101B900008F06EC06AE479E0C8010E943E1F892BFC
:101BA00011F41A82B6C065E479E0C8010E943E1FB4
:101BB000892B19F481E08A83ACC06FE379E0C80116
:101BC0000E943E1F892B11F482E0F5CF6AE379E091
:101BD000C8010E943E1F892B11F4CA829AC066E395
:101BE00079E0C8010E943E1F892B11F4DA8291C06E
:101BF00060E379E0C8010E943E1F892B11F46A82DC
:101C000088C069E279E0C8010E943E1F892B11F467
:101C10007A827FC06FE179E0C8010E943E1F892B64
:101C200011F48A8276C069E179E0C8010E943E1F02
:101C3000892B11F49A826DC061E179E0C8010E949C
:101C40003E1F892B11F48AE0B6CF68E079E0C80125
:101C50000E943E1F892B19F49BE09A835AC063E0CF
:101C600079E0C8010E943E1F892B21F48DE0A3CFAB
:101C7000823011F0EA824DC06EEF78E0C8010E9418
:101C80003E1F892B11F48EE096CF68EF78E0C801F3
:101C90000E943E1F892B71F78FE08DCF89818230A2
:101CA00048F4813031F0BE016D5F7F4FC80140DEE6
:101CB0008111EA828981823061F58A818E30C1F496
:101CC00061EF78E0C8010E943E1F892B29F41B8236
:101CD0001C821D821E821DC06AEE78E0C8010E942F
:101CE0003E1F892B39F62B823C824D825E8211C0C9
:101CF0008F3079F467EE78E0C8010E943E1F892B8F
:101D000091F363EE78E0C8010E943E1F892BF9F23F
:101D1000B1CFF3948501F2CE8A81873009F044C0B7
:101D200089818130E9F40E94B81D882309F466C0D6
:101D30000E94BF1D182F092F0E94A9169F938F93F1
:101D40007F936F9326E932E03F932F930F931F9376
:101D50000E94561F0FB6F894DEBF0FBECDBF4EC017
:101D60008330A9F50E94B81D882309F447C00E945A
:101D7000BF1D2BE532E00DC0913009F4B9C093309E
:101D800031F50E94B81D8823C9F10E94BF1D28EFBC
:101D900033E03F932F939F938F930E94561F0F9092
:101DA0000F900F900F902AC0883098F08B3009F474
:101DB00068C108F430C18D3009F4E1C108F065C292
:101DC0008981833009F412C2843009F423C237DEDA
:101DD00015C0833069F108F0CCC09981813009F4D5
:101DE00054C008F099C09111C7CF80913F022B8158
:101DF0003C814D815E8160E043D534DE4FDD289625
:101E00000FB6F894DEBF0FBECDBFDF91CF911F910B
:101E10000F91FF90EF90DF90CF90BF90AF909F9089
:101E20008F907F906F905F904F903F902F9008958C
:101E30008981811108C080913F022B813C814D81B5
:101E40005E8163E0D9CF813099F40E94B81D882368
:101E5000A9F20E94BF1D182F092F80913F0263E055
:101E600064D59F938F937F936F9326E633E06CCF77
:101E7000833009F0ACCF0E94B81D882309F4BECF8F
:101E80000E94BF1D26E233E084CF911108C08091EB
:101E90003F022B813C814D815E8162E0ADCF91306C
:101EA000D1F40E94B81D882309F4A8CF0E94BF1D59
:101EB000182F092F80913F0262E037D59F938F93AF
:101EC0007F936F932BE331E03F932F930F931F93F7
:101ED0000E94471F3FCF933009F079CF0E94B81D71
:101EE000882309F48BCF0E94BF1D28EB33E051CF2C
:101EF0000E94B81D882309F481CF0E94BF1D182FAE
:101F0000092F80913F0260E010D59F938F937F93BC
:101F10006F9327E334E018CF911108C080913F02FE
:101F20002B813C814D815E8161E066CF9130A1F4CF
:101F30000E94B81D882309F461CF0E94BF1D182F8D
:101F4000092F80913F0261E0F0D49F938F937F939C
:101F50006F9320EB33E0F8CE933009F038CF0E9436
:101F6000B81D882309F44ACF0E94BF1D2EE633E036
:101F700010CF853089F5898181110DC08B819C81BD
:101F8000AD81BE8188309105A105B10508F06AC018
:101F900080933F0232CF813091F40E94B81D882394
:101FA00009F42CCF0E94BF1D20913F021F922F9356
:101FB0002CED32E03F932F939F938F9329C0833072
:101FC00009F005CF0E94B81D882309F417CF0E949D
:101FD000BF1D2EE932E0DDCE863008F0F8CE8981D3
:101FE0008823E1F1813009F03FC00E94B81D8823A9
:101FF00009F404CF0E94BF1D182F988716D91F928D
:102000008F932EE133E03F932F9398859F931F93F7
:102010000E94561F1CC09981893009F06DC0913013
:1020200009F058C00E94B81D882309F4E7CE0E9429
:10203000BF1D182F98875ED91F928F9324E431E03B
:102040003F932F9398859F931F930E94471F0F9054
:102050000F900F900F900F900F90D0CE8B81B0D833
:102060008111CBCED9DCCACE833009F0B0CE0E942C
:10207000B81D882309F4C2CE0E94BF1D24EE32E0B1
:1020800088CE8981813009F0B9CE0E94B81D88239D
:1020900069F00E94BF1D182F092F7CD89F938F9342
:1020A00024E431E03F932F930F93CECF89818111A8
:1020B00004C08B819C8173D8A0CE833009F087CE79
:1020C0000E94B81D882309F499CE0E94BF1D2CE5FB
:1020D00031E05FCE911103C08B81FAD88ECE933060
:1020E00009F075CE0E94B81D882309F487CE0E949E
:1020F000BF1D29EC31E04DCE8A3010F5913099F4B6
:102100000E94B81D882309F479CE0E94BF1D182FA4
:10211000092F0E941F089F938F9323E532E03F937E
:102120002F930F9374CF933009F051CE0E94B81DB6
:10213000882309F463CE0E94BF1D27E032E029CE38
:10214000913059F40E94B81D882309F457CE0E949B
:10215000BF1D182F9887DAD86FCF911103C08B81DC
:10216000CCD84BCE933009F032CE0E94B81D8823D4
:1021700009F444CE0E94BF1D26E831E00ACE8981D1
:10218000813099F40E94B81D882309F437CE0E944B
:10219000BF1D20913E0221701F922F9324E431E055
:1021A0003F932F939F938F9350CF811112C08B81B8
:1021B0009C81AD81BE81892B8A2B8B2B21F0809154
:1021C0003E02816003C080913E028E7F80933E027A
:1021D00014CE833009F0FBCD0E94B81D882309F48A
:1021E0000DCE0E94BF1D2EE131E0D3CD0E94B81D5F
:1021F000882309F403CE0E94BF1D182F092F809158
:102200003F0260E092D39F938F937F936F9320E57B
:1022100035E09ACD80910001882321F10E94B81DFC
:10222000882309F4EBCD0E94BF1D2091000150913D
:1022300000014091000130E0215031093F932F937C
:102240001F925F931F924F9322ED34E03F932F93A1
:102250009F938F930E94561F80910001815080931D
:10226000000178CD0E94B81D882309F4C7CD0E94D3
:10227000BF1D2FE334E03F932F939F938F930E94D2
:10228000561F83E6809300018ACD8E3009F04BC043
:1022900089818230C1F58B819C81AD81BE8100979F
:1022A000A105B10529F00197A105B10589F0DACEA4
:1022B00081E00E9441098823D9F00E94B81D88233B
:1022C00009F49CCD0E94BF1DBC0188E691E028C0A6
:1022D00081E00E944109882359F00E94B81D88239B
:1022E00009F48CCD0E94BF1DBC0183E891E018C0A9
:1022F0000E94B81D882309F481CD0E94BF1DBC0136
:1023000085E791E00DC0833009F078CD0E94B81DBB
:10231000882309F473CD0E94BF1DBC018FE891E0B2
:102320000E946E1F6BCD8F3009F068CD898182309D
:1023300059F58B819C81AD81BE810097A105B105C6
:1023400029F00197A105B10579F08CCE0E94B81D46
:10235000882309F453CD0E94BF1DBC018CE491E099
:102360000E946E1F80E00DC00E94B81D882309F4F2
:1023700045CD0E94BF1DBC018BE591E00E946E1F00
:1023800081E00E945B093ACD833009F037CD6ACEF7
:102390001092800280918102882379F0E09181027D
:1023A000F0E0E15CFD4F80818D3039F4E0918102F5
:1023B000F0E0E15CFD4F108268CB0895EF92FF9250
:1023C0000F931F93CF93DF9380E2E82E82E0F82EE5
:1023D00007E112E0C0E0D4E0F701D1937F01F801FA
:1023E000D1938F0161E08C2F0E942206CF5FC9300C
:1023F00099F7DF91CF911F910F91FF90EF900C947F
:10240000D806AF92BF92CF92DF92EF92FF920F93D6
:102410001F93CF9330910D023F5F30930D022091B7
:102420000C022F5F20930C0290910B029F5F909300
:102430000B0280910A028F5F80930A023111109281
:102440000D02223010F010920C02953010F0109214
:102450000B028A3010F010920A0207E112E080E2CB
:10246000C82E82E0D82E9EE0E92E92E0F92EC0E040
:10247000F80190815601F6018081981799F0943007
:1024800041F4F80180838C2F0E94F906F7018083C4
:1024900009C0843039F4F8018083F70160818C2F02
:1024A0000E942206FFEFCF1ADF0AF50180818130FA
:1024B00059F038F0823059F0833089F480910A0263
:1024C00008C080910D0205C080910C0202C080916D
:1024D0000B02811104C062E08C2F0E942206CF5FA4
:1024E0000F5F1F4FFFEFEF1AFF0AC93009F6CF91B8
:1024F0001F910F91FF90EF90DF90CF90BF90AF9022
:102500000C94D806693038F4E62FF0E0E05EFD4F19
:102510009081981380830895982F862F692F0C94AB
:1025200022068627082E8295807F8025092E982FE7
:1025300082958F700826869598278927880F880F9F
:10254000880F80250895FC01838180788C608F77C7
:10255000838382E3818386EE82838CE49DE196838C
:10256000858382E0848317820895FC0188EE93E0DE
:10257000958384838CEA9DE0978386838CE49DE138
:102580009383828388E293E2918380838AEA9AEA42
:102590009187808725E535E533872287958784876E
:1025A000178616860895EF92FF920F931F93CF938D
:1025B000DF93CDB7DEB72A970FB6F894DEBF0FBE14
:1025C000CDBF85E6898388E48A8381E68B838AE4AC
:1025D0008C838FE68D838AE98E8387EB8F838EE9E8
:1025E000888785EB898780E98A87CE0101967C01FF
:1025F00006EF13E0F70161917F01C8010E941022EC
:102600000F5F1F4F0115F4E01F07A1F72A960FB6C1
:10261000F894DEBF0FBECDBFDF91CF911F910F9118
:10262000FF90EF900895EF92FF920F931F93CF9337
:10263000DF93EC017C0188E0E80EF11C8E018FEF46
:102640009FEFF80161918F016CDF0E151F05C9F72F
:102650009987888700E010E06991C8018E579C4FE8
:102660000E9410220F5F1F4F0A301105A9F7DF915A
:10267000CF911F910F91FF90EF900895CF92DF922D
:10268000EF92FF920F931F93CF93DF93EC016C01B6
:1026900000E010E0EE24EA94FE2CC8018E579C4F17
:1026A0000E940822F60181936F01682FC70139DF6C
:1026B0007C010F5F1F4F0830110579F78AE893E01E
:1026C0000E94082288878BE893E00E94082289876D
:1026D00081E028853985E216F30609F080E0DF9174
:1026E000CF911F910F91FF90EF90DF90CF900895C1
:1026F000CF92DF92EF92FF920F931F93CF93DF93CE
:10270000883038F5EB01082F6B018EE0C80ED11C24
:102710007B018FEF9FEFF70161917F0102DFEC14E6
:10272000FD04C9F79F878E8710E084E0000F111F1A
:102730008A95E1F77E01F0E1EF0EF11C0C1B1D0BF9
:10274000CE01800F911F69910E941022CE15DF05E6
:10275000B9F7DF91CF911F910F91FF90EF90DF902C
:10276000CF900895CF92DF92EF92FF920F931F9335
:10277000CF93DF93CDB7DEB728970FB6F894DEBFBF
:102780000FBECDBF282F30E094E0220F331F9A9563
:10279000E1F738872F832FEF3FEF3E832D831C8295
:1027A0001B8220E130E03A832983883008F058C04A
:1027B00089819A81039728F089819A8102979A8367
:1027C00089838B01E12CF12C6801CE0CDF1C8981FF
:1027D0009A81E816F90680F48F8198858E0D9F1DE9
:1027E0009C838B838B819C810E940822F6018083CD
:1027F000FFEFEF1AFF0AE8CFE12CF12C6801CE0CB5
:10280000DF1C89819A81E816F90658F4F601608187
:102810008D819E8186DE9E838D83FFEFEF1AFF0AF6
:10282000EDCF8F8198850E969C838B838B819C81C5
:102830000E940822F60180838F8198850F969C83E1
:102840008B838B819C810E940822F60181834D81BC
:102850005E8181E0F801268537854217530709F02C
:1028600080E028960FB6F894DEBF0FBECDBFDF9193
:10287000CF911F910F91FF90EF90DF90CF9008952F
:102880000F931F93CF93DF93CDB7DEB764970FB647
:10289000F894DEBF0FBECDBF182F062FBE016F5FAD
:1028A0007F4F298B3A8B4B8B5C8B5CDF29893A8974
:1028B0004B895C89013009F128F0023061F0033066
:1028C00099F028C02F3F8FEF38074105510510F5CB
:1028D0003A8329831AC02F3F8FEF380741055105EE
:1028E000C8F43E832D8311C02F3F8FEF3807410579
:1028F000510580F438872F8308C02F3F8FEF3807AA
:102900004105510538F43C832B83BE016F5F7F4F37
:10291000812FEEDE64960FB6F894DEBF0FBECDBFFA
:10292000DF91CF911F910F9108951F93CF93DF9364
:10293000CDB7DEB760970FB6F894DEBF0FBECDBF40
:10294000162FBE016F5F7F4F0DDF113071F038F031
:10295000123041F0133071F46F81788508C06981BD
:102960007A8105C06D817E8102C06B817C8180E0AF
:1029700090E003C060E070E0CB0160960FB6F89481
:10298000DEBF0FBECDBFDF91CF911F91089560E0F4
:1029900070E080E092E00C942222CF92DF92EF92DE
:1029A000FF920F931F93CF93DF93CDB7DEB7A79717
:1029B0000FB6F894DEBF0FBECDBF06EF13E07E0169
:1029C0008BE1E80EF11C6701C8010E940822F701A3
:1029D00081937F010F5F1F4F0115F4E01F07A1F7DF
:1029E0009E01205E3F4F68E679E0D60180E045E039
:1029F0004C0D9D919FA3F90191919F0190959EA3EC
:102A0000FB0194919DA35FA19EA1591303C05DA1F9
:102A10009FA159138F5F6F5F7F4F4A13EACF8823BF
:102A2000A1F0CE0141968FDDCE014196FCDDCE01B5
:102A300001969BDD10E0BE016F5F7F4F812F58DE56
:102A40001F5F1830C1F7A3DFAEDDA7960FB6F8946D
:102A5000DEBF0FBECDBFDF91CF911F910F91FF90D1
:102A6000EF90DF90CF900895E2E8F2E013821282B7
:102A700014821082118208951092850210928402AD
:102A800010928602109282021092830260D28130EC
:102A900059F028F0823069F0833059F00FC010925D
:102AA0008202109283020AC08093830210928202F3
:102AB00005C081E080938202809383020E944708D0
:102AC0008131974224F081E08093840202C0109209
:102AD0008402109285020895CF93DF9300D000D036
:102AE0001F92CDB7DEB785E0E2E8F2E0DE01119695
:102AF00001900D928A95E1F729813A814B815C81A1
:102B00006D8170E080E090E00F900F900F900F903B
:102B10000F90DF91CF91089510922B0210922A020C
:102B20001092290281E00C94E305853608F084E6D2
:102B300080932A020895EAE8F2E087E080838183A7
:102B400091E09283838384839583868387839087B0
:102B500010928802109287021092930210928902BA
:102B60000895EF92FF920F931F93CF938091880265
:102B70008F5F80938802809189028F5F80938902A2
:102B8000809193028F5F80939302809187028F5F81
:102B9000809387028091880281111092880280912F
:102BA0008902823010F01092890280919302853060
:102BB00010F010929302809187028A3010F01092E8
:102BC00087028AE8E82E82E0F82E0CE812E0C0E0E6
:102BD000F7018081F8019291891771F08083873025
:102BE00031F08C2F0E94A805F801808305C0F80100
:102BF00060818C2F0E947E05F70180818230D1F0A8
:102C000028F4882361F0813091F020C08830C1F031
:102C10008930C1F08330D1F4809187020DC080915A
:102C20008802811104C062E08C2F0E947E05809191
:102C3000890202C080919302811108C062E003C042
:102C400061E001C060E08C2F0E947E05CF5FF3E061
:102C5000EF0EF11C0D5F1F4FC33009F0B9CFCF91BC
:102C60001F910F91FF90EF900895813059F018F067
:102C7000823079F0089580918A02861779F0609306
:102C80008A02089580918D02861741F060938D022B
:102C90000895809190028613609390020895109297
:102CA00033021092320208950F931F9320912C0249
:102CB00030912D022F5F3F4F30932D0220932C0235
:102CC00020912C0230912D0221153041F8F04091D5
:102CD0002E0250912F0260913002709131022CE04F
:102CE00076956795579547952A95D1F75093330276
:102CF0004093320210922D0210922C0210922E025A
:102D000010922F02109230021092310240912E0246
:102D100050912F02609130027091310297FF02C0F2
:102D20009F7706C020E030E8F901E81BF90BCF01DE
:102D30008A019B01080F191F211D311D00932E02CE
:102D400010932F0220933002309331021F910F9184
:102D50000895809132029091330262E672E0A9D721
:102D600068EE73E0B7D780E090E0089510923602E5
:102D70001092350283E08093340208950E94F80592
:102D8000813039F410923602109235028093340269
:102D9000089580913502909136028F3F2FEF920770
:102DA00029F0019690933602809335020895882386
:102DB00031F0813031F410923602109235020C94C9
:102DC000F2050895809135029091360264E670E034
:102DD00070D7BC0180E090E00895E4E9F2E0108251
:102DE0001182128213821482158216821782108633
:102DF000118612861386089580E090E0FC01EE0FA4
:102E0000FF1FEE0FFF1FEC56FD4F40815181628185
:102E10007381453651056105710568F04081518126
:102E2000628173814456510961097109408351835C
:102E30006283738304C0108211821282138201960E
:102E400083309105D9F60895833060F4E82FF0E0DF
:102E5000EE0FFF1FEE0FFF1FEC56FD4F4083518317
:102E6000628373830895833098F4E82FF0E0EE0FC7
:102E7000FF1FEE0FFF1FEC56FD4F40815181628115
:102E8000738181E0452B462B472B19F080E0089594
:102E900081E00895CF9380E00E94D205C82F81E0A1
:102EA0000E94D205909102019C1791F090913702F7
:102EB000C11103C09A3048F402C0933030F49091AD
:102EC00037029F5F9093370205C09091020102C0C4
:102ED0001092370290910101981789F0811105C075
:102EE000809138028A3068F404C0809137028330C0
:102EF00040F4809138028F5F8093380202C01092B4
:102F000038028091020180930101809101018111B9
:102F100007C080910201811103C01092030115C006
:102F200080910101813021F490910201992359F09F
:102F300080910101813031F480910201813011F4DE
:102F400082E001C083E080930301CF9108958091D6
:102F500003010895CF93DF93EC01FC0170968BE0A1
:102F6000DF011D928A95E9F782E08C83898783E0EF
:102F70008E8761E0CE0101967AD2882361F061E00C
:102F8000CE01069674D2882331F061E0CE010B9613
:102F9000DF91CF916CC280E0DF91CF9108950F93C4
:102FA0001F93CF932091A4022430F9F4FC010489EB
:102FB000158926893789012B022B032BB1F0C62FE7
:102FC00081818F708093E9008091E80085FF04C0C3
:102FD000C093F10080E00AC08091E8008E77809372
:102FE000E800ADD28823A1F301C082E0CF911F9108
:102FF0000F910895FB01682F84859585D0DF21E02E
:1030000030E0811102C020E030E088279927821B40
:10301000930B08952091A402243021F5FC014489EA
:10302000558966897789452B462B472BD9F08181B5
:103030008F708093E9008091F200882389F090914D
:10304000E8008091E8008E778093E80095FD08C045
:1030500076D2811108C08091E8008E778093E800D5
:1030600080E0089582E008952091A402243089F43C
:10307000FC014489558966897789452B462B472B66
:1030800041F021812F702093E9002091E80020FD7C
:10309000C1CF08952091A402243019F08FEF9FEF43
:1030A0000895FC014489558966897789452B462B0B
:1030B000472BA1F386818F708093E9008091E8000F
:1030C00082FFECCF8091F200882321F02091F10063
:1030D00030E002C02FEF3FEF8091F200811105C078
:1030E0008091E8008B778093E800C9010895FC0186
:1030F00084859585CFDF97FF02C08EEF9FEF0895FF
:10310000FB012EE0DB011D922A95E9F723E02383E2
:103110002AEF37E13187208727E738E13387228795
:103120009587848708950895CF93DF93EC0180916C
:10313000E80083FFA6C0888190E02091A902309129
:10314000AA022817390709F09CC08091A602813293
:1031500061F020F4803209F43EC093C0823209F459
:103160006CC0833209F47DC08CC08091A502813A85
:1031700009F087C08091E800877F8093E800809104
:10318000E80080FFFCCF8C899D89AE89BF89809340
:10319000F100492F5A2F6B2F77274093F100AD0193
:1031A000662777274093F1008B2F9927AA27BB2703
:1031B0008093F100888D8093F100898D8093F100D8
:1031C0008A8D8093F1008091E8008E778093E800EB
:1031D000DF91CF9195C18091A502813209F051C054
:1031E0008091E800877F8093E8008091E80082FD6D
:1031F00005C08091A4028111F8CF43C03091F10045
:103200002091F1009091F1008091F1003C8B2D8B89
:103210009E8B8F8B8091F100888F8091F100898F38
:103220008091F1008A8F8091E8008B778093E8008D
:1032300067D1CE01DF91CF9176CF8091A502813207
:1032400001F58091E800877F8093E80059D1809153
:10325000A7029091A802998B888BCE01DF91CF9124
:1032600027C58091A502813261F48091E800877FB3
:103270008093E80045D16091A702CE01DF91CF9104
:1032800052CFDF91CF9108952091AB023091AC02E3
:103290002617370748F06115710539F42091E800C9
:1032A0002E772093E80001C0B90140E06115710557
:1032B00091F12091A402222309F440C0253009F4A1
:1032C0003FC02091E80023FD3DC02091E80022FD91
:1032D0002FC02091E80020FFE9CF2091F20030E0DC
:1032E000FC01CF016115710559F02830310540F41A
:1032F00081918093F100615071092F5F3F4FF1CFB1
:1033000041E02830310509F040E02091E8002E77B7
:103310002093E800CBCF4111CCCF0AC08091A4020A
:10332000882361F0853061F08091E80083FD0AC058
:103330008091E80082FFF2CF80E0089582E0089556
:1033400083E0089581E008952091AB023091AC02B2
:103350002617370748F06115710539F42091E80008
:103360002E772093E80001C0B901FC0120E061152F
:10337000710579F18091A402882309F43DC085305C
:1033800009F43CC08091E80083FD3AC08091E800D8
:1033900082FD2CC08091E80080FFE9CF8091F2008F
:1033A00090E06115710559F08830910540F4249141
:1033B0002093F1003196615071090196F2CF21E01E
:1033C000089709F020E08091E8008E778093E8006C
:1033D000CECF2111CFCF0AC08091A402882361F003
:1033E000853061F08091E80083FD0AC08091E8009B
:1033F00082FFF2CF80E0089582E0089583E008958F
:1034000081E00895982F953058F59093E90098172A
:1034100039F07091EC002091ED005091F00003C064
:10342000242F762F50E021FF19C03091EB003E7F12
:103430003093EB003091ED003D7F3093ED00309103
:10344000EB0031603093EB007093EC002093ED00C3
:103450005093F0002091EE0027FF07C09F5FD3CF6D
:103460008F708093E90081E0089580E00895EF92E5
:10347000FF920F931F93CF93DF93E62EEC018C0105
:103480000C5F1F4FF12CFE1499F19881992359F18B
:10349000F801208169817A8131973081892F8F707D
:1034A000853010F080E025C0223010F442E001C0E9
:1034B00046E0E8E0F0E020E0E617F70720F42F5FB1
:1034C000EE0FFF1FF9CF2295207F422B232F22954D
:1034D000220F220F207C991F9927991F622F692B99
:1034E00091DF8823F9F2F39425960B5F1F4FCBCF22
:1034F00081E0DF91CF911F910F91FF90EF900895A0
:103500008091A50287FF11C08091E80082FD05C06F
:103510008091A4028111F8CF11C08091E8008B77CF
:103520000BC08091A402882349F08091E80080FFBD
:10353000F8CF8091E8008E778093E800089520917D
:10354000E4003091E50095E64091EC00842F817015
:1035500040FF22C08091E80080FD1CC08091A40241
:10356000882391F0853091F08091EB0085FD10C0AB
:103570004091E4005091E5004217530729F39A0166
:10358000915011F784E0089582E0089583E0089552
:1035900081E0089580E008954091E80042FFDECF89
:1035A000089541D043D08091D8008F778093D80080
:1035B0008091D80080688093D8008091D8008F7D5A
:1035C0008093D80084E089BD86E089BD09B400FEFF
:1035D000FDCF1092A4021092A0021092A2021092AB
:1035E000A10242E060E080E00DDF8091E1008E7F8B
:1035F0008093E1008091E20081608093E2008091FD
:10360000E20088608093E2008091E0008E7F8093EA
:10361000E0000895E3E6F0E080818E7F808381E022
:103620008093A302BECF1092E20008951092E100B1
:1036300008951F920F920FB60F9211242F933F936C
:103640004F935F936F937F938F939F93AF93BF93AA
:10365000EF93FF938091E10082FF0AC08091E20026
:1036600082FF06C08091E1008B7F8093E10020D231
:103670008091E10080FF17C08091E20080FF13C0BD
:103680008091E2008E7F8093E2008091E200806171
:103690008093E2008091D80080628093D80019BCAA
:1036A0001092A402FCD28091E10084FF2FC080918F
:1036B000E20084FF2BC084E089BD86E089BD09B4A7
:1036C00000FEFDCF8091D8008F7D8093D80080913F
:1036D000E1008F7E8093E1008091E2008F7E8093F5
:1036E000E2008091E20081608093E2008091A0027C
:1036F000882311F084E007C08091E30087FD02C0B9
:1037000081E001C083E08093A402C5D28091E100F2
:1037100083FF27C08091E20083FF23C08091E100F6
:10372000877F8093E10082E08093A4021092A00240
:103730008091E1008E7F8093E1008091E2008E7F96
:103740008093E2008091E20080618093E20042E099
:1037500060E080E057DE8091F00088608093F000A8
:10376000A7D1FF91EF91BF91AF919F918F917F91E1
:103770006F915F914F913F912F910F900FBE0F90DE
:103780001F9018951F920F920FB60F9211242F932E
:103790003F934F935F936F937F938F939F93AF93D9
:1037A000BF93CF93DF93EF93FF93C091E900CF7066
:1037B0008091EC00D82FD17080FDD0E81092E90004
:1037C0008091F000877F8093F00078941ED0109253
:1037D000E9008091F00088608093F000CD2BCF70DD
:1037E000C093E900FF91EF91DF91CF91BF91AF912D
:1037F0009F918F917F916F915F914F913F912F9109
:103800000F900FBE0F901F9018951F93CF93DF93CB
:10381000CDB7DEB7AA970FB6F894DEBF0FBECDBF07
:10382000E5EAF2E088E08E0F9091F10091938E131B
:10383000FBCF3BD28091E80083FF22C18091A5029B
:103840009091A602953009F478C030F4913081F15E
:1038500068F0933069F114C1983009F4E3C09930ED
:1038600009F4F2C0963009F00BC189C0803881F0AC
:10387000823809F005C18091A9028F708093E90018
:103880008091EB0085FB882780F91092E90006C043
:103890008091A1029091A202911182609091E80022
:1038A000977F9093E8008093F1001092F100C5C0DB
:1038B000282F2D7F09F0E4C0882319F0823061F0B1
:1038C000DFC08091A702813009F0DAC0933009F09F
:1038D00080E08093A2022BC08091A702811127C0B3
:1038E0008091A9028F7009F4CBC08093E9002091E8
:1038F000EB0020FF1CC0933021F48091EB0080622C
:1039000014C09091EB0090619093EB0021E030E0C7
:10391000A90102C0440F551F8A95E2F74093EA00BF
:103920001092EA008091EB0088608093EB00109287
:10393000E9008091E800877F83C08111A1C01091C8
:10394000A7021F778091E3008078812B8093E300AA
:103950008091E800877F8093E800D2DD8091E800C5
:1039600080FFFCCF8091E30080688093E300111119
:1039700002C082E001C083E08093A40281C080582D
:10398000823008F07DC08091A7029091A8028C3D02
:1039900053E0950771F583E08A838AE289834FB704
:1039A000F894DE01139620E03EE051E2E32FF0E0D0
:1039B00050935700E49120FF03C0E295EF703F5F02
:1039C000EF708E2F90E0EA3010F0C79601C0C096DD
:1039D0008D939D932F5F243149F74FBF8091E8006D
:1039E000877F8093E8006AE270E0CE0101964CDCAC
:1039F00013C0AE014F5F5F4F6091A9020E9437056F
:103A0000BC01892B09F43CC09091E800977F90930A
:103A1000E80089819A8198DC8091E8008B77809317
:103A2000E8002EC0803861F58091E800877F8093A0
:103A3000E8008091A0028093F1008091E8008E77E9
:103A40008093E8005DDD1CC081111AC09091A7022F
:103A50009230B0F48091E800877F8093E8009093E3
:103A6000A0024EDD8091A002811106C08091E3008A
:103A700087FD02C081E001C084E08093A40212D1DE
:103A80008091E80083FF0AC08091E800877F8093DF
:103A9000E8008091EB0080628093EB00AA960FB65D
:103AA000F894DEBF0FBECDBFDF91CF911F91089577
:103AB0000895CF938091A402882399F0C091E900E2
:103AC000CF709091EC00892F817090FD80E8C82B19
:103AD0001092E9008091E80083FD97DECF70C093DB
:103AE000E900CF91089508950C946A08D3D984D938
:103AF00045D90E940E080E943C150E94FA09809147
:103B0000390208950E9401122CC880E291E0C2DAC5
:103B100097FF0E94630C80E291E0A6DACACFCF93B0
:103B2000DF93EC010E9477074A815B812A813B8108
:103B3000232BD9F0288139818217930748F42881F3
:103B40003981BC01621B730B9B012150310906C0F6
:103B500028813981BC01621B730B9B0142175307FB
:103B600020F421E02C8399838883DF91CF910895FD
:103B70009091390281E0911101C080E008958DEAB1
:103B800092E008950F931F93CF93DF9304E011E029
:103B9000C0E0D0E0C801C3DFCE0167E070E089D0AB
:103BA000FC01EC5FFE4F8481882381F08581968142
:103BB000892B21F00580F681E02D0995CE0167E083
:103BC00070E077D08C5F9E4FFC0114822196095FD4
:103BD0001F4FC430D105F1F6DF91CF911F910F91A6
:103BE00094CF84B7877F84BF0FB6F894A89580914F
:103BF0006000886180936000109260000FBE90E0CA
:103C000080E80FB6F89480936100909361000FBE36
:103C100001DD0E94690581E00E94F20581E00E94B9
:103C2000E30561E080E00E947E0561E081E00E94A2
:103C30007E0561E082E00E947E050C94FC05D1DFE8
:103C40000E94CD146DEA72E080E291E059DA789436
:103C50000E9476070E94270822D80E948C150E9495
:103C600034150E944C0882D80E94DD080E94060884
:103C7000B4D80E949B150E94DE110E94DC040E94B1
:103C80005B0C80E00E94E0080E9418097BDF3DDFAA
:103C90000E94C811FBCF81E08093390208951092F1
:103CA0003902089580E291E055C980E291E03CCA72
:103CB00008950024552704C0080E591F880F991F26
:103CC000009729F076956795B8F37105B9F7802DBF
:103CD000952F0895AA1BBB1B51E107C0AA1FBB1F4C
:103CE000A617B70710F0A61BB70B881F991F5A9588
:103CF000A9F780959095BC01CD010895A1E21A2EF7
:103D0000AA1BBB1BFD010DC0AA1FBB1FEE1FFF1F7F
:103D1000A217B307E407F50720F0A21BB30BE40BCF
:103D2000F50B661F771F881F991F1A9469F7609516
:103D30007095809590959B01AC01BD01CF010895D0
:103D4000052E97FB16F400940FD057FD05D0D6DF53
:103D500007FC02D046F408C0509540953095219557
:103D60003F4F4F4F5F4F08959095809570956195A7
:103D70007F4F8F4F9F4F089568940013E894A0E001
:103D8000B0E0E4ECFEE11DC0EFEFE7F959016A0194
:103D90005E23550FEE08FE2C87019B01AC019E238C
:103DA000990F660B762FCB013BD0CDB7DEB7EAE09B
:103DB00024C02F923F924F925F926F927F928F9288
:103DC0009F92AF92BF92CF92DF92EF92FF920F93AA
:103DD0001F93CF93DF93CDB7DEB7CA1BDB0B0FB6B4
:103DE000F894DEBF0FBECDBF09942A883988488871
:103DF0005F846E847D848C849B84AA84B984C88407
:103E0000DF80EE80FD800C811B81AA81B981CE0FFD
:103E1000D11D0FB6F894DEBF0FBECDBFED010895E2
:103E2000DF93CF939F92A0E49A2E0024D001E0016B
:103E3000F00116950795F794E794D794C794B79433
:103E4000A79448F41068A20FB31FC41FD51FE61F24
:103E5000F71F081E191E220F331F441F551F661F10
:103E6000771F881F991F9A9421F79D01AE01BF010A
:103E7000C00111249F90CF91DF910895FB01DC01D7
:103E80008D91059080190110D9F3990B0895A0E048
:103E9000B0E0ECE4FFE19DCFAE01475F5F4F6F8183
:103EA00078858D819E8143D0E2E0AFCFA0E0B0E085
:103EB000EBE5FFE18CCF0F811885F80183818860E5
:103EC0008383AE01455F5F4F69857A85C8012FD036
:103ED000F8012381277F2383E4E095CFEF92FF92BF
:103EE0000F931F93CF93DF93DB0113962C9121FF48
:103EF00018C08B017C01D0E0C0E0F70181917F0107
:103F0000882361F0D8011896ED91FC911997B801BA
:103F10000995892B91F3DFEFCFEFEFCF8D2F9C2FFA
:103F200002C08FEF9FEFCDB7DEB7E6E06ACFACE01F
:103F3000B0E0ECE9FFE13DCF7C016B018A01FC01BF
:103F400017821682838181FFB0C1CE0101964C0198
:103F5000F7019381F60193FD859193FF81916F01A4
:103F6000882309F49EC1853239F493FD859193FF2E
:103F700081916F01853221F4B70190E0B1D1E8CF92
:103F8000512C312C20E02032A0F48B3269F030F437
:103F9000803259F0833269F420612CC08D3239F0BF
:103FA000803339F4216026C02260246023C0286059
:103FB00021C027FD27C030ED380F3A3078F426FFB6
:103FC00006C0852D6AE042D2582E530E13C0832DB1
:103FD0006AE03CD2382E330E20620CC08E3221F4BF
:103FE00026FD5FC1206406C08C3611F4206802C033
:103FF000883641F4F60193FD859193FF81916F011D
:104000008111C1CF982F9F7D9554933028F40C5F78
:104010001F4FFFE3F9830DC0833631F0833771F012
:10402000833509F057C021C0F801808189830E5F74
:104030001F4F44244394512C540114C03801F2E022
:104040006F0E711CF801A080B18026FF03C0652DA2
:1040500070E002C06FEF7FEFC5012C8736D12C01D5
:1040600083012C852F77222E16C03801F2E06F0EC7
:10407000711CF801A080B18026FF03C0652D70E09F
:1040800002C06FEF7FEFC5012C8714D12C012C8566
:104090002068222E830123FC19C0832D90E048164E
:1040A0005906A0F4B70180E290E01AD13A94F5CF16
:1040B000F50127FC859127FE81915F01B70190E012
:1040C0000FD131103A94F1E04F1A510841145104C4
:1040D00079F7DEC0843611F0893631F5F80127FF13
:1040E00007C060817181828193810C5F1F4F08C07E
:1040F00060817181072E000C880B990B0E5F1F4F9A
:104100002F76722E97FF09C09095809570956195D6
:104110007F4F8F4F9F4F2068722E2AE030E0A4011E
:1041200017D1A82EA81843C0853729F42F7EB22EA8
:104130002AE030E025C0F22FF97FBF2E8F36C1F084
:1041400018F4883579F0ADC0803719F0883721F040
:10415000A8C02F2F2061B22EB4FE0DC08B2D84601D
:10416000B82E09C024FF0AC09F2F9660B92E06C042
:1041700028E030E005C020E130E002C020E132E07C
:10418000F801B7FE07C060817181828193810C5F65
:104190001F4F06C06081718180E090E00E5F1F4F6D
:1041A000A401D6D0A82EA818FB2DFF777F2E76FE6F
:1041B0000BC0372D3E7FA51450F474FE0AC072FC6C
:1041C00008C0372D3E7E05C0BA2C372D03C0BA2C4F
:1041D00001C0B52C34FF0DC0FE01EA0DF11D808138
:1041E000803311F4397E09C032FF06C0B394B39412
:1041F00004C0832F867809F0B39433FD12C030FFDA
:1042000006C05A2CB31418F4530C5B18B32CB31417
:1042100060F4B70180E290E03C8762D0B3943C85C3
:10422000F6CFB31410F43B1801C0312C34FF11C089
:10423000B70180E390E03C8753D03C8532FF16C045
:1042400031FD03C088E790E002C088E590E0B70147
:104250000CC0832F867851F031FF02C08BE201C081
:1042600080E237FD8DE2B70190E03AD0A51430F43A
:10427000B70180E390E034D05A94F8CFAA94F401C7
:10428000EA0DF11D8081B70190E02AD0A110F6CF90
:10429000332009F45DCEB70180E290E021D03A945A
:1042A000F7CFF7018681978102C08FEF9FEF2C96A1
:1042B000E2E19BCDFC010590615070400110D8F700
:1042C000809590958E0F9F1F0895FC01615070405E
:1042D00001900110D8F7809590958E0F9F1F08953B
:1042E0000F931F93CF93DF93FB01238121FD03C025
:1042F0008FEF9FEF28C022FF16C04681578124818F
:1043000035814217530744F4A081B1819D012F5F8D
:104310003F4F318320838C93268137812F5F3F4F1E
:104320003783268310C0EB01092F182F0084F185F5
:10433000E02D0995892BE1F68E819F8101969F835F
:104340008E83812F902FDF91CF911F910F91089530
:10435000FA01AA27283061F1203191F1E8946F9396
:104360006E7F6E5F7F4F8F4F9F4FAF4FB1E040D05A
:10437000B4E03ED0670F781F891F9A1FA11D680FF8
:10438000791F8A1F911DA11D6A0F711D811D911D2D
:10439000A11D22D009F468943F91062E000C30191B
:1043A000000C000C3019305D3193CEF6CF0108952A
:1043B000462F4770405D4193B3E00FD0C9F7F6CF69
:1043C000462F4F70405D4A3318F0495D31FD405231
:1043D000419302D0A9F7EACFB4E0A69597958795C7
:1043E00077956795BA95C9F70097610571050895A6
:1043F0009B01AC010A2E0694579547953795279552
:10440000BA95C9F7620F731F841F951FA01D0895E9
:10441000F999FECF92BD81BDF89A992780B508958C
:10442000262FF999FECF92BD81BDF89A019700B46D
:10443000021639F01FBA20BD0FB6F894FA9AF99A0D
:104440000FBE08950196272FECDFEACF002480FDF0
:10445000060E660F11F08695D1F7802D0895F89419
:02446000FFCF8C
:10446200630101030000010000731D00000A000047
:10447200741D0000640000761D0000320000821DE1
:1044820000831000000104100000018208000001F6
:1044920000000000000000000000004F4B3A256CB5
:1044A200640A0D004F4B3A25690A0D004F4B3A50F2
:1044B2004F574552444F574E0A0D004F4B3A504FFB
:1044C2005745524F4E0A0D004F4B3A425245574FF5
:1044D2004E450A0D004552523A42524557455252F4
:1044E2000A0D004F4B3A42524554574F0A0D0055A0
:1044F200534147453A20274D414B45204F4E4543B6
:104502005550272C20274D414B452054574F43559A
:10451200502720666F72206F6E65206F722074774D
:0A4522006F20637570730A0D00002E
:00000001FF
