S0170000436F6666655F4D616B65725F4D4B492E737265639B
S1130000A6C60000C1C60000BFC60000BDC60000F1
S1130010BBC60000B9C60000B7C60000B5C60000E4
S1130020B3C60000B1C60000AFC600000C943F1F69
S11300300C94E81FA9C60000A7C600000C944F0941
S11300400C9445090C943B099FC600000C94FB08D2
S11300509BC6000099C6000097C600000C94CC090A
S11300600C948C0991C600008FC600008DC6000058
S11300708BC600001C034C005500460041002000C4
S11300804300440043002000440065006D006F00FD
S1130090000018034400650061006E002000430066
S11300A061006D0065007200610000000403090432
S11300B009023E00020100C03209040000010202EC
S11300C00100052400100104240206052406000191
S11300D0070582030800FF09040100020A0000006A
S11300E0070504021000050705830210000512012C
S11300F0100102000008EB03442001000102DC01AE
S11301004F4B0A0D004552523A5041525345520A40
S11301100D004552523A504152414D0A0D0047508C
S1130120494F202D2048656C700A0D2D2D2D2D2D45
S11301302D2D2D2D2D2D2D2D2D2D2D2D2D2D2D2DEB
S11301402D2D2D2D2D2D2D2D2D2D2D2D2D2D2D2DDB
S11301502D2D2D2D2D2D2D2D2D2D2D2D2D2D2D2DCB
S11301602D2D2D2D2D2D2D2D2D2D2D2D2D2D2D2DBB
S11301702D2D2D2D2D2D2D2D2D2D2D2D2D2D2D2DAB
S11301802D2D2D2D2D0A0D557365204745542074B2
S11301906F2072656164206F7220736574207468C7
S11301A06520737461747573206F66204750494FDE
S11301B0730A0D54686520494F206D617073206186
S11301C07320666F6C6C6F77733A30203D20535701
S11301D049544348203031203D2053574954434823
S11301E0203132203D205357495443482032332094
S11301F03D20446973706C617920627574746F6E0C
S113020034203D2057617465722073656E736F727C
S1130210206C6F77206C6576656C35203D205761C6
S11302207465722073656E736F72206869676820E5
S11302306C6576656C4578616D706C653A2027470E
S11302404554204750494F2030272077696C6C2053
S113025072657475726E2074686520637572726558
S11302606E74206C6576656C206F66205357495414
S1130270434820302D2D2D2D2D2D2D2D2D2D2D2D83
S11302802D2D2D2D2D2D2D2D2D2D2D2D2D2D2D2D9A
S11302902D2D2D2D2D2D2D2D2D2D2D2D2D2D2D2D8A
S11302A02D2D2D2D2D2D2D2D2D2D2D2D2D2D2D2D7A
S11302B02D2D2D2D2D2D2D2D2D2D2D2D2D2D2D2D6A
S11302C02D2D2D2D2D2D2D2D2D2D2D2D2D2D2D0A7D
S11302D00D004750494F202D2048656C700A0D2DA4
S11302E02D2D2D2D2D2D2D2D2D2D2D2D2D2D2D2D3A
S11302F02D2D2D2D2D2D2D2D2D2D2D2D2D2D2D2D2A
S11303002D2D2D2D2D2D2D2D2D2D2D2D2D2D2D2D19
S11303102D2D2D2D2D2D2D2D2D2D2D2D2D2D2D2D09
S11303202D2D2D2D2D2D2D2D2D2D2D2D2D2D2D2DF9
S11303302D2D2D2D2D2D2D2D2D0A0D4F6E6C79204B
S113034047455420697320737570706F72746564C7
S113035020666F72204750494F202C20736565201A
S113036048454C50204750494F20666F72206D6FAE
S1130370726520696E666F2D2D2D2D2D2D2D2D2D41
S11303802D2D2D2D2D2D2D2D2D2D2D2D2D2D2D2D99
S11303902D2D2D2D2D2D2D2D2D2D2D2D2D2D2D2D89
S11303A02D2D2D2D2D2D2D2D2D2D2D2D2D2D2D2D79
S11303B02D2D2D2D2D2D2D2D2D2D2D2D2D2D2D2D69
S11303C02D2D2D2D2D2D2D2D2D2D2D2D2D2D2D2D59
S11303D02D2D0A0D004750494F202D2048656C7083
S11303E00A0D2D2D2D2D2D2D2D2D2D2D2D2D2D2D7C
S11303F02D2D2D2D2D2D2D2D2D2D2D2D2D2D2D2D29
S11304002D2D2D2D2D2D2D2D2D2D2D2D2D2D2D2D18
S11304102D2D2D2D2D2D2D2D2D2D2D2D2D2D2D2D08
S11304202D2D2D2D2D2D2D2D2D2D2D2D2D2D2D2DF8
S11304302D2D2D2D2D2D2D2D2D2D2D2D0A0D4750EE
S1130440494F20696E646578206F7574206F66204B
S113045072616E67652C207365652048454C502099
S11304604750494F20666F72206D6F726520696E28
S1130470666F2D2D2D2D2D2D2D2D2D2D2D2D2D2D2D
S11304802D2D2D2D2D2D2D2D2D2D2D2D2D2D2D2D98
S11304902D2D2D2D2D2D2D2D2D2D2D2D2D2D2D2D88
S11304A02D2D2D2D2D2D2D2D2D2D2D2D2D2D2D2D78
S11304B02D2D2D2D2D2D2D2D2D2D2D2D2D2D2D2D68
S11304C02D2D2D2D2D2D2D2D2D2D2D2D2D0A0D00C8
S11304D055534147453A2027474554204543484F03
S11304E0272C2027534554204543484F205858581B
S11304F0582720776974682030203D204F464620D5
S1130500616E6420656C7365204F4E0A0D0055536F
S11305104147453A20274745542053544259544DA6
S113052050272C20275345542053544259544D509E
S113053020585858580A0D0055534147453A20272A
S1130540534554204155544F4F4646204F4E272C77
S11305502027534554204155544F4F4646204F467B
S11305604627206F722027534554204155544F4F3E
S11305704646204F464627200A0D0055534147451D
S11305803A2027474554204C45564C4527206F7246
S11305902027534554204C4556454C20585858580C
S11305A02720776974682072616E6765206F662002
S11305B03020746F20320A0D0055534147453A20CC
S11305C02747455420424F494C4552544D5027200B
S11305D0746F20726561642074686520637572723B
S11305E0656E7420626F696C65722074656D70202D
S11305F0696E20312F313030206465677265652063
S1130600432E0A0D004F4B3A25690A0D00555341FC
S113061047453A20274745542043555250575227BF
S113062020746F207265616420746865206375723C
S113063072656E7420706F776572207573656420BF
S1130640696E206D410A0D004F4B3A25690A0D0071
S113065055534147453A2027474554204348505273
S11306604727206F72202753455420434850524750
S113067020585858582720776974682072616E672B
S113068065206F66203020746F20370A0D004F4BB1
S11306903A25690A0D0055534147453A20274745F5
S11306A0542050524727206F72202753455420501E
S11306B05247205858585827207769746820726127
S11306C06E6765206F66203020746F20370A0D0036
S11306D04F4B3A25690A0D0055534147453A2027A7
S11306E0474554205741495427206F7220275345CA
S11306F05420574149542058585858272077697432
S1130700682072616E6765206F66203020746F20E8
S113071036353533350A0D004F4B3A25690A0D003D
S113072055534147453A202747455420574154459E
S11307305227206F72202753455420574154455265
S113074020585858582720776974682072616E675A
S113075065206F66203020746F2036353533350AB6
S11307600D004F4B3A25690A0D0055534147453A50
S11307702027474554205052574127206F72202785
S113078053455420505257412058585858272077E1
S11307906974682072616E6765206F66203020740A
S11307A06F2036353533350A0D0055534147453AE8
S11307B020274745542054454D5027206F72202749
S11307C05345542054454D502058585858272077A5
S11307D06974682072616E6765206F6620302074CA
S11307E06F20393939390A0D004F4B3A25690A0D02
S11307F0004E6F20286D6F72652920626F74746CCF
S11308006573206F662062656572206F6E20746860
S1130810652077616C6C2C0A0D4E6F20286D6F7209
S1130820652920626F74746C6573206F662062653D
S113083065722E0A0D476F20746F207468652073EB
S1130840746F726520616E642062757920736F6DB8
S113085065206D6F72652C0A0D4E696E6574792D75
S11308606E696E6520626F74746C6573206F6620A8
S113087062656572206F6E207468652077616C6CA8
S11308802E0A0D00256920426F74746C6528732943
S1130890206F662062656572206F6E207468652023
S11308A077616C6C2C20256920626F74746C6528E8
S11308B07329206F6620626565720A0D54616B6549
S11308C0206F6E6520646F776E20616E64207061A6
S11308D073732069742061726F756E642C0A0D2520
S11308E06920626F74746C65287329206F662062B6
S11308F0656572206F6E207468652077616C6C0A80
S11309000D0053656E736548614A6F202D2048655C
S11309106C700A0D2D2D2D2D2D2D2D2D2D2D2D2DC4
S11309202D2D2D2D2D2D2D2D2D2D2D2D2D2D2D2DF3
S11309302D2D2D2D2D2D2D2D2D2D2D2D2D2D2D2DE3
S11309402D2D2D2D2D2D2D2D2D2D2D2D2D2D2D2DD3
S11309502D2D2D2D2D2D2D2D2D2D2D2D2D2D2D2DC3
S11309602D2D2D2D2D2D2D2D2D2D2D2D2D2D0A0DF6
S1130970557365205345542C204745542C20434D32
S11309804420616E642048454C500A0D436F6D6DE0
S1130990616E6473206172653A0A0D4750494F20B5
S11309A02D20476574204750494F20537461746566
S11309B0092843616E206F6E6C792075736520473A
S11309C04554290A0D54454D50202D20536574205B
S11309D06F72204765742050726F672E2054656DC6
S11309E0702E0A0D505247202D20536574206F72CB
S11309F0204765742063757272656E742050726F3F
S1130A00672E0A0D4348505247202D205365742009
S1130A106F7220476574207468652063757272650F
S1130A206E742050726F672E20746F206D6F64692E
S1130A3066790A0D50525741202D20536574206F5A
S1130A4072204765742074686520616D6F756E74DB
S1130A50206F6620776174657220757365642074F5
S1130A606F2077657420746865207061640A0D577F
S1130A7041544552202D20536574206F72204765E0
S1130A80742074686520616D6F756E74206F6620C4
S1130A907761746572207573656420746F20627267
S1130AA065772074686520636F666665650A0D570F
S1130AB0414954202D20536574206F72204765747A
S1130AC02074686520616D6F756E74206F66207484
S1130AD0696D6520746F207761697420626574772D
S1130AE065656E2077657420746865207061642084
S1130AF0616E64206D616B652074686520636F6648
S1130B006665650A0D435552505752202D2047659E
S1130B1074207468652063757272656E7420706FDA
S1130B2077657220757365640A0D424F494C4552CE
S1130B30544D50202D2047657420746865206375DA
S1130B407272656E7420626F696C65722074656D73
S1130B50702E0A0D4C4556454C202D2053657420AB
S1130B606F722047657420746865206375727265BE
S1130B706E742066696C6C206C6576656C206F669B
S1130B8020746865204375700A0D4155544F4F46D3
S1130B90202D20536574206F72204765742074687B
S1130BA0652054696D6520696E204D696E757465A4
S1130BB07320756E74696C204175746F204F66667E
S1130BC00A0D5354425954454D50202D20536574F9
S1130BD0206F722047657420746865207374616E99
S1130BE06462792074656D702E0A0D4D414B452069
S1130BF0284F4E45435550202C2054574F435550B1
S1130C0029207573656420746F206D616B652063A2
S1130C106F666665650A0D4543484F202D20656E55
S1130C2061626C65206F722064697361626C652017
S1130C3073657269616C204543484F0A0D466F72B3
S1130C40206D6F72652048656C7020747970652022
S1130C5048454C50203C434F4D4D414E443E0A0DB7
S1130C602D2D2D2D2D2D2D2D2D2D2D2D2D2D2D2DB0
S1130C702D2D2D2D2D2D2D2D2D2D2D2D2D2D2D2DA0
S1130C802D2D2D2D2D2D2D2D2D2D2D2D2D2D2D2D90
S1130C902D2D2D2D2D2D2D2D2D2D2D2D2D2D2D2D80
S1130CA02D2D2D2D2D2D2D2D2D2D2D2D2D2D2D2D70
S1130CB02D2D2D2D2D2D2D2D2D2D2D0A0D004F4695
S1130CC046004F4E0054574F435550004F4E454336
S1130CD0555000504F574552004D414B4500475029
S1130CE0494F004543484F005354425954454D50D1
S1130CF0004155544F4F4646004C4556454C004222
S1130D004F494C4552544D50004355525057520090
S1130D1043485052470050524700574149540057E6
S1130D204154455200505257410054454D500042E1
S1130D304545520048454C5000434D4400474554F6
S1130D4000534554002563006548614A6F0011242F
S1130D501FBECFEFD4E0DEBFCDBF12E0A0E0B1E014
S1130D60E0E8FCE402C005900D92A438B107D9F77D
S1130D7023E0A4E8B2E001C01D92A138B207E1F774
S1130D800E944C220C943E263BC98F9387EF0000AF
S1130D900197F1F78F9108953D983C9A449A4598AC
S1130DA008953D9AF2DF1DC008954498EEDF3D9802
S1130DB0ECDF449AEADF3D9AE8DF13C00895082E79
S1130DC03D9AE3DF802D0DD0882311F002D0F8CFB7
S1130DD0089544983D9AD9DF449AD7DF3D98D5CFFA
S1130DE008950894881F01C0880F59F0449818F496
S1130DF000003D9802C03D9A00C0C7DF449AC5DF99
S1130E00F3CF44983D98C1DF449A8827359981E00F
S1130E10BCDF99270895882701C081E071E04498D8
S1130E203D98B3DF449AB1DFFFCF88943599089495
S1130E30771FA8F74498813011F03D9801C03D9A7E
S1130E40A4DF449AFFCFA1DF872F99270895292F84
S1130E5033272230310559F02330310569F0213030
S1130E603105E9F482E190E02EEE30E01CC08EE31F
S1130E7090E020EB30E017C099278130910549F0CC
S1130E8028F0029761F4E4E7F0E005C0ECEAF0E052
S1130E9002C0E2E9F0E0849190E09F0104C080E0A8
S1130EA090E020E030E0FA01318320830895599ADC
S1130EB0519A589A509A5F9A579A2C9A249A2E9A31
S1130EC0269A2098289A25982D9A27982F9A3E9802
S1130ED0469A3F98479A0895813081F018F08230FD
S1130EE0C1F00895611102C05F980895613011F452
S1130EF05F9A08958BB180588BB90895611102C02F
S1130F002C980895613011F42C9A089595B180E1DC
S1130F100AC0611102C02E980895613011F42E9A0E
S1130F20089595B180E4892785B90895813069F0E1
S1130F3038F0823071F483B186FB882780F90895F4
S1130F4089B1881F8827881F089583B1829581708D
S1130F50089581E00895813059F038F0823069F4C1
S1130F6083B1881F8827881F089583B181700895ED
S1130F7083B185FB882780F9089581E0089588234B
S1130F8039F0813051F486B1881F8827881F08956D
S1130F9086B186FB882780F9089581E00895811140
S1130FA002C0599A08955998089529B121FB8827B8
S1130FB080F990E021E0822781700895811102C0B8
S1130FC0589A08955898089589B180958170089524
S1130FD083C1CF93DF93C82F7BD181E090D1C1111E
S1130FE002C080EE01C080EA8AD1C82FD0E0DC2F95
S1130FF0CC278AEA84D1C82B6DD1CE0124E0880F96
S1131000991F2A95E1F7DF91CF9108953C98449870
S11310103498089586B18295817008958430A1F141
S113102048F4813011F190F0823009F44AC08330E1
S1131030C9F10895863009F462C008F451C08730BC
S113104009F46CC0883009F478C008958091840252
S113105090918502611102C080627CC0623019F4F3
S113106020E2822777C08F7D75C0809184029091A1
S11310708502611102C084606DC0623019F424E0FD
S1131080822768C08B7F66C080918402909185021C
S1131090611102C080685EC0623011F480585AC089
S11310A08F7758C08091840290918502611102C0AB
S11310B0806450C0623019F420E482274BC08F7BD7
S11310C049C08091840290918502611102C08061BF
S11310D041C0623019F420E182273CC08F7E3AC0BF
S11310E08091840290918502611102C0886032C0AF
S11310F0623019F428E082272DC0877F2BC08091AD
S1131100840290918502611102C0816023C0623023
S113111019F421E082271EC08E7F1CC080918402B6
S113112090918502611102C0826014C0623019F48A
S113113022E082270FC08D7F0DC0809184029091A0
S11311408502611102C0906805C0623011F49058A4
S113115001C09F7790938502809384020895E4E808
S1131160F2E0808191819078918380838081918164
S1131170982F882790952081318188279F77822B0B
S1131180932B918380830895EADF20918402309128
S11311908502809186029091870228173907A1F071
S11311A0FBDD8EE7FEDD81110EC08091840219DE25
S11311B08091850216DE809184029091850290933D
S11311C087028093860205DE21CF893090F4409116
S11311D086025091870221E030E002C0220F331FC3
S11311E08A95E2F72423352381E0232B19F080E04C
S11311F0089581E008951F920F920FB60F92112463
S11312002F933F934F935F936F937F938F939F930A
S1131210AF93BF93EF93FF938091880290918902DB
S1131220019690938902809388028091880290911C
S1131230890280FD04C081E0CCDE0E948A1A80917C
S11312408802909189028F779927892B19F480E07D
S1131250C0DEEAD0FF91EF91BF91AF919F918F9142
S11312607F916F915F914F913F912F910F900FBE9E
S11312700F901F9018951F920F920FB60F92112482
S11312800F900FBE0F901F9018951F920F920FB6DC
S11312900F9211240F900FBE0F901F9018951F925C
S11312A00F920FB60F9211240F900FBE0F901F9044
S11312B0189582E084BD93E095BD9AEF97BD809325
S11312C06E000895F6CF8091880290918902089566
S11312D042980895429A0895ECECF0E0118210824D
S11312E0429A3A9A5D9A559A80EC8093CA0084E0B7
S11312F090E09183808388E18093C9000895909160
S1131300C80095FFFCCF8093CE008091C80087FF72
S1131310FCCF8091CE0008951F920F920FB60F92CA
S113132011242F933F934F935F936F937F938F93E6
S11313309F93AF93BF93EF93FF9380918A02882387
S1131340A1F080918A02815080938A02E0918B02FD
S1131350F0918C020190F081E02D309711F08081A2
S113136001C08AEA8093CE0006C08091C9008F71C3
S11313708093C900AFDFFF91EF91BF91AF919F912F
S11313808F917F916F915F914F913F912F910F902A
S11313900FBE0F901F9018951F920F920FB60F92C9
S11313A011248F939F93AF93BF93EF93FF93E09197
S11313B08B02F0918C02A281B3818091CE001097B0
S11313C031F08C9382819381019693838283FF9180
S11313D0EF91BF91AF919F918F910F900FBE0F909E
S11313E01F90189580E00E94D71910928E021092D7
S11313F08D02089536D020918D0230918E0282178D
S1131400930714F480E001C081E0C9CD90938E026B
S113141080938D02089525C0C8DD91E0813009F4E0
S113142090E0892F08950895909301038093000319
S1131430A0E0B0E0BC01CD016C5671408109910976
S113144024E630E040E050E00E94972220ED31E0B5
S113145040E050E00E94E62230930303209302030D
S113146008958091020390910303089580E090E031
S113147021E032E0FC0143E0EE0FFF1F4A95E1F763
S1131480E157FD4F158226833283238301968430EE
S1131490910581F70895833018F0833011F4BACDA3
S11314A05ACD81E008950F931F93CF93DF93C0E04B
S11314B0D0E011E002E08C2FEEDF9E0193E0220FDA
S11314C0331F9A95E1F7F901E157FD4F968189178A
S11314D031F0158286838781811119C00DC09581F1
S11314E0953021F48383128317830EC0858186305F
S11314F028F08781811102C0128209C0F901E157E5
S1131500FD4F85818F3F19F085818F5F8583F901B8
S1131510E157FD4F838181110AC080819181019639
S113152059F08081918101969183808305C08381E4
S1131530813011F411821082F901E157FD4F80814D
S11315409181892B39F0808191818039914010F407
S113155014830FC0F901E157FD4F808191818039D7
S1131560914010F0048305C080819181892B09F496
S113157014822196C430D10509F09DCFDF91CF911B
S11315801F910F910895843070F4E82FF0E083E008
S1131590EE0FFF1F8A95E1F7E157FD4F1782628135
S11315A07381848108956091A9027091AA02809147
S11315B0AB0208958091CA029091CB0208958031C4
S11315C027E2920710F08FE097E29093CB0280938A
S11315D0CA0285EC92E00C9458171092CF02089539
S11315E01F93CF93DF93CDB7DEB760970FB6F89410
S11315F0DEBF0FBECDBF9091CF02992331F0909101
S1131600CF02913011F080E016C08830E0F7182F37
S1131610BE016F5F7F4F0E94F5178823A1F380E11D
S1131620FE013196A5EBB2E001900D928A95E1F7A7
S11316301093B00281E060960FB6F894DEBF0FBE3F
S1131640CDBFDF91CF911F9108958091B00208958D
S1131650CF93DF93CDB7DEB72A970FB6F894DEBFEA
S11316600FBECDBFCE0101960E948217882359F088
S11316708AE0FE013196A5ECB2E001900D928A95C4
S1131680E1F781E005C085EC92E00E94E81680E075
S11316902A960FB6F894DEBF0FBECDBFDF91CF916F
S11316A008959091CF02992321F09091CF02913027
S11316B081F4823020F08091AF02846003C0809175
S11316C0AF028B7F8093AF0282E08093CF0281E0F0
S11316D0089580E00895882341F08091CF0281111C
S11316E006C081E08093CF0208951092CF0208953E
S11316F09091CF02992321F09091CF02913049F437
S1131700833008F082E08093C90285EC92E00C9467
S1131710581708958091C90208958D3308F08CE319
S11317208093C50285EC92E00C9458178091C50211
S11317300895CF93C82F65E080E00E94D116C13090
S113174021F050F466E081E002C066E080E00E948F
S1131750D11667E081E006C066E080E00E94D11601
S113176067E080E0CF910C94D116CF93C82F83E02B
S11317700ADFC230A0F4613091F4711110C080917D
S1131780C9028F5F8093C9028091C902833010F02F
S11317901092C90285EC92E0CF910C945817CF9126
S11317A0089560E0882311F081E001C080E00C948A
S11317B0D11662E0882311F083E005C081E00E9425
S11317C0D11662E084E00C94C716662339F064E015
S11317D080E00E94C71663E080E01AC063E08823BB
S11317E051F080E00E94D11663E084E00E94C716A5
S11317F064E083E00DC081E00E94D11664E081E0E2
S11318000E94D11663E084E00E94C71664E084E07D
S11318100C94C7168F929F92AF92BF92CF92DF9291
S1131820EF92FF920F931F93CF93DF93CDB7DEB761
S11318302A970FB6F894DEBF0FBECDBF81E0A3DEBA
S1131840162FF72E80E09FDEA62EC72E82E09BDEA9
S1131850B62ED72E8091AF028E7F8093AF020E9466
S1131860AE19022FE42E2E833F83488759876A8757
S1131870411102C0222351F08091CF02882321F02C
S113188081E08093CF0202C01092CF028091CF02F8
S1131890843009F43BC158F4813009F46DC098F0E8
S11318A0823009F4BFC0833009F4F7C013C2863014
S11318B009F44AC108F4BBC1873009F4E8C188308F
S11318C009F4FBC107C21092B1021092B202109245
S11318D0B3021092B40280E090E898DD81E06EDB00
S11318E068E080E00E946B1A68E082E00E946B1A54
S11318F068E081E00E946B1A8091AF028B7F809335
S1131900AF021130A1F4F11012C06091C50270E071
S113191080E090E020E63AEE40E050E00E9497221A
S1131920AB01BC0181E00E945A1B1093CF0281E0FD
S1131930A81210C0C8120EC0D11004C087E0809352
S1131940CF0208C082E08093CF028091AF028B7FE8
S11319508093AF0281E0B812BFC1D812BDC1C110DB
S113196002C087E0A7C182E08093CF028091AF02DA
S113197084608093AF02B0C168E080E00E946B1A7B
S113198068E082E00E946B1A81E00E940D1B809146
S1131990AF028B7F8093AF02002329F080E090E8B0
S11319A035DD60E010C08091CA029091CB022EDD3B
S11319B032DD2091CA023091CB028217930710F4D2
S11319C063E001C069E081E00E946B1A113021F4E8
S11319D0F11002C01092CF0281E0A8120AC0C11017
S11319E008C082E08093CF028091AF028B7F809306
S11319F0AF0281E0B8120AC0D11008C082E080931F
S1131A00CF028091AF0284608093AF028091C502BF
S1131A10882309F461C181E00E94691B813009F0C7
S1131A205BC158C18091AF0281608093AF0268E0CE
S1131A3081E00E946B1A8091AF0268E082FD06C0CB
S1131A4082E00E946B1A62E080E005C080E00E94A0
S1131A506B1A62E082E00E946B1A8091B502909149
S1131A60B602845D9E4FD2DCD6DC4091B502509123
S1131A70B602092E000CAA0BBB0B60E070E08417C1
S1131A809507A607B70714F400003AC080E00E9447
S1131A900D1B83E08093CF0233C068E081E00E9495
S1131AA06B1A8091AF0268E082FD06C082E00E945A
S1131AB06B1A62E080E005C080E00E946B1A62E06D
S1131AC082E00E946B1A0E94181B2091B902309187
S1131AD0BA024901A12CB12C681579058A059B0528
S1131AE078F084E08093CF0281E00E940D1B409146
S1131AF0BB025091BC0260E070E080E00E945A1B7F
S1131B00113009F0E9C0F110E7C0E4C068E081E0F9
S1131B100E946B1A8091AF0268E082FD06C082E0E9
S1131B200E946B1A62E080E005C080E00E946B1A9C
S1131B3062E082E00E946B1A80E00E94691B8823A5
S1131B4009F4C6C086E0B6C08091B7029091B8028D
S1131B50A0E0B0E08093B1029093B202A093B302EC
S1131B60B093B4028091AF0282FF14C08091B1029D
S1131B709091B202A091B302B091B402880F991F60
S1131B80AA1FBB1F8093B1029093B202A093B30229
S1131B90B093B4028091C902813051F030F5609164
S1131BA0B1027091B2028091B3029091B4020EC05E
S1131BB08091B1029091B202A091B302B091B402AB
S1131BC0BC01CD01660F771F881F991F23E030E009
S1131BD040E050E00E94C4222093B1023093B2024C
S1131BE04093B3025093B40210C08091B10290911B
S1131BF0B202A091B302B091B4028093B102909367
S1131C00B202A093B302B093B40285E08093CF02F2
S1131C104091B1025091B2026091B3027091B4024A
S1131C2082E00E945A1B80E00E940D1B55C068E0B0
S1131C3081E00E946B1A8091AF0262E082FF06C0CD
S1131C4082E00E946B1A68E080E005C080E00E9498
S1131C506B1A68E082E00E946B1A82E00E94691BA2
S1131C608823D1F181E00E940D1B6091C50270E0D0
S1131C7080E090E020E63AEE40E050E00E949722B7
S1131C80AB01BC0181E00E945A1B81E013C080E0DB
S1131C9090E8BCDB62E080E00E946B1A62E081E0C5
S1131CA00E946B1A62E082E00E946B1A80E00E943C
S1131CB00D1B88E08093CF020FC00E94AE192983C8
S1131CC03A834B835C836D83213021F0313011F0F2
S1131CD0000002C01092CF028091CF0246DD8091B5
S1131CE0AF0281705EDD8091C90223DD81E00111C4
S1131CF001C080E05EDD90DB61E0E11001C060E0E6
S1131D002A960FB6F894DEBF0FBECDBFDF91CF91F8
S1131D101F910F91FF90EF90DF90CF90BF90AF9005
S1131D209F908F9052CD80E090E0FC01EA5FFC4FE1
S1131D301082019680349105C1F7109247030895EB
S1131D40809104038E7F8093040310920503EBCFEC
S1131D50CF93DF9390914703903468F4E091470365
S1131D60F0E0EA5FFC4F8083909147039F5F90937C
S1131D704703D1E003C080934503D0E0909104036E
S1131D8090FF17C0C82F0E94E521882391F00E947C
S1131D90EC211F92CF9325E43DE03F932F939F9333
S1131DA08F930E941A230F900F900F900F900F9013
S1131DB00F908D2FDF91CF9108958F929F92AF92C4
S1131DC0BF92EF92FF920F931F93CF938C017B01ED
S1131DD0FB011082118212821382FC0180818B32FA
S1131DE021F08D3231F4C1E001C0C0E00F5F1F4F1C
S1131DF036C0C0E034C0C42F3323C9F1C11137C089
S1131E002A3098F5F701608171818281938141E0E4
S1131E106939F9E97F078F07F9E19F0760F72AE03D
S1131E2030E040E050E00E949722F7016083718324
S1131E3082839383F80121918F0130E0205331098B
S1131E404901330FAA08BB08DC01CB01880D991D99
S1131E50AA1DBB1DF70180839183A283B383F8017C
S1131E60308120ED230F4C2FC6CFC1E0C5CF8C2F7E
S1131E70CF911F910F91FF90EF90BF90AF909F90E3
S1131E808F900895FC0120E03E2F381B7081DA0109
S1131E909C91772351F0391740F4211106C0761331
S1131EA002C0108221E03196EFCF931BDA019C939C
S1131EB0211102C0E0E0F0E0CF0108950E94E52185
S1131EC0882371F00E94EC2122E131E03F932F93AB
S1131ED09F938F930E941A230F900F900F900F904F
S1131EE008950E94E521882371F00E94EC2125E0E9
S1131EF031E03F932F939F938F930E941A230F9067
S1131F000F900F900F9008950E94E521882371F09F
S1131F100E94EC2120E031E03F932F939F938F9315
S1131F200E941A230F900F900F900F9008952F92F4
S1131F303F924F925F926F927F928F929F92AF9255
S1131F40BF92CF92DF92EF92FF920F931F93CF93A2
S1131F50DF93CDB7DEB727970FB6F894DEBF0FBE79
S1131F60CDBF86E08A8381E089831B821C821D8227
S1131F701E8280E48F8306E013E0F12C86E0E82ED5
S1131F809AE0A92E29E0922E38E0832E47E0342EE1
S1131F9055E0252E64E0D62E412C512C3201439479
S1131FA0AE01495F5F4F60E2C8016CDFB82EC92EF5
S1131FB00115110509F415C181E0F816C9F1F816E7
S1131FC028F092E0F91609F4C6C007C161E47DE087
S1131FD0C8010E940223892B11F41982FEC06DE30B
S1131FE07DE0C8010E940223892B11F481E008C01E
S1131FF069E37DE0C8010E940223892B19F482E081
S11320008983EBC064E37DE0C8010E940223892B2D
S113201019F483E0898308C06FE27DE0C8010E945F
S11320200223892B19F4D9828CE019C0E982D5C026
S11320308981833019F0823008F077C06AE27DE04C
S1132040C8010E940223892B11F41A82C6C065E2DA
S11320507DE0C8010E940223892B19F481E08A8360
S1132060BCC06FE17DE0C8010E940223892B11F4FA
S113207082E0F5CF6AE17DE0C8010E940223892B4A
S113208011F483E0ECCF66E17DE0C8010E940223F5
S1132090892B11F4DA82A1C060E17DE0C8010E94BD
S11320A00223892B11F42A8298C069E07DE0C801DB
S11320B00E940223892B11F43A828FC06FEF7CE0D7
S11320C0C8010E940223892B11F48A8286C069EF19
S11320D07CE0C8010E940223892B11F49A827DC0FE
S11320E061EF7CE0C8010E940223892B11F4AA82CB
S11320F074C068EE7CE0C8010E940223892B11F4AD
S11321008BE0ADCF63EE7CE0C8010E940223892BF3
S113211019F49DE09A8361C06EED7CE0C8010E94D1
S11321200223892B21F48EE09ACF823011F0EA82C7
S113213054C069ED7CE0C8010E940223892B11F48C
S11321408FE08DCF63ED7CE0C8010E940223892BD0
S113215071F780E184CF8981823078F4813049F04D
S1132160BE016D5F7F4FC80128DE882331F0EA820B
S113217004C08A818E30D9F7F3CF8981823069F522
S11321808A818F30C9F46CEC7CE0C8010E94022380
S1132190892B29F41B821C821D821E821EC065ECC1
S11321A07CE0C8010E940223892B09F0C0CF4B8236
S11321B05C826D827E8211C0803179F462EC7CE0B5
S11321C0C8010E940223892B91F36EEB7CE0C801C5
S11321D00E940223892BF1F2AACFF3940B2D1C2D1C
S11321E0DFCE8A818830A9F589818130D9F40E94B3
S11321F0E521882309F448C00E94EC21182F092FF7
S11322000AD99F938F9385E096E09F938F930F93C2
S11322101F930E941A230F900F900F900F900F900E
S11322200F9032C0833011F05CDE2EC00E94E52195
S1132230882351F10E94EC2129EB35E03F932F9341
S11322409F938F930E941A230F900F900F900F90DB
S11322501BC0893098F18C3009F05AC289818330CF
S113226009F00FC20E94E521882371F00E94EC213D
S113227022E039E03F932F939F938F930E941A2378
S11322800F900F900F900F904EDD27960FB6F89495
S1132290DEBF0FBECDBFDF91CF911F910F91FF9095
S11322A0EF90DF90CF90BF90AF909F908F907F90F2
S11322B06F905F904F903F902F900895833009F076
S11322C044C0898181110AC0809105032B813C811E
S11322D04D815E8163E017D717DED6CF8130F1F4EC
S11322E00E94E521882381F20E94EC21182F092FF6
S11322F08091050363E05ED79F938F937F936F93E1
S113230088E197E09F938F930F931F930E941A2362
S11323100FB6F894DEBF0FBECDBFB6CF833009F041
S113232083CF0E94E521882309F4AECF0E94EC21DB
S113233028ED36E03F932F939F938F930E941A23A7
S11323400F900F900F900F909FCF843008F0D3C060
S11323509981813009F044C091110AC0809105032C
S11323602B813C814D815E8162E0CDD6CDDD8CCF69
S11323709130F9F40E94E521882309F485CF0E9465
S1132380EC21182F092F8091050362E013D79F9346
S11323908F937F936F9382E491E09F938F930F9336
S11323A01F930E940B230FB6F894DEBF0FBECDBF60
S11323B06BCF933009F038CF0E94E521882309F4CC
S11323C063CF0E94EC212AE637E03F932F939F933B
S11323D08F930E941A230F900F900F900F9054CF59
S11323E0823008F044C091110AC0809105032B810A
S11323F03C814D815E8160E086D686DD45CF91309B
S1132400F9F40E94E521882309F43ECF0E94EC21CF
S1132410182F092F8091050360E0CCD69F938F93EA
S11324207F936F9389EE97E09F938F930F931F93FE
S11324300E941A230FB6F894DEBF0FBECDBF24CF7F
S1132440933009F0F1CE0E94E521882309F41CCFD2
S11324500E94EC212AEA37E03F932F939F938F93B6
S11324600E941A230F900F900F900F900DCF91118F
S11324700AC0809105032B813C814D815E8161E01E
S113248042D642DD01CF9130F9F40E94E521882340
S113249009F4FACE0E94EC21182F092F809105032C
S11324A061E088D69F938F937F936F9382E697E042
S11324B09F938F930F931F930E941A230FB6F89440
S11324C0DEBF0FBECDBFE0CE933009F0ADCE0E948B
S11324D0E521882309F4D8CE0E94EC2120E237E0DC
S11324E03F932F939F938F930E941A230F900F90E3
S11324F00F900F90C9CE853009F045C089818111B4
S11325000FC08B819C81AD81BE8188309105A1056E
S1132510B10510F0D3DCB8CE80930503F5DCB4CE5E
S11325208130D1F40E94E521882309F4ADCE0E94C4
S1132530EC21209105031F922F932EE836E03F9360
S11325402F939F938F930E941A230F900F900F90B5
S11325500F900F900F9098CE833009F065CE0E94B3
S1132560E521882309F490CE0E94EC2120E536E091
S11325703F932F939F938F930E941A230F900F9052
S11325800F900F9081CE853008F03EC08981811173
S113259007C08B8125D8882309F4BCCFB5DC74CE61
S11325A08130D9F40E94E521882309F46DCE0E947C
S11325B0EC21182F092F49D81F928F9380ED96E0B4
S11325C09F938F930F931F930E941A230F900F9042
S11325D00F900F900F900F9057CE833009F024CEB8
S11325E00E94E521882309F44FCE0E94EC2126E9BC
S11325F036E03F932F939F938F930E941A230F905B
S11326000F900F900F9040CE863011F46ADC3CCED0
S1132610873009F039CE89818130E1F40E94E521C7
S1132620882309F431CE0E94EC21182F092FC7D733
S11326309F938F937F936F9388E496E09F938F93F8
S11326400F931F930E941A230FB6F894DEBF0FBE98
S1132650CDBF1ACE833009F0E7CD0E94E52188234F
S113266009F412CE0E94EC212DE036E03F932F9323
S11326709F938F930E941A230F900F900F900F90A7
S113268003CE843009F0D0CD80910001882349F134
S11326900E94E521882309F4F7CD0E94EC212091C2
S11326A00001509100014091000130E021503109B6
S11326B03F932F931F925F931F924F9324E838E028
S11326C03F932F939F938F930E941A23809100012D
S11326D08150809300010FB6F894DEBF0FBECDBFCA
S11326E0D3CD0E94E521882309F4CECD0E94EC21AC
S11326F021EF37E03F932F939F938F930E941A23E8
S113270083E6809300010F900F900F900F90BCCD43
S11327108D3008F0BBC099818A30E1F59130E1F445
S11327200E94E521882309F4AFCD0E94EC21182FE3
S1132730092F0E94960B1F928F938BE491E09F9335
S11327408F930F931F930E940B230F900F900F9062
S11327500F900F900F9098CD911105C08B810E941E
S11327608D0BD2DB91CD933009F05ECD0E94E52133
S1132770882309F489CD0E94EC2128E335E03F93B6
S11327802F939F938F930E941A230F900F900F9073
S11327900F907ACD8B30E0F59130E1F40E94E52181
S11327A0882309F471CD0E94EC21182F092F0E946F
S11327B08A0B1F928F938BE491E09F938F930F93D7
S11327C01F930E940B230F900F900F900F900F9068
S11327D00F905ACD911105C08B810E94780B94DB28
S11327E053CD933009F020CD0E94E521882309F4CC
S11327F04BCD0E94EC212BE735E03F932F939F9321
S11328008F930E941A230F900F900F900F903CCD3E
S1132810913009F039CD0E94E5218823B9F00E9456
S1132820EC21182F092F0E94DA0A9F938F938BE4CF
S113283091E09F938F930F931F930E940B230F900C
S11328400F900F900F900F900F901ECD89818111E2
S113285006C08B819C810E94DF0A56DB15CD833034
S113286009F0E2CC0E94E521882309F40DCD0E94F1
S1132870EC212EE035E03F932F939F938F930E949A
S11328801A230F900F900F900F90FECC8E3009F00A
S1132890DDC08981813009F0ACC08B819C81AD8120
S11328A0BE8183309105A105B10509F445C060F0EE
S11328B084309105A105B10509F455C00597A1051A
S11328C0B10509F469C081C00E94E521882309F497
S11328D0DBCC6B817C818D819E810E94AB07182F9C
S11328E00E94EC215E814D813C812B81113091F459
S11328F05F934F933F932F932FE631E03F932F93B2
S11329009F938F930E940B230FB6F894DEBF0FBEE4
S1132910CDBFBACC5F934F933F932F9324E831E01C
S11329203F932F939F938F930E940B230FB6F8949A
S1132930DEBF0FBECDBFA8CC0E94E521882309F4D9
S1132940A3CC0E940A08182F0E94EC21BC0111306C
S113295029F488E991E00E94322396CC8FEA91E031
S11329600E94322391CC0E94E521882309F48CCC67
S113297080E090E00E94BF07182F0E94EC21BC0168
S1132980113029F485EC91E00E9432237DCC8CED4A
S113299091E00E94322378CC0E94E521882309F437
S11329A073CC81E090E00E94BF07182F0E94EC21B5
S11329B0BC01113029F483EF91E00E94322364CCEE
S11329C08AE092E00E9432235FCC0E94E5218823B2
S11329D009F45ACC0E94EC2125ED33E03F932F9368
S11329E09F938F930E941A230F900F900F900F9034
S11329F04BCC811114C00E94E521882309F444CCF6
S1132A000E94EC2122ED32E03F932F939F938F930A
S1132A100E941A230F900F900F900F9035CC8330A3
S1132A2009F078CD0E94E521882309F42DCC0E9479
S1132A30EC212EE131E03F932F939F938F930E94DB
S1132A401A230F900F900F900F901ECC8E3008F029
S1132A5049C089818130D9F40E94E521882309F491
S1132A6013CC0E94EC212091040321701F922F9318
S1132A702BE431E03F932F939F938F930E940B237A
S1132A800F900F900F900F900F900F90FDCB81112E
S1132A9012C08B819C81AD81BE81892B8A2B8B2BAB
S1132AA021F080910403816003C0809104038E7F30
S1132AB08093040373CD833009F0B6CB0E94E521E3
S1132AC0882309F4E1CB0E94EC2120ED34E03F930C
S1132AD02F939F938F930E941A230F900F900F9020
S1132AE00F90D2CB8F3009F05FC08981823009F01A
S1132AF04BC08B819C81AD81BE810097A105B1053E
S1132B0029F00197A105B10501F1BECB81E00E9436
S1132B10510B882369F00E94E521882309F4B4CB82
S1132B200E94EC21BC0182E292E00E943223ACCBF1
S1132B300E94E521882309F4A7CB0E94EC21BC0163
S1132B408FE292E00E9432239FCB81E00E94510BDE
S1132B50882369F00E94E521882309F495CB0E941B
S1132B60EC21BC018DE392E00E9432238DCB0E94C4
S1132B70E521882309F488CB0E94EC21BC018FE273
S1132B8092E00E94322380CB833009F07DCB0E94F7
S1132B90E521882309F478CB0E94EC21BC0189E467
S1132BA092E00E94322370CB803109F06DCB898191
S1132BB0823079F58B819C81AD81BE810097A1051E
S1132BC0B10529F00197A105B10589F020C00E9443
S1132BD0E521882309F458CB0E94EC21BC0183E54C
S1132BE091E00E94322380E00E946B0B4DCB0E9447
S1132BF0E521882309F448CB0E94EC21BC0182E63C
S1132C0091E00E94322381E00E946B0B3DCB56D9A8
S1132C103BCB833009F038CB7DCC109246038091B6
S1132C204703882379F0E0914703F0E0EB5FFC4F22
S1132C3080818D3039F4E0914703F0E0EB5FFC4F85
S1132C40108275C90895EF92FF920F931F93CF934B
S1132C50DF9386EEE82E82E0F82E0DED12E0C0E060
S1132C60D4E0F701D1937F01F801D1938F0161E0A2
S1132C708C2F0E940E08CF5FC93099F7DF91CF9156
S1132C801F910F91FF90EF900C94C408AF92BF92E4
S1132C90CF92DF92EF92FF920F931F93CF933091D5
S1132CA0D3023F5F3093D3022091D2022F5F20934F
S1132CB0D2029091D1029F5F9093D1028091D00271
S1132CC08F5F8093D00231111092D302223010F022
S1132CD01092D202953010F01092D1028A3010F086
S1132CE01092D0020DED12E086EEC82E82E0D82EAE
S1132CF094EDE92E92E0F92EC0E0F801908156019E
S1132D00F6018081981799F0943041F4F80180839A
S1132D108C2F0E94E508F701808309C0843039F4C0
S1132D20F8018083F70160818C2F0E940E08FFEF69
S1132D30CF1ADF0AF5018081813059F038F08230F2
S1132D4059F0833089F48091D00208C08091D30275
S1132D5005C08091D20202C08091D102811104C0C9
S1132D6062E08C2F0E940E08CF5F0F5F1F4FFFEFB2
S1132D70EF1AFF0AC93009F6CF911F910F91FF9006
S1132D80EF90DF90CF90BF90AF900C94C40869305F
S1132D9038F4E62FF0E0EA51FD4F908198138083D8
S1132DA00895982F862F692F0C940E088627082ED5
S1132DB08295807F8025092E982F82958F70082612
S1132DC0869598278927880F880F880F802508956E
S1132DD0FC01838180788C608F77838382E3818395
S1132DE086EE82838CE49DE19683858382E08483EE
S1132DF017820895FC0188EE93E0958384838CEA1E
S1132E009DE0978386838CE49DE19383828388E2AB
S1132E1093E2918380838AEA9AEA9187808725E501
S1132E2035E5338722879587848717861686089524
S1132E30EF92FF920F931F93CF93DF93CDB7DEB73B
S1132E402A970FB6F894DEBF0FBECDBF85E68983FF
S1132E5088E48A8381E68B838AE48C838FE68D837E
S1132E608AE98E8387EB8F838EE9888785EB898750
S1132E7080E98A87CE0101967C0106EF13E0F70111
S1132E8061917F01C8010E94E8250F5F1F4F011562
S1132E90F4E01F07A1F72A960FB6F894DEBF0FBE21
S1132EA0CDBFDF91CF911F910F91FF90EF900895C7
S1132EB0EF92FF920F931F93CF93DF93EC017C016A
S1132EC088E0E80EF11C8E018FEF9FEFF80161910D
S1132ED08F016CDF0E151F05C9F79987888702E8F3
S1132EE013E06991C8010E94E8250F5F1F4F0C3859
S1132EF0F3E01F07B1F7DF91CF911F910F91FF907E
S1132F00EF900895CF92DF92EF92FF920F931F9369
S1132F10CF93DF93EC016C0102E813E0EE24EA9412
S1132F20FE2CC8010E94E025F60181936F01682FF1
S1132F30C7013CDF7C010F5F1F4F0A38F3E01F0716
S1132F4081F78AE893E00E94E02588878BE893E084
S1132F500E94E025898781E0288539852E153F0563
S1132F6009F080E0DF91CF911F910F91FF90EF90D6
S1132F70DF90CF900895CF92DF92EF92FF920F935C
S1132F801F93CF93DF93883038F5EB01082F6B0143
S1132F908EE0C80ED11C7B018FEF9FEFF70161918A
S1132FA07F0104DFEC14FD04C9F79F878E8710E0CE
S1132FB084E0000F111F8A95E1F7E12CF12C69914F
S1132FC0C8018E0D9F1D0E94E825FFEFEF1AFF0A2E
S1132FD080E1E816F10499F7DF91CF911F910F91E9
S1132FE0FF90EF90DF90CF900895CF92DF92EF9211
S1132FF0FF920F931F93CF93DF93CDB7DEB728973C
S11330000FB6F894DEBF0FBECDBF282F30E094E09A
S1133010220F331F9A95E1F738872F832FEF3FEF65
S11330203E832D831C821B8220E130E03A83298376
S1133030883008F058C089819A81039728F08981E3
S11330409A8102979A8389838B01E12CF12C680180
S1133050CE0CDF1C89819A81E816F90680F48F81F1
S113306098858E0D9F1D9C838B838B819C810E94F0
S1133070E025F6018083FFEFEF1AFF0AE8CFE12C89
S1133080F12C6801CE0CDF1C89819A81E816F906BF
S113309058F4F60160818D819E8188DE9E838D8344
S11330A0FFEFEF1AFF0AEDCF8F8198850E969C8370
S11330B08B838B819C810E94E025F60180838F8124
S11330C098850F969C838B838B819C810E94E0253D
S11330D0F60181832D813E8181E0F8014685578583
S11330E04217530709F080E028960FB6F894DEBF24
S11330F00FBECDBFDF91CF911F910F91FF90EF9045
S1133100DF90CF900895CF92DF92EF92FF920F93CA
S11331101F93CF93DF93CDB7DEB760970FB6F894C4
S1133120DEBF0FBECDBF182F062F69017A01BE0185
S11331306F5F7F4F5ADF013009F128F0023061F0F0
S1133140033099F028C08FEFC816D806E104F104C3
S113315010F5DA82C9821AC08FEFC816D806E104C6
S1133160F104C8F4DE82CD8211C08FEFC816D806F0
S1133170E104F10480F4D886CF8208C08FEFC8162A
S1133180D806E104F10438F4DC82CB82BE016F5F1F
S11331907F4F812FF0DE60960FB6F894DEBF0FBE2E
S11331A0CDBFDF91CF911F910F91FF90EF90DF90F2
S11331B0CF9008951F93CF93DF93CDB7DEB7609779
S11331C00FB6F894DEBF0FBECDBF162FBE016F5FE2
S11331D07F4F0BDF113071F038F0123041F01330B3
S11331E071F46F81788508C069817A8105C06D8129
S11331F07E8102C06B817C8180E090E003C060E04E
S113320070E0CB0160960FB6F894DEBF0FBECDBF61
S1133210DF91CF911F91089560E070E080E092E02B
S11332200C94FA25CF92DF92EF92FF920F931F93A3
S1133230CF93DF93CDB7DEB7A7970FB6F894DEBF71
S11332400FBECDBF06EF13E07E018BE1E80EF11C4B
S11332506701C8010E94E025F70181937F010F5F98
S11332601F4F0115F4E01F07A1F7D601E8E4FDE0C4
S11332709E01205E3F4F80E09D919FA314969C91F8
S1133280149790959EA394919DA34FA19EA1491339
S113329003C04DA19FA149138F5F31962A173B07A5
S11332A059F78823A1F0CE01419692DDCE014196D3
S11332B0FFDDCE0101969EDD10E0BE016F5F7F4F02
S11332C0812F59DE1F5F1830C1F7A6DFB1DDA79645
S11332D00FB6F894DEBF0FBECDBFDF91CF911F9123
S11332E00F91FF90EF90DF90CF900895E8E4F3E022
S11332F013821282148210821182089510924B0359
S113330010924A0310924C031092480310924903FE
S113331054D2813059F028F0823069F0833059F06A
S11333200FC010924803109249030AC080934903C6
S11333301092480305C081E08093480380934903B9
S11333400E94310A8131974224F081E080934A033C
S113335002C010924A0310924B030895CF93DF9357
S113336000D000D01F92CDB7DEB785E0E8E4F3E0EB
S1133370DE01119601900D928A95E1F729813A8137
S11333804B815C816D8170E080E090E00F900F9044
S11333900F900F900F90DF91CF9108951092F1024A
S11333A01092F0021092EF0281E00C94CF07853660
S11333B008F084E68093F0020895E0E5F3E087E006
S11333C08083818391E0928383838483958386833E
S11333D08783908710924E0310924D0310925903E5
S11333E010924F0308950F931F93CF9380914E0330
S11333F08F5F80934E0380914F038F5F80934F03C1
S1133400809159038F5F8093590380914D038F5F9F
S113341080934D0380914E03811110924E0380914D
S11334204F03823010F010924F038091590385307E
S113343010F01092590380914D038A3010F01092CD
S11334404D0300E513E0C0E0F80180819181891704
S113345071F08183873031F08C2F0E949607F80138
S1133460828305C0F80162818C2F0E946C07F801E9
S113347080818230D1F028F4882361F0813091F08A
S113348020C08830C1F08930C1F08330D1F48091FC
S11334904D030DC080914E03811104C062E08C2F56
S11334A00E946C0780914F0302C0809159038111DF
S11334B008C062E003C061E001C060E08C2F0E949C
S11334C06C07CF5F0D5F1F4FC33009F0BDCFCF91A5
S11334D01F910F910895813059F018F0823079F0DE
S11334E0089580915003861779F0609350030895EE
S11334F080915303681741F06093530308958091BA
S1133500560368136093560308951092F9021092BB
S1133510F80208950F931F932091F2023091F30261
S11335202F5F3F4F3093F3022093F2022091F20277
S11335303091F30221153041F8F04091F40250919A
S1133540F5026091F6027091F7022CE0769567958A
S1133550579547952A95D1F75093F9024093F8026D
S11335601092F3021092F2021092F4021092F502F9
S11335701092F6021092F7024091F4025091F50273
S11335806091F6027091F70297FF02C09F7706C020
S113359020E030E8F901E81BF90BCF018A019B0117
S11335A0080F191F211D311D0093F4021093F50219
S11335B02093F6023093F7021F910F9108958091A2
S11335C0F8029091F90262E672E0A0D768EE73E027
S11335D0C7D780E090E008951092FC021092FB029D
S11335E083E08093FA0208950E94E407813039F45D
S11335F01092FC021092FB028093FA0208958091CB
S1133600FB029091FC028F3F2FEF920729F0019665
S11336109093FC028093FB020895882331F081305B
S113362031F41092FC021092FB020C94DE07089510
S11336308091FB029091FC0264E670E067D7BC01C4
S113364080E090E00895EAE5F3E0108211821282AE
S113365013821482158216821782108611861286AE
S11336601386089580E090E0FC01EE0FFF1FEE0F3B
S1133670FF1FE65AFC4F40815181628173814536B8
S113368051056105710568F0408151816281738142
S113369044565109610971094083518362837383DC
S11336A004C0108211821282138201968330910524
S11336B0D9F60895833060F4E82FF0E0EE0FFF1F91
S11336C0EE0FFF1FE65AFC4F4083518362837383DE
S11336D00895833098F4E82FF0E0EE0FFF1FEE0F0B
S11336E0FF1FE65AFC4F408151816281738181E062
S11336F0452B462B472B19F080E0089581E008956F
S1133700CF9380E00E94BF07C82F81E00E94BF07CB
S113371090910201C91791F09091FD02C11103C06B
S11337209A3048F402C0933030F49091FD029F5FC8
S11337309093FD0205C09091020102C01092FD0217
S113374090910101891789F0811105C08091FE02D1
S11337508A3068F404C08091FD02833040F4809183
S1133760FE028F5F8093FE0202C01092FE028091DF
S113377002018093010180910101811107C08091B0
S11337800201811103C01092030115C0809101014F
S1133790813021F490910201992359F08091010123
S11337A0813031F480910201813011F482E001C052
S11337B083E080930301CF910895809103010895DC
S11337C0CF93DF93EC01FC0170968BE0DF011D9237
S11337D08A95E9F782E08C83898783E08E8761E0AC
S11337E0CE01019675D2882361F061E0CE01069680
S11337F06FD2882331F061E0CE010B96DF91CF9137
S113380067C280E0DF91CF9108950F931F93CF9308
S113381020916A032430F9F4FC010489158926896E
S11338203789012B022B032BB1F0C62F81818F70B6
S11338308093E9008091E80085FF04C0C093F10003
S113384080E00AC08091E8008E778093E8009CD2E3
S11338508823A1F301C082E0CF911F910F910895B5
S1133860FB01682F84859585D0DF21E030E081114C
S113387002C020E030E088279927821B930B08952B
S113388020916A03243021F5FC0144895589668915
S11338907789452B462B472BD9F081818F708093F4
S11338A0E9008091F200882389F09091E8008091EA
S11338B0E8008E778093E80095FD08C065D28111F9
S11338C008C08091E8008E778093E80080E0089536
S11338D082E0089520916A03243089F4FC0144892C
S11338E0558966897789452B462B472B41F02181E1
S11338F02F702093E9002091E80020FDC1CF0895A6
S113390020916A03243019F08FEF9FEF0895FC0192
S11339104489558966897789452B462B472BA1F322
S113392086818F708093E9008091E80082FFECCF5C
S11339308091F200882321F02091F10030E002C050
S11339402FEF3FEF8091F200811105C08091E800D4
S11339508B778093E800C9010895FC0184859585DF
S1133960CFDF97FF02C08EEF9FEF0895FB012EE09B
S1133970DB011D922A95E9F723E0238320E33CE150
S1133980318720872DEA3CE1338722879587848716
S113399008950895CF93DF93EC018091E80083FFAD
S11339A0A6C0888190E020916F033091700328179E
S11339B0390709F09CC080916C03813261F020F4D6
S11339C0803209F43EC093C0823209F46CC0833261
S11339D009F47DC08CC080916B03813A09F087C0E3
S11339E08091E800877F8093E8008091E80080FF61
S11339F0FCCF8C899D89AE89BF898093F100492FC2
S1133A005A2F6B2F77274093F100AD016627772754
S1133A104093F1008B2F9927AA27BB278093F100AD
S1133A20888D8093F100898D8093F1008A8D809335
S1133A30F1008091E8008E778093E800DF91CF91C8
S1133A4084C180916B03813209F051C08091E800F8
S1133A50877F8093E8008091E80082FD05C0809113
S1133A606A038111F8CF43C03091F1002091F10035
S1133A709091F1008091F1003C8B2D8B9E8B8F8B6C
S1133A808091F100888F8091F100898F8091F100FD
S1133A908A8F8091E8008B778093E80056D1CE011D
S1133AA0DF91CF9176CF80916B03813201F58091C4
S1133AB0E800877F8093E80048D180916D0390915E
S1133AC06E03998B888BCE01DF91CF911EC58091B7
S1133AD06B03813261F48091E800877F8093E80072
S1133AE034D160916D03CE01DF91CF9152CFDF913C
S1133AF0CF910895209171033091720326173707EF
S1133B0048F06115710539F42091E8002E7720936F
S1133B10E80001C0B901FC0120E06115710561F103
S1133B2080916A038823D9F18530D9F18091E80026
S1133B3083FD39C08091E80082FD2BC08091E800AC
S1133B4080FFEBCF8091F20090E06115710551F098
S1133B508830910538F421912093F1006150710966
S1133B600196F3CF21E0089709F020E08091E80066
S1133B708E778093E800D1CF2111D2CF0AC08091F3
S1133B806A03882361F0853061F08091E80083FD49
S1133B900AC08091E80082FFF2CF80E0089582E0BD
S1133BA0089583E0089581E0089520917103309190
S1133BB072032617370748F06115710539F420910F
S1133BC0E8002E772093E80001C0B901FC0120E051
S1133BD06115710579F180916A03882309F43DC068
S1133BE0853009F43CC08091E80083FD3AC080919F
S1133BF0E80082FD2CC08091E80080FFE9CF80912D
S1133C00F20090E06115710559F08830910540F497
S1133C1024912093F1003196615071090196F2CFFD
S1133C2021E0089709F020E08091E8008E778093E6
S1133C30E800CECF2111CFCF0AC080916A03882338
S1133C4061F0853061F08091E80083FD0AC08091C5
S1133C50E80082FFF2CF80E0089582E0089583E0D7
S1133C60089581E00895982F953068F59093E900C0
S1133C70981739F07091EC002091ED005091F0000C
S1133C8003C0242F762F50E021FD02C09F5FECCFAC
S1133C903091EB003E7F3093EB003091ED003D7F9F
S1133CA03093ED003091EB0031603093EB00709372
S1133CB0EC002093ED005093F0002091EE0027FDDE
S1133CC0E5CF80E008958F708093E90081E0089546
S1133CD00F931F93CF93DF93062FEC0110E010177F
S1133CE071F19881911103C01F5F2596F8CF2C8143
S1133CF0A981BA816B81892F8F70853010F080E0A3
S1133D001FC0223010F442E001C046E0E8E0F0E0D9
S1133D1020E0EA17FB0720F42F5FEE0FFF1FF9CF17
S1133D202295207F422B6295660F660F607C991F57
S1133D309927991F692B97DF8111D6CFE0CF81E0B6
S1133D40DF91CF911F910F91089580916B0387FFAD
S1133D5011C08091E80082FD05C080916A03811141
S1133D60F8CF11C08091E8008B770BC080916A0373
S1133D70882349F08091E80080FFF8CF8091E80023
S1133D808E778093E80008952091E4003091E50057
S1133D9095E64091EC00842F817040FF23C0809110
S1133DA0E80080FD1DC080916A03882399F0853066
S1133DB099F08091EB0085FD11C04091E400509191
S1133DC0E5002417350729F3915011F09A01E1CF4A
S1133DD084E0089582E0089583E0089581E00895E1
S1133DE080E008954091E80042FFDDCF089541D07E
S1133DF043D08091D8008F778093D8008091D800E9
S1133E0080688093D8008091D8008F7D8093D800FB
S1133E1084E089BD86E089BD09B400FEFDCF10921F
S1133E206A0310926603109268031092670342E0DB
S1133E3060E080E018DF8091E1008E7F8093E100F4
S1133E408091E20081608093E2008091E2008860CA
S1133E508093E2008091E0008E7F8093E0000895DB
S1133E60E3E6F0E080818E7F808381E080936903C4
S1133E70BECF1092E20008951092E10008951F92BF
S1133E800F920FB60F9211242F933F934F935F938A
S1133E906F937F938F939F93AF93BF93EF93FF930E
S1133EA08091E10082FF0AC08091E20082FF06C097
S1133EB08091E1008B7F8093E10025D28091E10025
S1133EC080FF17C08091E20080FF13C08091E20060
S1133ED08E7F8093E2008091E20080618093E20013
S1133EE08091D80080628093D80019BC10926A0334
S1133EF003D38091E10084FF2FC08091E20084FF0E
S1133F002BC084E089BD86E089BD09B400FEFDCFE5
S1133F108091D8008F7D8093D8008091E1008F7EBE
S1133F208093E1008091E2008F7E8093E200809193
S1133F30E20081608093E20080916603882311F09F
S1133F4084E007C08091E30087FD02C081E001C0E6
S1133F5083E080936A03CCD28091E10083FF27C081
S1133F608091E20083FF23C08091E100877F8093EA
S1133F70E10082E080936A03109266038091E1007D
S1133F808E7F8093E1008091E2008E7F8093E20037
S1133F908091E20080618093E20042E060E080E092
S1133FA062DE8091F00088608093F000ACD1FF91D4
S1133FB0EF91BF91AF919F918F917F916F915F919D
S1133FC04F913F912F910F900FBE0F901F90189516
S1133FD01F920F920FB60F9211242F933F934F937A
S1133FE05F936F937F938F939F93AF93BF93CF937D
S1133FF0DF93EF93FF93C091E900CF708091EC00C1
S1134000D82FD17080FDD0E81092E9008091F000A3
S1134010877F8093F00078941ED01092E9008091FD
S1134020F00088608093F000CD2BCF70C093E9003E
S1134030FF91EF91DF91CF91BF91AF919F918F91BC
S11340407F916F915F914F913F912F910F900FBE90
S11340500F901F9018951F93CF93DF93CDB7DEB7C2
S1134060AA970FB6F894DEBF0FBECDBFEBE6F3E020
S11340708091F100819323E0E337F207C9F742D23C
S11340808091E80083FF27C180916B0390916C03BA
S1134090953009F478C030F4913081F168F09330B0
S11340A069F119C1983009F4E3C0993009F4F2C0F8
S11340B0963009F010C189C0803881F0823809F047
S11340C00AC180916F038F708093E9008091EB00A7
S11340D085FB882780F91092E90006C08091670368
S11340E090916803911182609091E800977F90937A
S11340F0E8008093F1001092F100C5C0282F2D7FB5
S113410009F0E9C0882319F0823061F0E4C080919D
S11341106D03813009F0DFC0933009F080E08093B3
S113412068032BC080916D03811127C080916F03B8
S11341308F7009F4D0C08093E9002091EB0020FF38
S11341401CC0933021F48091EB00806214C09091E4
S1134150EB0090619093EB0021E030E0A90102C0F4
S1134160440F551F8A95E2F74093EA001092EA0043
S11341708091EB0088608093EB001092E9008091BD
S1134180E800877F83C08111A6C010916D031F775B
S11341908091E3008078812B8093E3008091E80094
S11341A0877F8093E800D1DD8091E80080FFFCCF19
S11341B08091E30080688093E300111102C082E0E3
S11341C001C083E080936A0386C08058823008F07F
S11341D082C080916D0390916E038C3D53E09507EE
S11341E071F583E08A838AE289834FB7F894DE010C
S11341F0139620E03EE051E2E32FF0E050935700A5
S1134200E49120FF03C0E295EF703F5FEF708E2FC3
S113421090E0EA3010F0C79601C0C0968D939D934C
S11342202F5F243149F74FBF8091E800877F809347
S1134230E8006AE270E0CE0101965CDC13C0AE01D6
S11342404F5F5F4F60916F030E942707BC01892B6A
S113425009F441C09091E800977F9093E800898128
S11342609A81A3DC8091E8008B778093E80033C0C7
S1134270803889F58091E800877F8093E8008091F9
S113428066038093F1008091E8008E778093E800C4
S11342905CDD21C081111FC080916D0390916E037C
S11342A099270297C4F48091E800877F8093E800FF
S11342B080916D038093660348DD809166038111CC
S11342C006C08091E30087FD02C081E001C084E064
S11342D080936A0314D18091E80083FF0AC080911F
S11342E0E800877F8093E8008091EB0080628093F0
S11342F0EB00AA960FB6F894DEBF0FBECDBFDF91D8
S1134300CF911F9108950895CF9380916A038823D4
S113431099F0C091E900CF709091EC00892F8170E1
S113432090FD80E8C82B1092E9008091E80083FD9D
S113433092DECF70C093E900CF91089508950C9454
S1134340530ADED98FD950D90E94FA090E947E19E6
S11343500E940A0C8091FF0208950E94461643C8E9
S1134360089587E291E0CCDA97FF0E94A80E87E2D5
S113437091E0B0DAC9CFCF93DF93EC010E946309D7
S11343802A813B814A815B81452BE1F04881598137
S11343908417950730F448815981841B950B019744
S11343A004C048815981841B950B2817390750F4A0
S11343B081E08C83288139818A819B81820F931FBC
S11343C099838883DF91CF9108959091FF0281E0D2
S11343D0911101C080E0089583E793E008950F935D
S11343E01F93CF93DF9304E011E0C0E0D0E0C80155
S11343F0C2DFCE0167E070E089D0FC01EC5FFE4FC4
S11344008481882381F085819681892B21F0058020
S1134410F681E02D0995CE0167E070E077D08C5FDE
S11344209E4FFC0114822196095F1F4FC530D105B0
S1134430F1F6DF91CF911F910F9193CF84B7877FCE
S113444084BF0FB6F894A89580916000886180932A
S11344506000109260000FBE90E080E80FB6F89400
S113446080936100909361000FBEFADC0E945707AD
S113447081E00E94DE0781E00E94CF0761E080E0D6
S11344800E946C0761E081E00E946C0761E082E0B9
S11344900E946C070C94E807D1DF0E94121963E7AD
S11344A073E087E291E062DA78940E9462090E94E4
S11344B0130A2BD80E94CE190E9476190E94360A3C
S11344C08BD80E94ED0A0E94F209BDD80E94DD1922
S11344D00E9423160E94CC060E94A00E80E00E9437
S11344E0F00A0E94280B7BDF3CDF0E940D16FBCFF5
S11344F081E08093FF0208951092FF02089587E2FD
S113450091E05EC987E291E045CA089500245527E9
S113451004C0080E591F880F991F009729F076953B
S11345206795B8F37105B9F7802D952F0895EE2797
S1134530FF27AA27BB2708C0A20FB31FE41FF51F3C
S1134540220F331F441F551F9695879577956795BE
S113455098F37040A9F7009799F7BD01CF0108952A
S1134560AA1BBB1B51E107C0AA1FBB1FA617B70795
S113457010F0A61BB70B881F991F5A95A9F78095B1
S11345809095BC01CD010895A1E21A2EAA1BBB1B74
S1134590FD010DC0AA1FBB1FEE1FFF1FA217B3070B
S11345A0E407F50720F0A21BB30BE40BF50B661F21
S11345B0771F881F991F1A9469F7609570958095E5
S11345C090959B01AC01BD01CF010895052E97FB89
S11345D016F400940FD057FD05D0D6DF07FC02D0A7
S11345E046F408C050954095309521953F4F4F4F64
S11345F05F4F089590958095709561957F4F8F4F8B
S11346009F4F0895FB01DC018D91059080190110E5
S1134610D9F3990B0895A0E0B0E0E0E1F3E207C319
S1134620AE01475F5F4F6F8178858D819E8143D056
S1134630E2E019C3A0E0B0E0EFE1F3E2F6C20F81DB
S11346401885F801838188608383AE01455F5F4FDD
S113465069857A85C8012FD0F8012381277F2383B8
S1134660E4E0FFC2EF92FF920F931F93CF93DF9387
S1134670DB0113962C9121FF18C08B017C01D0E043
S1134680C0E0F70181917F01882361F0D801189679
S1134690ED91FC911997B8010995892B91F3DFEFFE
S11346A0CFEFEFCF8D2F9C2F02C08FEF9FEFCDB7B1
S11346B0DEB7E6E0D4C2ABE0B0E0E0E6F3E2A7C2E6
S11346C06C017B018A01FC0117821682838181FFC0
S11346D0C0C1CE0101963C01F6019381F70193FD1F
S11346E0859193FF81917F01882309F4AEC18532BE
S11346F039F493FD859193FF81917F01853221F4F3
S1134700B60190E0C1D1E8CF912C212C312CFFE1EE
S1134710F315E0F08B3279F038F4803279F083329B
S1134720A9F4232D206110C08D3259F0803371F427
S1134730232D216009C0832D8260382EE32DE4608F
S113474022C0F32DF86025C0322E27C037FC2DC0BF
S113475020ED280F2A3088F436FE06C0892D6AE041
S11347604DD2922E980E19C0822D6AE047D2222E85
S1134770280E832D8062382E10C08E3231F436FC20
S113478064C1E32DE0643E2E08C08C3621F4F32D81
S1134790F0683F2E02C0883641F4F70193FD8591FD
S11347A093FF81917F018111B2CF982F9F7D955402
S11347B0933028F40C5F1F4F2FE329830DC08336F9
S11347C031F0833771F0833509F055C020C0F8010A
S11347D0808189830E5F1F4F88248394912C530119
S11347E012C02801F2E04F0E511CF801A080B180E4
S11347F036FE03C0692D70E002C06FEF7FEFC50184
S113480038D14C018201F32DFF773F2E15C02801CA
S113481022E0420E511CF801A080B18036FE03C094
S1134820692D70E002C06FEF7FEFC50117D14C0115
S1134830F32DF0683F2E820133FC19C0822D90E0E5
S113484088169906A0F4B60180E290E01DD12A945E
S1134850F5CFF50137FC859137FE81915F01B601F3
S113486090E012D121102A9421E0821A9108811437
S1134870910479F7E1C0843611F0893639F5F801ED
S113488037FE07C060817181828193810C5F1F4F65
S113489008C060817181072E000C880B990B0E5F94
S11348A01F4FF32DFF763F2E97FF09C090958095FB
S11348B0709561957F4F8F4F9F4FF0683F2E2AE090
S11348C030E0A3011DD1882E861844C0853731F409
S11348D0232D2F7EB22E2AE030E025C0932D997F20
S11348E0B92E8F36C1F018F4883579F0AEC0803710
S11348F019F0883721F0A9C0E92FE061BE2EB4FE7B
S11349000DC0FB2DF460BF2E09C034FE0AC0292F50
S11349102660B22E06C028E030E005C020E130E079
S113492002C020E132E0F801B7FE07C06081718166
S1134930828193810C5F1F4F06C06081718180E08A
S113494090E00E5F1F4FA301DBD0882E8618FB2D4D
S1134950FF773F2E36FE0DC0232D2E7FA22E891405
S113496058F434FE0BC032FC09C0832D8E7EA82E71
S113497005C0B82CA32C03C0B82C01C0B92CA4FECC
S11349800FC0FE01E80DF11D8081803321F49A2DC2
S1134990997EA92E09C0A2FE06C0B394B39404C0A4
S11349A08A2D867809F0B394A3FC10C0A0FE06C03B
S11349B0B21480F4280C922C9B180DC0B21458F435
S11349C0B60180E290E060D0B394F8CFB21418F44A
S11349D02B1802C0982C212CA4FE0FC0B60180E332
S11349E090E052D0A2FE16C0A1FC03C088E790E07C
S11349F002C088E590E0B6010CC08A2D867851F09B
S1134A00A1FE02C08BE201C080E2A7FC8DE2B601E8
S1134A1090E03AD0891430F4B60180E390E034D0C9
S1134A209A94F8CF8A94F301E80DF11D8081B601C0
S1134A3090E02AD08110F6CF222009F44DCEB601A1
S1134A4080E290E021D02A94F7CFF6018681978105
S1134A5002C08FEF9FEF2B96E2E1F5C0FC010590B9
S1134A60615070400110D8F7809590958E0F9F1F6C
S1134A700895FC016150704001900110D8F78095B1
S1134A8090958E0F9F1F08950F931F93CF93DF93DD
S1134A90FB01238121FD03C08FEF9FEF2CC022FF78
S1134AA016C046815781248135814217530744F447
S1134AB0A081B1819D012F5F3F4F318320838C936F
S1134AC0268137812F5F3F4F3783268314C08B01A4
S1134AD0EC01FB010084F185E02D0995892BE1F6B9
S1134AE0D80116968D919C911797019617969C93D1
S1134AF08E931697CE01DF91CF911F910F91089558
S1134B00FA01AA27283061F1203191F1E8946F93DA
S1134B106E7F6E5F7F4F8F4F9F4FAF4FB1E040D09E
S1134B20B4E03ED0670F781F891F9A1FA11D680F3C
S1134B30791F8A1F911DA11D6A0F711D811D911D71
S1134B40A11D22D009F468943F91062E000C30195F
S1134B50000C000C3019305D3193CEF6CF0108956E
S1134B60462F4770405D4193B3E00FD0C9F7F6CFAD
S1134B70462F4F70405D4A3318F0495D31FD405275
S1134B80419302D0A9F7EACFB4E0A695979587950B
S1134B9077956795BA95C9F70097610571050895EA
S1134BA09B01AC010A2E0694579547953795279596
S1134BB0BA95C9F7620F731F841F951FA01D08952E
S1134BC0F999FECF92BD81BDF89A992780B50895D1
S1134BD0262FF999FECF92BD81BDF89A019700B4B2
S1134BE0021639F01FBA20BD0FB6F894FA9AF99A52
S1134BF00FBE08950196272FECDFEACF002480FD35
S1134C00060E660F11F08695D1F7802D08952F9228
S1134C103F924F925F926F927F928F929F92AF9248
S1134C20BF92CF92DF92EF92FF920F931F93CF9395
S1134C30DF93CDB7DEB7CA1BDB0B0FB6F894DEBF2C
S1134C400FBECDBF09942A88398848885F846E8452
S1134C507D848C849B84AA84B984C884DF80EE809C
S1134C60FD800C811B81AA81B981CE0FD11D0FB6A5
S1134C70F894DEBF0FBECDBFED010895F894FFCFC9
S1134C80630101030000010000B02100000A0000DC
S1134C909F210000640000A1210000320000AD212A
S1134CA00000E803009E21008310000001041000AE
S1134CB00001820800000100000000000000000064
S1134CC000004F4B3A256C640A0D004F4B3A25699E
S1134CD00A0D004F4B3A504F574552444F574E0A16
S1134CE00D004F4B3A504F5745524F4E0A0D00534B
S1134CF057495443482025692052454C4541534562
S1134D00440A0D0053574954434820256920505202
S1134D1045535345440A0D00444953504C415920CE
S1134D2042544E2052454C45415345440A0D0044DB
S1134D304953504C41592042544E205052455353EC
S1134D4045440A0D005741544552204C4F57204CBE
S1134D504556454C204C4F57200A0D0057415445A9
S1134D6052204C4F57204C4556454C204849474803
S1134D700A0D0057415445522048494748204C45A4
S1134D8056454C204C4F570A0D005741544552206C
S1134D9048494748204C4556454C20484947480A0D
S1134DA00D004F4B3A425245574F4E450A0D0045B0
S1134DB052523A425245574552520A0D004F4B3A0D
S1134DC042524554574F0A0D0055534147453A2026
S1134DD0274D414B45204F4E45435550272C202706
S1134DE04D414B452054574F4355502720666F7211
S1134DF0206F6E65206F722074776F2063757073F7
S1074E000A0D000093
S9030000FC
