:10000000A6C60000C1C60000BFC60000BDC60000F5
:10001000BBC60000B9C60000B7C60000B5C60000E8
:10002000B3C60000B1C60000AFC600000C94F821B2
:100030000C94A122A9C60000A7C600000C944F0989
:100040000C9445090C943B099FC600000C94FB08D6
:100050009BC6000099C6000097C600000C94CC090E
:100060000C948C0991C600008FC600008DC600005C
:100070008BC600001C034C005500460041002000C8
:100080004300440043002000440065006D006F0001
:10009000000018034400650061006E00200043006A
:1000A00061006D0065007200610000000403090436
:1000B00009023E00020100C03209040000010202F0
:1000C0000100052400100104240206052406000195
:1000D000070582030800FF09040100020A0000006E
:1000E0000705040210000507058302100005120130
:1000F000100102000008EB03442001000102DC01B2
:100100004F4646004F4E0054574F435550004F4EF8
:100110004543555000504F574552004D414B450007
:100120004750494F004543484F00535442595445A6
:100130004D50004155544F4F4646004C4556454C96
:1001400000424F494C4552544D5000435552505770
:1001500052004348505247005052470057414954BB
:1001600000574154455200505257410054454D509C
:1001700000424545520048454C5000434D4400471D
:100180004554005345540025630055534147453AB3
:100190002027534554204155544F4F4646204F4E3B
:1001A000272C2027534554204155544F4F46462075
:1001B0004F464627206F72202753455420415554FF
:1001C0004F4F4646204F464627200A0D00555341C3
:1001D00047453A202747455420424F494C45525401
:1001E0004D502720746F207265616420746865200B
:1001F00063757272656E7420626F696C65722074CB
:10020000656D7020696E20312F3130302064656754
:1002100072656520432E0A0D004F4B3A25690A0D81
:100220000055534147453A202747455420434850FD
:10023000524727206F72202753455420434850527D
:100240004720585858582720776974682072616E83
:100250006765206F66203020746F20370A0D004FCD
:100260004B3A25690A0D0055534147453A20274727
:100270004554204C45564C4527206F722027534546
:1002800054204C4556454C205858585827207769DB
:1002900074682072616E6765206F66203020746F0D
:1002A00020320A0D0055534147453A20274745540F
:1002B000204543484F272C20275345542045434889
:1002C0004F20585858582720776974682030203DAF
:1002D000204F464620616E6420656C7365204F4E4A
:1002E0000A0D004750494F202D2048656C700A0DBB
:1002F0002D2D2D2D2D2D2D2D2D2D2D2D2D2D2D2D2E
:100300002D2D2D2D2D2D2D2D2D2D2D2D2D2D2D2D1D
:100310002D2D2D2D2D2D2D2D2D2D2D2D2D2D2D2D0D
:100320002D2D2D2D2D2D2D2D2D2D2D2D2D2D2D2DFD
:100330002D2D2D2D2D2D2D2D2D2D2D2D2D2D2D2DED
:100340002D2D2D2D2D2D2D2D2D2D0A0D5573652087
:1003500047455420746F2072656164206F7220736A
:1003600065742074686520737461747573206F669A
:10037000204750494F730A0D54686520494F206D3E
:1003800061707320617320666F6C6C6F77733A30A5
:10039000203D20535749544348203031203D2053BD
:1003A0005749544348203132203D20535749544344
:1003B00048203233203D20446973706C617920629B
:1003C0007574746F6E34203D2057617465722073AC
:1003D000656E736F72206C6F77206C6576656C3517
:1003E000203D2057617465722073656E736F7220B3
:1003F00068696768206C6576656C4578616D706CBE
:10040000653A2027474554204750494F2030272040
:1004100077696C6C2072657475726E2074686520E3
:1004200063757272656E74206C6576656C206F669C
:100430002053574954434820302D2D2D2D2D2D2D3F
:100440002D2D2D2D2D2D2D2D2D2D2D2D2D2D2D2DDC
:100450002D2D2D2D2D2D2D2D2D2D2D2D2D2D2D2DCC
:100460002D2D2D2D2D2D2D2D2D2D2D2D2D2D2D2DBC
:100470002D2D2D2D2D2D2D2D2D2D2D2D2D2D2D2DAC
:100480002D2D2D2D2D2D2D2D2D2D2D2D2D2D2D2D9C
:100490002D2D2D2D0A0D004750494F202D20486548
:1004A0006C700A0D2D2D2D2D2D2D2D2D2D2D2D2D3D
:1004B0002D2D2D2D2D2D2D2D2D2D2D2D2D2D2D2D6C
:1004C0002D2D2D2D2D2D2D2D2D2D2D2D2D2D2D2D5C
:1004D0002D2D2D2D2D2D2D2D2D2D2D2D2D2D2D2D4C
:1004E0002D2D2D2D2D2D2D2D2D2D2D2D2D2D2D2D3C
:1004F0002D2D2D2D2D2D2D2D2D2D2D2D2D2D0A0D6F
:100500004F6E6C7920474554206973207375707065
:100510006F7274656420666F72204750494F202CBB
:10052000207365652048454C50204750494F206650
:100530006F72206D6F726520696E666F2D2D2D2D87
:100540002D2D2D2D2D2D2D2D2D2D2D2D2D2D2D2DDB
:100550002D2D2D2D2D2D2D2D2D2D2D2D2D2D2D2DCB
:100560002D2D2D2D2D2D2D2D2D2D2D2D2D2D2D2DBB
:100570002D2D2D2D2D2D2D2D2D2D2D2D2D2D2D2DAB
:100580002D2D2D2D2D2D2D2D2D2D2D2D2D2D2D2D9B
:100590002D2D2D2D2D2D2D0A0D004750494F202D8D
:1005A0002048656C700A0D2D2D2D2D2D2D2D2D2DF6
:1005B0002D2D2D2D2D2D2D2D2D2D2D2D2D2D2D2D6B
:1005C0002D2D2D2D2D2D2D2D2D2D2D2D2D2D2D2D5B
:1005D0002D2D2D2D2D2D2D2D2D2D2D2D2D2D2D2D4B
:1005E0002D2D2D2D2D2D2D2D2D2D2D2D2D2D2D2D3B
:1005F0002D2D2D2D2D2D2D2D2D2D2D2D2D2D2D2D2B
:100600002D0A0D4750494F20696E646578206F753B
:1006100074206F662072616E67652C20736565209B
:1006200048454C50204750494F20666F72206D6FEF
:10063000726520696E666F2D2D2D2D2D2D2D2D2D82
:100640002D2D2D2D2D2D2D2D2D2D2D2D2D2D2D2DDA
:100650002D2D2D2D2D2D2D2D2D2D2D2D2D2D2D2DCA
:100660002D2D2D2D2D2D2D2D2D2D2D2D2D2D2D2DBA
:100670002D2D2D2D2D2D2D2D2D2D2D2D2D2D2D2DAA
:100680002D2D2D2D2D2D2D2D2D2D2D2D2D2D2D2D9A
:100690002D2D0A0D0055534147453A202747455413
:1006A000204355525057522720746F207265616461
:1006B000207468652063757272656E7420706F7740
:1006C0006572207573656420696E206D410A0D00A6
:1006D0004F4B3A256C750A0D0055534147453A205A
:1006E00027474554205052574127206F72202753E7
:1006F0004554205052574120585858582720776960
:1007000074682072616E6765206F66203020746F98
:100710002036353533350A0D0055534147453A20CB
:10072000274745542050524727206F7220275345B2
:1007300054205052472058585858272077697468D9
:100740002072616E6765206F66203020746F2037DD
:100750000A0D004F4B3A25690A0D00555341474594
:100760003A20274745542053544259544D50272C82
:1007700020275345542053544259544D5020585823
:1007800058580A0D004E6F20286D6F72652920623F
:100790006F74746C6573206F662062656572206F7C
:1007A0006E207468652077616C6C2C0A0D4E6F208A
:1007B000286D6F72652920626F74746C6573206F89
:1007C0006620626565722E0A0D476F20746F207473
:1007D00068652073746F726520616E64206275793C
:1007E00020736F6D65206D6F72652C0A0D4E696EFA
:1007F0006574792D6E696E6520626F74746C6573B3
:10080000206F662062656572206F6E2074686520B7
:1008100077616C6C2E0A0D00256920426F74746C30
:1008200065287329206F662062656572206F6E20CF
:100830007468652077616C6C2C20256920626F7468
:10084000746C65287329206F6620626565720A0DD5
:1008500054616B65206F6E6520646F776E20616EEA
:100860006420706173732069742061726F756E64A7
:100870002C0A0D256920626F74746C652873292019
:100880006F662062656572206F6E207468652077E0
:10089000616C6C0A0D0053656E736548614A6F2088
:1008A0002D2048656C700A0D2D2D2D2D2D2D2D2DF3
:1008B0002D2D2D2D2D2D2D2D2D2D2D2D2D2D2D2D68
:1008C0002D2D2D2D2D2D2D2D2D2D2D2D2D2D2D2D58
:1008D0002D2D2D2D2D2D2D2D2D2D2D2D2D2D2D2D48
:1008E0002D2D2D2D2D2D2D2D2D2D2D2D2D2D2D2D38
:1008F0002D2D2D2D2D2D2D2D2D2D2D2D2D2D2D2D28
:100900002D2D0A0D557365205345542C2047455411
:100910002C20434D4420616E642048454C500A0D04
:10092000436F6D6D616E6473206172653A0A0D47A5
:1009300050494F202D20476574204750494F205380
:1009400074617465092843616E206F6E6C7920753F
:10095000736520474554290A0D54454D50202D20DC
:10096000536574206F72204765742050726F672E34
:100970002054656D702E0A0D505247202D2053656E
:1009800074206F72204765742063757272656E748F
:100990002050726F672E0A0D4348505247202D2079
:1009A000536574206F7220476574207468652063F6
:1009B000757272656E742050726F672E20746F208E
:1009C0006D6F646966790A0D50525741202D20538E
:1009D0006574206F72204765742074686520616DAE
:1009E0006F756E74206F6620776174657220757301
:1009F000656420746F207765742074686520706169
:100A0000640A0D5741544552202D20536574206FC0
:100A100072204765742074686520616D6F756E740F
:100A2000206F662077617465722075736564207429
:100A30006F20627265772074686520636F666665F3
:100A4000650A0D57414954202D20536574206F725B
:100A5000204765742074686520616D6F756E742021
:100A60006F662074696D6520746F207761697420EA
:100A70006265747765656E2077657420746865209B
:100A800070616420616E64206D616B6520746865BF
:100A900020636F666665650A0D43555250575220B4
:100AA0002D20476574207468652063757272656EC9
:100AB0007420706F77657220757365640A0D424FFC
:100AC000494C4552544D50202D2047657420746880
:100AD000652063757272656E7420626F696C6572F1
:100AE0002074656D702E0A0D4C4556454C202D2006
:100AF000536574206F7220476574207468652063A5
:100B0000757272656E742066696C6C206C657665B2
:100B10006C206F6620746865204375700A0D41551E
:100B2000544F4F46202D20536574206F7220476527
:100B300074207468652054696D6520696E204D6964
:100B40006E7574657320756E74696C204175746F71
:100B5000204F66660A0D5354425954454D50202D7E
:100B600020536574206F7220476574207468652077
:100B70007374616E6462792074656D702E0A0D4D18
:100B8000414B4520284F4E45435550202C2054576B
:100B90004F43555029207573656420746F206D6133
:100BA0006B6520636F666665650A0D4543484F2097
:100BB0002D20656E61626C65206F722064697361BF
:100BC000626C652073657269616C204543484F0A09
:100BD0000D466F72206D6F72652048656C702074D1
:100BE0007970652048454C50203C434F4D4D414E57
:100BF000443E0A0D2D2D2D2D2D2D2D2D2D2D2D2D40
:100C00002D2D2D2D2D2D2D2D2D2D2D2D2D2D2D2D14
:100C10002D2D2D2D2D2D2D2D2D2D2D2D2D2D2D2D04
:100C20002D2D2D2D2D2D2D2D2D2D2D2D2D2D2D2DF4
:100C30002D2D2D2D2D2D2D2D2D2D2D2D2D2D2D2DE4
:100C40002D2D2D2D2D2D2D2D2D2D2D2D2D2D2D0AF7
:100C50000D0055534147453A2027474554205445F8
:100C60004D5027206F7220275345542054454D5036
:100C700020585858582720776974682072616E6729
:100C800065206F66203020746F20393939390A0D9C
:100C9000004F4B3A25690A0D0055534147453A200C
:100CA00027474554205741495427206F7220275326
:100CB000455420574149542058585858272077699F
:100CC00074682072616E6765206F66203020746FD3
:100CD0002036353533350A0D004F4B3A25690A0D5C
:100CE0000055534147453A20274745542057415422
:100CF000455227206F7220275345542057415445B1
:100D00005220585858582720776974682072616EAD
:100D10006765206F66203020746F20363535333597
:100D20000A0D004F4B3A25690A0D004F4B0A0D0082
:100D30004552523A5041525345520A0D00455252C3
:100D40003A504152414D0A0D006548614A6F1124E5
:100D50001FBECFEFD4E0DEBFCDBF12E0A0E0B1E018
:100D6000E8E0F2E502C005900D92A839B107D9F785
:100D700023E0A8E9B2E001C01D92A539B207E1F76E
:100D80000E94F8240C9402293BC98F9387EF00003E
:100D90000197F1F78F9108953D983C9A449A4598B0
:100DA00008953D9AF2DF1DC008954498EEDF3D9806
:100DB000ECDF449AEADF3D9AE8DF13C00895082E7D
:100DC0003D9AE3DF802D0DD0882311F002D0F8CFBB
:100DD000089544983D9AD9DF449AD7DF3D98D5CFFE
:100DE00008950894881F01C0880F59F0449818F49A
:100DF00000003D9802C03D9A00C0C7DF449AC5DF9D
:100E0000F3CF44983D98C1DF449A8827359981E013
:100E1000BCDF99270895882701C081E071E04498DC
:100E20003D98B3DF449AB1DFFFCF88943599089499
:100E3000771FA8F74498813011F03D9801C03D9A82
:100E4000A4DF449AFFCFA1DF872F99270895292F88
:100E500033272230310559F02330310569F0213034
:100E60003105E9F482E190E02EEE30E01CC08EE323
:100E700090E020EB30E017C099278130910549F0D0
:100E800028F0029761F4E4E7F0E005C0ECEAF0E056
:100E900002C0E2E9F0E0849190E09F0104C080E0AC
:100EA00090E020E030E0FA01318320830895599AE0
:100EB000519A589A509A5F9A579A2C9A249A2E9A35
:100EC000269A2098289A25982D9A27982F9A3E9806
:100ED000469A3F98479A0895813081F018F0823001
:100EE000C1F00895611102C05F980895613011F456
:100EF0005F9A08958BB180588BB90895611102C033
:100F00002C980895613011F42C9A089595B180E1E0
:100F10000AC0611102C02E980895613011F42E9A12
:100F2000089595B180E4892785B90895813069F0E5
:100F300038F0823071F483B186FB882780F90895F8
:100F400089B1881F8827881F089583B18295817091
:100F5000089581E00895813059F038F0823069F4C5
:100F600083B1881F8827881F089583B181700895F1
:100F700083B185FB882780F9089581E0089588234F
:100F800039F0813051F486B1881F8827881F089571
:100F900086B186FB882780F9089581E00895811144
:100FA00002C0599A08955998089529B121FB8827BC
:100FB00080F990E021E0822781700895811102C0BC
:100FC000589A08955898089589B180958170089528
:100FD00083C1CF93DF93C82F7BD181E090D1C11122
:100FE00002C080EE01C080EA8AD1C82FD0E0DC2F99
:100FF000CC278AEA84D1C82B6DD1CE0124E0880F9A
:10100000991F2A95E1F7DF91CF9108953C98449874
:101010003498089586B18295817008958430A1F145
:1010200048F4813011F190F0823009F44AC08330E5
:10103000C9F10895863009F462C008F451C08730C0
:1010400009F46CC0883009F478C008958091980242
:1010500090919902611102C080627CC0623019F4E3
:1010600020E2822777C08F7D75C080919802909191
:101070009902611102C084606DC0623019F424E0ED
:10108000822768C08B7F66C08091980290919902F8
:10109000611102C080685EC0623011F480585AC08D
:1010A0008F7758C08091980290919902611102C087
:1010B000806450C0623019F420E482274BC08F7BDB
:1010C00049C08091980290919902611102C080619B
:1010D00041C0623019F420E182273CC08F7E3AC0C3
:1010E0008091980290919902611102C0886032C08B
:1010F000623019F428E082272DC0877F2BC08091B1
:10110000980290919902611102C0816023C06230FF
:1011100019F421E082271EC08E7F1CC080919802A6
:1011200090919902611102C0826014C0623019F47A
:1011300022E082270FC08D7F0DC080919802909190
:101140009902611102C0906805C0623011F4905894
:1011500001C09F7790939902809398020895E8E9DF
:10116000F2E0808191819078918380838081918168
:10117000982F882790952081318188279F77822B0F
:10118000932B918380830895EADF20919802309118
:10119000990280919A0290919B0228173907A1F039
:1011A000FBDD8EE7FEDD81110EC08091980219DE15
:1011B0008091990216DE8091980290919902909305
:1011C0009B0280939A0205DE21CF893090F44091F2
:1011D0009A0250919B0221E030E002C0220F331F9F
:1011E0008A95E2F72423352381E0232B19F080E050
:1011F000089581E008951F920F920FB60F92112467
:101200002F933F934F935F936F937F938F939F930E
:10121000AF93BF93EF93FF9380919C0290919D02B7
:10122000019690939D0280939C0280919C029091E4
:101230009D0280FD04C081E0CCDE0E94011D8091F2
:101240009C0290919D028F779927892B19F480E059
:10125000C0DEEAD0FF91EF91BF91AF919F918F9146
:101260007F916F915F914F913F912F910F900FBEA2
:101270000F901F9018951F920F920FB60F92112486
:101280000F900FBE0F901F9018951F920F920FB6E0
:101290000F9211240F900FBE0F901F9018951F9260
:1012A0000F920FB60F9211240F900FBE0F901F9048
:1012B000189582E084BD93E095BD9AEF97BD809329
:1012C0006E000895F6CF80919C0290919D02089542
:1012D00042980895429A0895ECECF0E01182108251
:1012E000429A3A9A5D9A559A80EC8093CA0084E0BB
:1012F00090E09183808388E18093C9000895909164
:10130000C80095FFFCCF8093CE008091C80087FF76
:10131000FCCF8091CE0008951F920F920FB60F92CE
:1013200011242F933F934F935F936F937F938F93EA
:101330009F93AF93BF93EF93FF9380919E02882377
:10134000A1F080919E02815080939E02E0919F02C5
:10135000F091A0020190F081E02D309711F0808192
:1013600001C08AEA8093CE0006C08091C9008F71C7
:101370008093C900AFDFFF91EF91BF91AF919F9133
:101380008F917F916F915F914F913F912F910F902E
:101390000FBE0F901F9018951F920F920FB60F92CD
:1013A00011248F939F93AF93BF93EF93FF93E0919B
:1013B0009F02F091A002A281B3818091CE0010978C
:1013C00031F08C9382819381019693838283FF9184
:1013D000EF91BF91AF919F918F910F900FBE0F90A2
:1013E0001F90189580E00E944E1C1092A20210924D
:1013F000A102089536D02091A1023091A202821755
:10140000930714F480E001C081E0C9CD9093A2025B
:101410008093A102089525C0C8DD91E0813009F4D0
:1014200090E0892F089508959093150380931403F5
:10143000A0E0B0E0BC01CD016C567140810991097A
:1014400024E630E040E050E00E945B2520ED31E0F2
:1014500040E050E00E94AA25309317032093160322
:1014600008958091160390911703089580E090E00D
:1014700021E032E0FC0143E0EE0FFF1F4A95E1F767
:10148000ED55FD4F158226833283238301968430E8
:10149000910581F70895833018F0833011F4BACDA7
:1014A0005ACD81E008950F931F93CF93DF93C0E04F
:1014B000D0E011E002E08C2FEEDF9E0193E0220FDE
:1014C000331F9A95E1F7F901ED55FD4F9681891784
:1014D00031F0158286838781811119C00DC09581F5
:1014E000953021F48383128317830EC08581863063
:1014F00028F08781811102C0128209C0F901ED55DF
:10150000FD4F85818F3F19F085818F5F8583F901BC
:10151000ED55FD4F838181110AC080819181019633
:1015200059F08081918101969183808305C08381E8
:10153000813011F411821082F901ED55FD4F808147
:101540009181892B39F0808191818039914010F40B
:1015500014830FC0F901ED55FD4F808191818039D1
:10156000914010F0048305C080819181892B09F49A
:1015700014822196C430D10509F09DCFDF91CF911F
:101580001F910F910895843070F4E82FF0E083E00C
:10159000EE0FFF1F8A95E1F7ED55FD4F178262812F
:1015A0007381848108956091BD027091BE02809123
:1015B000BF0208958091DE029091DF02089580318C
:1015C00027E2920710F08FE097E29093DF0280937A
:1015D000DE0289ED92E00C94CF191092E302089597
:1015E0001F93CF93DF93CDB7DEB760970FB6F89414
:1015F000DEBF0FBECDBF9091E302992331F09091F1
:10160000E302913011F080E016C08830E0F7182F27
:10161000BE016F5F7F4F0E946C1A8823A1F380E1A7
:10162000FE013196A9ECB2E001900D928A95E1F7A6
:101630001093C40281E060960FB6F894DEBF0FBE2F
:10164000CDBFDF91CF911F9108958091C40208957D
:10165000CF93DF93CDB7DEB72A970FB6F894DEBFEE
:101660000FBECDBFCE0101960E94F919882359F013
:101670008AE0FE013196A9EDB2E001900D928A95C3
:10168000E1F781E005C089ED92E00E945F1980E0FA
:101690002A960FB6F894DEBF0FBECDBFDF91CF9173
:1016A00008959091E302992321F09091E302913003
:1016B00081F4823020F08091C302846003C0809165
:1016C000C3028B7F8093C30282E08093E30281E0B8
:1016D000089580E00895882341F08091E30281110C
:1016E00006C081E08093E30208951092E30208951A
:1016F0009091E302992321F09091E302913049F413
:10170000833008F082E08093DD0289ED92E00C9452
:10171000CF1908958091DD0208958D3308F08CE390
:101720008093D90289ED92E00C94CF198091D9026F
:101730000895CF93C82F65E080E00E944819C1301A
:1017400021F050F466E081E002C066E080E00E9493
:10175000481967E081E006C066E080E00E94481911
:1017600067E080E0CF910C944819CF93C82F83E0B5
:101770000ADFC230A0F4613091F4711110C0809181
:10178000DD028F5F8093DD028091DD02833010F0F7
:101790001092DD0289ED92E0CF910C94CF19CF9198
:1017A000089560E0882311F081E001C080E00C948E
:1017B000481962E0882311F083E005C081E00E94AF
:1017C000481962E084E00C943E19662339F064E025
:1017D00080E00E943E1963E080E01AC063E0882345
:1017E00051F080E00E94481963E084E00E943E19B5
:1017F00064E083E00DC081E00E94481964E081E06C
:101800000E94481963E084E00E943E1964E084E08D
:101810000C943E198F929F92AF92BF92CF92DF921B
:10182000EF92FF920F931F93CF93DF93CDB7DEB765
:101830002A970FB6F894DEBF0FBECDBF81E0A3DEBE
:10184000162FF72E80E09FDEA62EC72E82E09BDEAD
:10185000B62ED72E8091C3028E7F8093C3020E9442
:10186000251C022FE42E2E833F83488759876A87E1
:10187000411102C0222351F08091E302882321F01C
:1018800081E08093E30202C01092E3028091E302C0
:10189000843009F43BC158F4813009F46DC098F0EC
:1018A000823009F4BFC0833009F4F7C013C2863018
:1018B00009F44AC108F4BBC1873009F4E8C1883093
:1018C00009F4FBC107C21092C5021092C602109221
:1018D000C7021092C80280E090E898DD81E06EDBDC
:1018E00068E080E00E94E21C68E082E00E94E21C66
:1018F00068E081E00E94E21C8091C3028B7F8093AC
:10190000C3021130A1F4F11012C06091D90270E04D
:1019100080E090E020E63AEE40E050E00E945B2557
:10192000AB01BC0181E00E94D21D1093E30281E073
:10193000A81210C0C8120EC0D11004C087E0809356
:10194000E30208C082E08093E3028091C3028B7FB0
:101950008093C30281E0B812BFC1D812BDC1C110CB
:1019600002C087E0A7C182E08093E3028091C302B6
:1019700084608093C302B0C168E080E00E94E21CF2
:1019800068E082E00E94E21C81E00E94851D809157
:10199000C3028B7F8093C302002329F080E090E88C
:1019A00035DD60E010C08091DE029091DF022EDD17
:1019B00032DD2091DE023091DF028217930710F4AE
:1019C00063E001C069E081E00E94E21C113021F473
:1019D000F11002C01092E30281E0A8120AC0C11007
:1019E00008C082E08093E3028091C3028B7F8093E2
:1019F000C30281E0B8120AC0D11008C082E080930F
:101A0000E3028091C30284608093C3028091D90273
:101A1000882309F461C181E00E94E11D813009F051
:101A20005BC158C18091C30281608093C30268E0AA
:101A300081E00E94E21C8091C30268E082FD06C042
:101A400082E00E94E21C62E080E005C080E00E942B
:101A5000E21C62E082E00E94E21C8091C902909147
:101A6000CA02845D9E4FD2DCD6DC4091C9025091FF
:101A7000CA02092E000CAA0BBB0B60E070E08417B1
:101A80009507A607B70714F400003AC080E00E944B
:101A9000851D83E08093E30233C068E081E00E940B
:101AA000E21C8091C30268E082FD06C082E00E94D1
:101AB000E21C62E080E005C080E00E94E21C62E07F
:101AC00082E00E94E21C0E94901D2091CD02309184
:101AD000CE024901A12CB12C681579058A059B0518
:101AE00078F084E08093E30281E00E94851D4091BC
:101AF000CF025091D00260E070E080E00E94D21DE1
:101B0000113009F0E9C0F110E7C0E4C068E081E0FD
:101B10000E94E21C8091C30268E082FD06C082E060
:101B20000E94E21C62E080E005C080E00E94E21CAE
:101B300062E082E00E94E21C80E00E94E11D8823B6
:101B400009F4C6C086E0B6C08091CB029091CC0269
:101B5000A0E0B0E08093C5029093C602A093C702B4
:101B6000B093C8028091C30282FF14C08091C50265
:101B70009091C602A091C702B091C802880F991F28
:101B8000AA1FBB1F8093C5029093C602A093C702F1
:101B9000B093C8028091DD02813051F030F5609140
:101BA000C5027091C6028091C7029091C8020EC012
:101BB0008091C5029091C602A091C702B091C8025F
:101BC000BC01CD01660F771F881F991F23E030E00D
:101BD00040E050E00E9488252093C5023093C60261
:101BE0004093C7025093C80210C08091C5029091E3
:101BF000C602A091C702B091C8028093C50290931B
:101C0000C602A093C702B093C80285E08093E302A6
:101C10004091C5025091C6026091C7027091C802FE
:101C200082E00E94D21D80E00E94851D55C068E0C0
:101C300081E00E94E21C8091C30262E082FF06C044
:101C400082E00E94E21C68E080E005C080E00E9423
:101C5000E21C68E082E00E94E21C82E00E94E11D3A
:101C60008823D1F181E00E94851D6091D90270E046
:101C700080E090E020E63AEE40E050E00E945B25F4
:101C8000AB01BC0181E00E94D21D81E013C080E065
:101C900090E8BCDB62E080E00E94E21C62E081E050
:101CA0000E94E21C62E082E00E94E21C80E00E944E
:101CB000851D88E08093E3020FC00E94251C2983C4
:101CC0003A834B835C836D83213021F0313011F0F6
:101CD000000002C01092E3028091E30246DD809191
:101CE000C30281705EDD8091DD0223DD81E00111A0
:101CF00001C080E05EDD90DB61E0E11001C060E0EA
:101D00002A960FB6F894DEBF0FBECDBFDF91CF91FC
:101D10001F910F91FF90EF90DF90CF90BF90AF9009
:101D20009F908F9052CD80E090E0FC01E75EFC4FE9
:101D30001082019680349105C1F710925A030895DC
:101D4000809118038E7F8093180380E00E946418AE
:101D5000EACFCF93DF9390915A03903468F4E091E7
:101D60005A03F0E0E75EFC4F808390915A039F5F37
:101D700090935A03D1E003C080935803D0E0909130
:101D8000180390FF17C0C82F0E94F81D882391F0F8
:101D90000E94FE1D1F92CF9327E831E03F932F93BF
:101DA0009F938F930E94DE250F900F900F900F90BE
:101DB0000F900F908D2FDF91CF9108958F929F926A
:101DC000AF92BF92EF92FF920F931F93CF938C012C
:101DD0007B01FB011082118212821382FC0180813F
:101DE0008B3221F08D3231F4C1E001C0C0E00F5FD1
:101DF0001F4F36C0C0E034C0C42F3323C9F1C11116
:101E000037C02A3098F5F701608171818281938112
:101E100041E06939F9E97F078F07F9E19F0760F72A
:101E20002AE030E040E050E00E945B25F70160834B
:101E3000718382839383F80121918F0130E02053D5
:101E400031094901330FAA08BB08DC01CB01880D19
:101E5000991DAA1DBB1DF70180839183A283B383C3
:101E6000F801308120ED230F4C2FC6CFC1E0C5CF44
:101E70008C2FCF911F910F91FF90EF90BF90AF905B
:101E80009F908F900895FC0120E03E2F381B7081B9
:101E9000DA019C91772351F0391740F4211106C0E3
:101EA000761302C0108221E03196EFCF931BDA0146
:101EB0009C93211102C0E0E0F0E0CF0108952F9241
:101EC0003F924F925F926F927F928F929F92AF92CA
:101ED000BF92CF92DF92EF92FF920F931F93CF9317
:101EE000DF93CDB7DEB727970FB6F894DEBF0FBEEE
:101EF000CDBF86E08A8381E089831B821C821D829C
:101F00001E8280E48F8309E113E0F12C86E0E82E45
:101F10009AE0A92E29E0922E38E0832E47E0342E55
:101F200055E0252E64E0D62E412C512C32014394ED
:101F3000AE01495F5F4F60E2C801A5DFB82EC92E30
:101F40000115110509F414C181E0F816C9F1F8165C
:101F500028F082E0F81609F4C5C006C163E871E014
:101F6000C8010E94C625892B11F41982FDC06FE7B4
:101F700071E0C8010E94C625892B11F481E008C0D8
:101F80006BE771E0C8010E94C625892B19F482E035
:101F90008983EAC066E771E0C8010E94C625892BE3
:101FA00019F483E0898308C061E771E0C8010E94E9
:101FB000C625892B19F4D9828CE019C0E982D4C0D6
:101FC0008981833019F0823008F076C06CE671E0C8
:101FD000C8010E94C625892B11F41A82C5C067E684
:101FE00071E0C8010E94C625892B19F481E08A831B
:101FF000BBC061E671E0C8010E94C625892B11F4BF
:1020000082E0F5CF6CE571E0C8010E94C625892BFE
:1020100011F483E0ECCF68E571E0C8010E94C625A9
:10202000892B11F4DA82A0C062E571E0C8010E9438
:10203000C625892B11F42A8297C06BE471E0C80190
:102040000E94C625892B11F43A828EC061E471E0AA
:10205000C8010E94C625892B11F48A8285C06BE3D2
:1020600071E0C8010E94C625892B11F49A827CC0B8
:1020700063E371E0C8010E94C625892B11F4AA828E
:1020800073C06AE271E0C8010E94C625892B11F471
:102090008BE0ADCF65E271E0C8010E94C625892BB7
:1020A00011F48DE0A4CF60E271E0C8010E94C62562
:1020B000892B21F48EE09BCF823011F0EA8254C04C
:1020C0006BE171E0C8010E94C625892B11F48FE0F5
:1020D0008ECF65E171E0C8010E94C625892B71F79A
:1020E00080E185CF8981823078F4813049F0BE016A
:1020F0006D5F7F4FC80162DE882331F0EA8204C041
:102100008A818E30D9F7F3CF8981823069F58A814F
:102110008F30C9F46EE071E0C8010E94C625892B9A
:1021200029F41B821C821D821E821EC067E071E0A2
:10213000C8010E94C625892B09F0C0CF4B825C8262
:102140006D827E8211C0803179F464E071E0C80153
:102150000E94C625892B91F360E071E0C8010E94BE
:10216000C625892BF1F2AACFF3940B2D1C2DE0CEBE
:102170005A81583041F4498158E06B817C818D81CE
:102180009E812AD10CC0593020F15C3009F069C021
:1021900049815CE06B817C818D819E81D7D5C3DDD7
:1021A00027960FB6F894DEBF0FBECDBFDF91CF915B
:1021B0001F910F91FF90EF90DF90CF90BF90AF9065
:1021C0009F908F907F906F905F904F903F902F9057
:1021D0000895533041F4498153E06B817C818D81B6
:1021E0009E8193D6DCCF5430D0F4513041F44981F4
:1021F00051E06B817C818D819E816AD4D0CF523039
:1022000038F449816B817C818D819E8110D6C7CF46
:1022100049816B817C818D819E81E5D6C0CF55300F
:1022200041F4498155E06B817C818D819E8123D170
:10223000B6CF553038F449816B817C818D819E8188
:10224000B9D4ADCF563011F453D7A9CF573009F0D8
:10225000A6CF498157E06B817C818D819E8195D38A
:102260009ECF5D30D0F45A3041F449815AE06B8101
:102270007C818D819E814FD092CF5B3038F4498133
:102280006B817C818D819E8166D189CF49816B81F3
:102290007C818D819E81F9D482CF5E3041F4498169
:1022A0005EE06B817C818D819E8123D278CF5E3010
:1022B00038F449816B817C818D819E81ADD16FCF56
:1022C0005F3041F449815FE06B817C818D819E812B
:1022D000F1D265CF503109F062CF498150E16B8175
:1022E0007C818D819E81A3D35ACF10925903809116
:1022F0005A03882379F0E0915A03F0E0E85EFC4F3E
:1023000080818D3039F4E0915A03F0E0E85EFC4FB3
:102310001082D5CD08950F931F93CF93DF9300D0F4
:1023200000D000D0CDB7DEB76B834130D9F40E9426
:10233000F81D882309F445C00E94FE1D182F092F9F
:10234000F5D91F928F9382E491E09F938F930F931F
:102350001F930E94CF250F900F900F900F900F901A
:102360000F902FC041110DC08B81D7D926960FB683
:10237000F894DEBF0FBECDBFDF91CF911F910F91BB
:10238000C8C6433099F40E94F81D8823D1F00E94FA
:10239000FE1D2AE831E03F932F939F938F930E9475
:1023A000DE250F900F900F900F900BC026960FB662
:1023B000F894DEBF0FBECDBFDF91CF911F910F917B
:1023C00097C626960FB6F894DEBF0FBECDBFDF913D
:1023D000CF911F910F9108950F931F93CF93DF9388
:1023E00000D000D000D0CDB7DEB74130D1F40E948C
:1023F000F81D8823A9F10E94FE1D182F092F0BD864
:102400009F938F9389E192E09F938F930F931F93F4
:102410000E94DE250F900F900F900F900F900F905D
:102420001FC0433059F026960FB6F894DEBF0FBE9A
:10243000CDBFDF91CF911F910F915AC60E94F81D19
:10244000882371F00E94FE1D2DEC31E03F932F9305
:102450009F938F930E94DE250F900F900F900F9007
:1024600026960FB6F894DEBF0FBECDBFDF91CF9199
:102470001F910F9108951F93CF93DF9300D000D049
:1024800000D0CDB7DEB76B837C838D839E834111F3
:102490001EC08B819C81AD81BE8188309105A105D4
:1024A000B10558F411D626960FB6F894DEBF0FBECC
:1024B000CDBFDF91CF911F912CC626960FB6F89411
:1024C000DEBF0FBECDBFDF91CF911F9100C641305F
:1024D000C9F40E94F81D8823A1F1F3D5182F0E949A
:1024E000FE1D1F921F932FE532E03F932F939F9382
:1024F0008F930E94DE250F900F900F900F900F90FA
:102500000F901FC0433099F40E94F81D8823C9F032
:102510000E94FE1D21E232E03F932F939F938F9301
:102520000E94DE250F900F900F900F900AC0269604
:102530000FB6F894DEBF0FBECDBFDF91CF911F91D4
:10254000D7C526960FB6F894DEBF0FBECDBFDF917C
:10255000CF911F9108950F931F93CF93DF9300D0D6
:1025600000D000D0CDB7DEB76B834130D9F40E94E4
:10257000F81D882309F445C00E94FE1D182F092F5D
:10258000C9D81F928F9382E491E09F938F930F930A
:102590001F930E94CF250F900F900F900F900F90D8
:1025A0000F902FC041110DC08B81A2D826960FB677
:1025B000F894DEBF0FBECDBFDF91CF911F910F9179
:1025C000A8C5433099F40E94F81D8823D1F00E94D9
:1025D000FE1D27E632E03F932F939F938F930E9437
:1025E000DE250F900F900F900F900BC026960FB620
:1025F000F894DEBF0FBECDBFDF91CF911F910F9139
:1026000077C526960FB6F894DEBF0FBECDBFDF911B
:10261000CF911F910F910895CF93DF9300D000D0F9
:1026200000D0CDB7DEB749835A836B837C838D831B
:102630009E834130D9F40E94F81D882309F450C0CC
:102640000E94FE1D2091180321701F922F9322E4F7
:1026500031E03F932F939F938F930E94CF250F904C
:102660000F900F900F900F900F903AC041111AC029
:102670008B819C81AD81BE81892B8A2B8B2B21F094
:1026800080911803816003C0809118038E7F80932E
:10269000180326960FB6F894DEBF0FBECDBFDF91AC
:1026A000CF9137C5433099F40E94F81D8823C1F0BB
:1026B0000E94FE1D25EA32E03F932F939F938F9354
:1026C0000E94DE250F900F900F900F9009C0269664
:1026D0000FB6F894DEBF0FBECDBFDF91CF9108C516
:1026E00026960FB6F894DEBF0FBECDBFDF91CF9117
:1026F0000895CF92DF92EF92FF921F93CF93DF93D3
:1027000000D000D000D0CDB7DEB76B837C838D8343
:102710009E83413009F092C0CB80DC80ED80FE804A
:1027200083E0C816D104E104F104B1F178F084E04B
:10273000C816D104E104F10409F44FC095E0C916AC
:10274000D104E104F10409F45CC06FC00E94F81DDB
:10275000882309F4A1C08C2D0E94AB07182F0E947A
:10276000FE1D113039F4FF92EF92DF92CF922AE4EE
:1027700031E006C0FF92EF92DF92CF9220E631E087
:102780003F932F939F938F930E94CF250FB6F8947A
:10279000DEBF0FBECDBF80C00E94F81D882309F4A4
:1027A0007BC00E940A08182F0E94FE1DBC01113038
:1027B00019F485E791E002C08CE891E026960FB607
:1027C000F894DEBF0FBECDBFDF91CF911F91FF9078
:1027D000EF90DF90CF900C94F6250E94F81D88238F
:1027E00009F45AC080E00E94BF07182F0E94FE1D06
:1027F000BC01113019F482EA91E0E0CF89EB91E05D
:10280000DDCF0E94F81D882309F446C081E00E94B4
:10281000BF07182F0E94FE1DBC01113019F480ED76
:1028200091E0CCCF87EE91E0C9CF0E94F81D8823BC
:1028300099F10E94FE1D2AE935E015C0411109C039
:102840000E94F81D882341F10E94FE1D27E934E013
:102850000AC0433099F40E94F81D8823E9F00E94D1
:10286000FE1D23EE32E03F932F939F938F930E94A0
:10287000DE250F900F900F900F900EC026960FB68A
:10288000F894DEBF0FBECDBFDF91CF911F91FF90B7
:10289000EF90DF90CF901BC426960FB6F894DEBF62
:1028A0000FBECDBFDF91CF911F91FF90EF90DF90D2
:1028B000CF900895CF93DF9300D000D000D0CDB754
:1028C000DEB76B837C838D839E83423009F03FC0EB
:1028D0008B819C81AD81BE810097A105B10529F056
:1028E0000197A105B10581F028C081E00E94510B3C
:1028F0008823C9F00E94F81D8823F1F10E94FE1D73
:10290000BC018FEF91E02EC082E00E94510B882322
:1029100051F00E94F81D882379F10E94FE1DBC0130
:102920008AE192E01FC00E94F81D882329F10E94CD
:10293000FE1DBC018CE092E015C00E94F81D8823AA
:10294000D9F00E94FE1DBC0187E292E00BC043302B
:1029500099F40E94F81D882379F00E94FE1DBC01A5
:1029600089E392E026960FB6F894DEBF0FBECDBF86
:10297000DF91CF910C94F62526960FB6F894DEBF22
:102980000FBECDBFDF91CF9108950F931F93CF93CB
:10299000DF9300D000D000D0CDB7DEB74130E1F4F6
:1029A0000E94F81D8823C1F10E94FE1D182F092FD7
:1029B0000E94561D9F938F937F936F9380ED96E0B7
:1029C0009F938F930F931F930E94DE250FB6F89469
:1029D000DEBF0FBECDBF20C0433099F40E94F81D6A
:1029E0008823D1F00E94FE1D25E936E03F932F9306
:1029F0009F938F930E94DE250F900F900F900F9062
:102A00000BC026960FB6F894DEBF0FBECDBFDF9188
:102A1000CF911F910F916CC326960FB6F894DEBF2D
:102A20000FBECDBFDF91CF911F910F910895CF932E
:102A3000DF9300D000D000D0CDB7DEB76B837C83AE
:102A40008D839E83423081F58B819C81AD81BE81D7
:102A50000097A105B10529F00197A105B10571F015
:102A600025C00E94F81D882351F10E94FE1DBC0163
:102A700083E792E00E94F62580E00CC00E94F81DDA
:102A80008823E9F00E94FE1DBC0182E892E00E94CA
:102A9000F62581E026960FB6F894DEBF0FBECDBFB7
:102AA000DF91CF910C946B0B433049F426960FB60F
:102AB000F894DEBF0FBECDBFDF91CF9108C326963D
:102AC0000FB6F894DEBF0FBECDBFDF91CF91089552
:102AD000FF920F931F93CF93DF9300D000D000D0CD
:102AE000CDB7DEB76B837C838D839E83411113C08A
:102AF000E8D22B813C814D815E8162E07BD52696B8
:102B00000FB6F894DEBF0FBECDBFDF91CF911F91FE
:102B10000F91FF90FEC2413001F50E94F81D8823FD
:102B200009F43CC0CED2F82E0E94FE1D182F092FAA
:102B300062E08F2DB6D59F938F937F936F938FE82D
:102B400092E09F938F930F931F930E94CF250FB610
:102B5000F894DEBF0FBECDBF21C0433099F40E9470
:102B6000F81D8823D9F00E94FE1D29ED36E03F9321
:102B70002F939F938F930E94DE250F900F900F90BD
:102B80000F900CC026960FB6F894DEBF0FBECDBFD7
:102B9000DF91CF911F910F91FF90AAC226960FB699
:102BA000F894DEBF0FBECDBFDF91CF911F910F9183
:102BB000FF9008950F931F93CF93DF9300D000D021
:102BC00000D0CDB7DEB76B8341111BC0862F0E94AA
:102BD000F00A882359F026960FB6F894DEBF0FBE90
:102BE000CDBFDF91CF911F910F9193C226960FB663
:102BF000F894DEBF0FBECDBFDF91CF911F910F9133
:102C000066C24130C9F4F4D78823A1F1F7D7182F51
:102C1000092F0E94250B1F928F9383E597E09F93C6
:102C20008F930F931F930E94DE250F900F900F90AC
:102C30000F900F900F901EC0433089F4D9D788238E
:102C4000C9F0DCD729E137E03F932F939F938F930F
:102C50000E94DE250F900F900F900F900BC02696CC
:102C60000FB6F894DEBF0FBECDBFDF91CF911F919D
:102C70000F913EC226960FB6F894DEBF0FBECDBFB1
:102C8000DF91CF911F910F9108950F931F93CF93D1
:102C9000DF9300D000D000D0CDB7DEB76B837C834C
:102CA0004130D1F4A5D7882309F445C0A7D7182F00
:102CB000092F0E94DA0A9F938F9382E491E09F93F9
:102CC0008F930F931F930E94CF250F900F900F901B
:102CD0000F900F900F902FC041110FC08B819C81DE
:102CE0000E94DF0A26960FB6F894DEBF0FBECDBF56
:102CF000DF91CF911F910F910CC2433089F478D7A7
:102D00008823C9F07BD72BE537E03F932F939F9320
:102D10008F930E94DE250F900F900F900F900BC0A5
:102D200026960FB6F894DEBF0FBECDBFDF91CF91D0
:102D30001F910F91DDC126960FB6F894DEBF0FBE2E
:102D4000CDBFDF91CF911F910F910895CF93DF9366
:102D500000D000D000D0CDB7DEB749835A836B8353
:102D60007C838D839E83433071F442D7882309F49A
:102D700055C044D726E938E03F932F939F938F9314
:102D80000E94DE253DC0443009F03FC08091000123
:102D9000882339F12DD7882309F440C02FD72091FB
:102DA0000001509100014091000130E021503109B3
:102DB0003F932F931F925F931F924F9328E138E028
:102DC0003F932F939F938F930E94DE258091000164
:102DD0008150809300010FB6F894DEBF0FBECDBFC7
:102DE0001DC006D78823D1F009D725E837E03F93E7
:102DF0002F939F938F930E94DE2583E6809300019B
:102E00000F900F900F900F9009C026960FB6F89470
:102E1000DEBF0FBECDBFDF91CF916AC126960FB640
:102E2000F894DEBF0FBECDBFDF91CF910895FF9222
:102E30000F931F93CF93DF9300D000D000D0CDB776
:102E4000DEB76B837C838D839E83411113C039D1A0
:102E50002B813C814D815E8160E0CCD326960FB6FC
:102E6000F894DEBF0FBECDBFDF91CF911F910F91C0
:102E7000FF904FC14130F1F4BBD6882309F439C02B
:102E800020D1F82EBBD6182F092F60E08F2D09D442
:102E90009F938F937F936F9381E99CE09F938F9390
:102EA0000F931F930E94DE250FB6F894DEBF0FBE6E
:102EB000CDBF1FC0433089F49BD68823D1F09ED666
:102EC00022E53CE03F932F939F938F930E94DE2552
:102ED0000F900F900F900F900CC026960FB6F8949D
:102EE000DEBF0FBECDBFDF91CF911F910F91FF903D
:102EF000FFC026960FB6F894DEBF0FBECDBFDF91A0
:102F0000CF911F910F91FF900895FF920F931F9300
:102F1000CF93DF9300D000D000D0CDB7DEB76B8366
:102F20007C838D839E83411113C0CBD02B813C8148
:102F30004D815E8163E05ED326960FB6F894DEBFC6
:102F40000FBECDBFDF91CF911F910F91FF90E1C0D8
:102F50004130F1F44DD6882309F439C0B2D0F82EAF
:102F60004DD6182F092F63E08F2D9BD39F938F93FE
:102F70007F936F9389ED9CE09F938F930F931F93A3
:102F80000E94DE250FB6F894DEBF0FBECDBF1FC076
:102F9000433089F42DD68823D1F030D629E93CE09E
:102FA0003F932F939F938F930E94DE250F900F9056
:102FB0000F900F900CC026960FB6F894DEBF0FBE90
:102FC000CDBFDF91CF911F910F91FF9091C02696B9
:102FD0000FB6F894DEBF0FBECDBFDF91CF911F912A
:102FE0000F91FF900895FF920F931F93CF93DF935C
:102FF00000D000D000D0CDB7DEB76B837C838D834B
:103000009E83411113C05DD02B813C814D815E8137
:1030100061E0F0D226960FB6F894DEBF0FBECDBFAA
:10302000DF91CF911F910F91FF9073C04130F1F468
:10303000DFD5882309F439C044D0F82EDFD5182F06
:10304000092F61E08F2D2DD39F938F937F936F93E3
:1030500083E29DE09F938F930F931F930E94DE2541
:103060000FB6F894DEBF0FBECDBF1FC0433089F44A
:10307000BFD58823D1F0C2D521EE3CE03F932F93FA
:103080009F938F930E94DE250F900F900F900F90CB
:103090000CC026960FB6F894DEBF0FBECDBFDF91F1
:1030A000CF911F910F91FF9023C026960FB6F894F1
:1030B000DEBF0FBECDBFDF91CF911F910F91FF906B
:1030C000089580915B03089580935B03089590D5E4
:1030D000882369F093D52DE33DE03F932F939F9391
:1030E0008F930E94DE250F900F900F900F90089500
:1030F0007FD5882369F082D520E33DE03F932F936D
:103100009F938F930E94DE250F900F900F900F904A
:1031100008956ED5882369F071D52BE23DE03F9389
:103120002F939F938F930E94DE250F900F900F9007
:103130000F900895EF92FF920F931F93CF93DF9319
:103140008AEFE82E82E0F82E01EF12E0C0E0D4E032
:10315000F701D1937F01F801D1938F0161E08C2FAA
:103160000E940E08CF5FC93099F7DF91CF911F9170
:103170000F91FF90EF900C94C408AF92BF92CF9242
:10318000DF92EF92FF920F931F93CF933091E7025C
:103190003F5F3093E7022091E6022F5F2093E60223
:1031A0009091E5029F5F9093E5028091E4028F5F2A
:1031B0008093E40231111092E702223010F0109255
:1031C000E602953010F01092E5028A3010F010926D
:1031D000E40201EF12E08AEFC82E82E0D82E98EECA
:1031E000E92E92E0F92EC0E0F80190815601F60137
:1031F0008081981799F0943041F4F80180838C2FE6
:103200000E94E508F701808309C0843039F4F80191
:103210008083F70160818C2F0E940E08FFEFCF1A88
:10322000DF0AF5018081813059F038F0823059F0A1
:10323000833089F48091E40208C08091E70205C0E0
:103240008091E60202C08091E502811104C062E033
:103250008C2F0E940E08CF5F0F5F1F4FFFEFEF1AFA
:10326000FF0AC93009F6CF911F910F91FF90EF909F
:10327000DF90CF90BF90AF900C94C408693038F4C1
:10328000E62FF0E0E650FD4F90819813808308957B
:10329000982F862F692F0C940E088627082E82956A
:1032A000807F8025092E982F82958F70082686951D
:1032B00098278927880F880F880F80250895FC019B
:1032C000838180788C608F77838382E3818386EE2D
:1032D00082838CE49DE19683858382E084831782D8
:1032E0000895FC0188EE93E0958384838CEA9DE049
:1032F000978386838CE49DE19383828388E293E2C3
:10330000918380838AEA9AEA9187808725E535E56B
:103310003387228795878487178616860895EF92CC
:10332000FF920F931F93CF93DF93CDB7DEB72A970A
:103330000FB6F894DEBF0FBECDBF85E6898388E463
:103340008A8381E68B838AE48C838FE68D838AE986
:103350008E8387EB8F838EE9888785EB898780E969
:103360008A87CE0101967C0106EF13E0F701619197
:103370007F01C8010E94AC280F5F1F4F0115F4E0C8
:103380001F07A1F72A960FB6F894DEBF0FBECDBF78
:10339000DF91CF911F910F91FF90EF900895EF92E1
:1033A000FF920F931F93CF93DF93EC017C0188E092
:1033B000E80EF11C8E018FEF9FEFF80161918F01F4
:1033C0006CDF0E151F05C9F79987888702E813E09F
:1033D0006991C8010E94AC280F5F1F4F0C38F3E0C1
:1033E0001F07B1F7DF91CF911F910F91FF90EF90E1
:1033F0000895CF92DF92EF92FF920F931F93CF9396
:10340000DF93EC016C0102E813E0EE24EA94FE2C59
:10341000C8010E94A428F60181936F01682FC7019B
:103420003CDF7C010F5F1F4F0A38F3E01F0781F775
:103430008AE893E00E94A42888878BE893E00E94A2
:10344000A428898781E0288539852E153F0509F054
:1034500080E0DF91CF911F910F91FF90EF90DF906F
:10346000CF900895CF92DF92EF92FF920F931F9328
:10347000CF93DF93883038F5EB01082F6B018EE096
:10348000C80ED11C7B018FEF9FEFF70161917F0187
:1034900004DFEC14FD04C9F79F878E8710E084E0F9
:1034A000000F111F8A95E1F7E12CF12C6991C801F9
:1034B0008E0D9F1D0E94AC28FFEFEF1AFF0A80E1DE
:1034C000E816F10499F7DF91CF911F910F91FF90CA
:1034D000EF90DF90CF900895CF92DF92EF92FF921E
:1034E0000F931F93CF93DF93CDB7DEB728970FB617
:1034F000F894DEBF0FBECDBF282F30E094E0220F3E
:10350000331F9A95E1F738872F832FEF3FEF3E83E4
:103510002D831C821B8220E130E03A83298388308E
:1035200008F058C089819A81039728F089819A818F
:1035300002979A8389838B01E12CF12C6801CE0CD0
:10354000DF1C89819A81E816F90680F48F819885BD
:103550008E0D9F1D9C838B838B819C810E94A42850
:10356000F6018083FFEFEF1AFF0AE8CFE12CF12C80
:103570006801CE0CDF1C89819A81E816F90658F49F
:10358000F60160818D819E8188DE9E838D83FFEFB1
:10359000EF1AFF0AEDCF8F8198850E969C838B835F
:1035A0008B819C810E94A428F60180838F8198855D
:1035B0000F969C838B838B819C810E94A428F601AB
:1035C00081832D813E8181E0F80146855785421730
:1035D000530709F080E028960FB6F894DEBF0FBEBF
:1035E000CDBFDF91CF911F910F91FF90EF90DF90B2
:1035F000CF900895CF92DF92EF92FF920F931F9397
:10360000CF93DF93CDB7DEB760970FB6F894DEBFE8
:103610000FBECDBF182F062F69017A01BE016F5F63
:103620007F4F5ADF013009F128F0023061F003309A
:1036300099F028C08FEFC816D806E104F10410F500
:10364000DA82C9821AC08FEFC816D806E104F104E5
:10365000C8F4DE82CD8211C08FEFC816D806E1040F
:10366000F10480F4D886CF8208C08FEFC816D80640
:10367000E104F10438F4DC82CB82BE016F5F7F4F3E
:10368000812FF0DE60960FB6F894DEBF0FBECDBF7F
:10369000DF91CF911F910F91FF90EF90DF90CF902E
:1036A00008951F93CF93DF93CDB7DEB760970FB622
:1036B000F894DEBF0FBECDBF162FBE016F5F7F4FE8
:1036C0000BDF113071F038F0123041F0133071F42B
:1036D0006F81788508C069817A8105C06D817E819E
:1036E00002C06B817C8180E090E003C060E070E00C
:1036F000CB0160960FB6F894DEBF0FBECDBFDF9151
:10370000CF911F91089560E070E080E092E00C940A
:10371000BE28CF92DF92EF92FF920F931F93CF9329
:10372000DF93CDB7DEB7A7970FB6F894DEBF0FBE15
:10373000CDBF06EF13E07E018BE1E80EF11C6701BF
:10374000C8010E94A428F70181937F010F5F1F4FDA
:103750000115F4E01F07A1F7D601E9E4FDE09E01A1
:10376000205E3F4F80E09D919FA314969C911497FB
:1037700090959EA394919DA34FA19EA1491303C030
:103780004DA19FA149138F5F31962A173B0759F727
:103790008823A1F0CE01419692DDCE014196FFDD56
:1037A000CE0101969EDD10E0BE016F5F7F4F812F3D
:1037B00059DE1F5F1830C1F7A6DFB1DDA7960FB63F
:1037C000F894DEBF0FBECDBFDF91CF911F910F9157
:1037D000FF90EF90DF90CF900895ECE5F3E0138237
:1037E0001282148210821182089510925F03109247
:1037F0005E031092600310925C0310925D0396D2F8
:10380000813059F028F0823069F0833059F00FC0D0
:1038100010925C0310925D030AC080935D031092C6
:103820005C0305C081E080935C0380935D030E948C
:10383000310A8131974224F081E080935E0302C017
:1038400010925E0310925F030895CF93DF9300D030
:1038500000D01F92CDB7DEB785E0ECE5F3E0DE01E6
:10386000119601900D928A95E1F729813A814B8159
:103870005C816D8170E080E090E00F900F900F9080
:103880000F900F90DF91CF91089510920503109241
:1038900004031092030381E00C94CF07853608F0EF
:1038A00084E6809304030895E4E6F3E087E08083F0
:1038B000818391E092838383848395838683878346
:1038C0009087109262031092610310926D03109220
:1038D000630308950F931F93CF93809162038F5FCB
:1038E00080936203809163038F5F80936303809171
:1038F0006D038F5F80936D03809161038F5F809371
:1039000061038091620381111092620380916303CD
:10391000823010F01092630380916D03853010F0B7
:1039200010926D03809161038A3010F01092610350
:1039300004E613E0C0E0F80180819181891771F0FD
:103940008183873031F08C2F0E949607F8018283A3
:1039500005C0F80162818C2F0E946C07F8018081FC
:103960008230D1F028F4882361F0813091F020C0BA
:103970008830C1F08930C1F08330D1F48091610387
:103980000DC080916203811104C062E08C2F0E94FF
:103990006C078091630302C080916D03811108C0A0
:1039A00062E003C061E001C060E08C2F0E946C0700
:1039B000CF5F0D5F1F4FC33009F0BDCFCF911F9177
:1039C0000F910895813059F018F0823079F0089500
:1039D00080916403861779F0609364030895809161
:1039E0006703681741F060936703089580916A0345
:1039F000681360936A03089510920D0310920C03EC
:103A000008950F931F9320910603309107032F5FB2
:103A10003F4F309307032093060320910603309114
:103A2000070321153041F8F0409108035091090334
:103A300060910A0370910B032CE07695679557957A
:103A400047952A95D1F750930D0340930C0310929C
:103A500007031092060310920803109209031092B4
:103A60000A0310920B0340910803509109036091DF
:103A70000A0370910B0397FF02C09F7706C020E0F6
:103A800030E8F901E81BF90BCF018A019B01080F0F
:103A9000191F211D311D0093080310930903209362
:103AA0000A0330930B031F910F91089580910C032B
:103AB00090910D0362E672E0EDD768EE73E00E942C
:103AC000742580E090E008951092100310920F0387
:103AD00083E080930E0308950E94E407813039F457
:103AE0001092100310920F0380930E03089580919B
:103AF0000F03909110038F3F2FEF920729F001964B
:103B00009093100380930F030895882331F0813040
:103B100031F41092100310920F030C94DE070895F5
:103B200080910F039091100364E670E0B3D7BC015D
:103B300080E090E00895EEE6F3E0108211821282B8
:103B400013821482158216821782108611861286BD
:103B50001386089580E090E0FC01EE0FFF1FEE0F4A
:103B6000FF1FE259FC4F40815181628173814536CC
:103B700051056105710568F0408151816281738151
:103B800044565109610971094083518362837383EB
:103B900004C0108211821282138201968330910533
:103BA000D9F60895833060F4E82FF0E0EE0FFF1FA0
:103BB000EE0FFF1FE259FC4F4083518362837383F2
:103BC0000895833098F4E82FF0E0EE0FFF1FEE0F1A
:103BD000FF1FE259FC4F408151816281738181E076
:103BE000452B462B472B19F080E0089581E008957E
:103BF0008091110308958093110308958AE793E05B
:103C00000895CF92DF92EF92FF920F931F93CF937D
:103C1000DF93CDB7DEB72E970FB6F894DEBF0FBE99
:103C2000CDBFC982DA82EB82FC820D831E832F8393
:103C3000388749875A876B877C878D879E878EE078
:103C4000FE013196AAE7B3E001900D928A95E1F763
:103C50002E960FB6F894DEBF0FBECDBFDF91CF9189
:103C60001F910F91FF90EF90DF90CF900895CF9329
:103C700080E00E94BF07C82F81E00E94BF0790919B
:103C80000201C917A1F090911203C11105C09A3029
:103C900028F0109202010DC0933030F4909112037D
:103CA0009F5F9093120305C0C093020102C010925F
:103CB000120390910101891789F0811105C080914B
:103CC00013038A3068F404C080911203833040F4F7
:103CD000809113038F5F8093130302C0109213032C
:103CE000809102018093010180910101811107C03F
:103CF00080910201811103C01092030115C08091CF
:103D00000101813021F490910201992359F08091B1
:103D10000101813031F480910201813011F482E09F
:103D200001C083E080930301CF9108958091030146
:103D30000895CF93DF93EC01FC0170968BE0DF01D7
:103D40001D928A95E9F782E08C83898783E08E87CC
:103D500061E0CE01019675D2882361F061E0CE0169
:103D600006966FD2882331F061E0CE010B96DF9189
:103D7000CF9167C280E0DF91CF9108950F931F9399
:103D8000CF9320918C032430F9F4FC010489158928
:103D900026893789012B022B032BB1F0C62F818195
:103DA0008F708093E9008091E80085FF04C0C09384
:103DB000F10080E00AC08091E8008E778093E800EF
:103DC0009CD28823A1F301C082E0CF911F910F9173
:103DD0000895FB01682F84859585D0DF21E030E0D0
:103DE000811102C020E030E088279927821B930BC5
:103DF000089520918C03243021F5FC0144895589D4
:103E000066897789452B462B472BD9F081818F70A6
:103E10008093E9008091F200882389F09091E80076
:103E20008091E8008E778093E80095FD08C065D208
:103E3000811108C08091E8008E778093E80080E0CF
:103E4000089582E0089520918C03243089F4FC01C8
:103E50004489558966897789452B462B472B41F044
:103E600021812F702093E9002091E80020FDC1CF2F
:103E7000089520918C03243019F08FEF9FEF08955F
:103E8000FC014489558966897789452B462B472B48
:103E9000A1F386818F708093E9008091E80082FF12
:103EA000ECCF8091F200882321F02091F10030E0E6
:103EB00002C02FEF3FEF8091F200811105C0809189
:103EC000E8008B778093E800C9010895FC018485A0
:103ED0009585CFDF97FF02C08EEF9FEF0895FB011E
:103EE0002EE0DB011D922A95E9F723E0238329EEDA
:103EF0003EE13187208726E63FE133872287958799
:103F0000848708950895CF93DF93EC018091E800B2
:103F100083FFA6C0888190E02091910330919203A5
:103F20002817390709F09CC080918E03813261F017
:103F300020F4803209F43EC093C0823209F46CC090
:103F4000833209F47DC08CC080918D03813A09F0E1
:103F500087C08091E800877F8093E8008091E80027
:103F600080FFFCCF8C899D89AE89BF898093F10049
:103F7000492F5A2F6B2F77274093F100AD01662709
:103F800077274093F1008B2F9927AA27BB2780938F
:103F9000F100888D8093F100898D8093F1008A8DE6
:103FA0008093F1008091E8008E778093E800DF91A4
:103FB000CF9184C180918D03813209F051C08091ED
:103FC000E800877F8093E8008091E80082FD05C0CB
:103FD00080918C038111F8CF43C03091F100209182
:103FE000F1009091F1008091F1003C8B2D8B9E8B24
:103FF0008F8B8091F100888F8091F100898F809163
:10400000F1008A8F8091E8008B778093E80056D189
:10401000CE01DF91CF9176CF80918D03813201F572
:104020008091E800877F8093E80048D180918F03DA
:1040300090919003998B888BCE01DF91CF9129C508
:1040400080918D03813261F48091E800877F8093B5
:10405000E80034D160918F03CE01DF91CF9152CF30
:10406000DF91CF9108952091930330919403261707
:10407000370748F06115710539F42091E8002E7773
:104080002093E80001C0B901FC0120E06115710531
:1040900061F180918C038823D9F18530D9F1809129
:1040A000E80083FD39C08091E80082FD2BC080913B
:1040B000E80080FFEBCF8091F20090E06115710580
:1040C00051F08830910538F421912093F10061502E
:1040D00071090196F3CF21E0089709F020E0809163
:1040E000E8008E778093E800D1CF2111D2CF0AC0AB
:1040F00080918C03882361F0853061F08091E80025
:1041000083FD0AC08091E80082FFF2CF80E008952D
:1041100082E0089583E0089581E00895209193035B
:10412000309194032617370748F06115710539F46B
:104130002091E8002E772093E80001C0B901FC012E
:1041400020E06115710579F180918C03882309F4D1
:104150003DC0853009F43CC08091E80083FD3AC041
:104160008091E80082FD2CC08091E80080FFE9CFBB
:104170008091F20090E06115710559F08830910549
:1041800040F424912093F100319661507109019619
:10419000F2CF21E0089709F020E08091E8008E77C7
:1041A0008093E800CECF2111CFCF0AC080918C033D
:1041B000882361F0853061F08091E80083FD0AC0BA
:1041C0008091E80082FFF2CF80E0089582E00895B8
:1041D00083E0089581E00895982F953068F59093D5
:1041E000E900981739F07091EC002091ED005091A2
:1041F000F00003C0242F762F50E021FD02C09F5F06
:10420000ECCF3091EB003E7F3093EB003091ED002E
:104210003D7F3093ED003091EB0031603093EB0047
:104220007093EC002093ED005093F0002091EE008D
:1042300027FDE5CF80E008958F708093E90081E04D
:1042400008950F931F93CF93DF93062FEC0110E097
:10425000101771F19881911103C01F5F2596F8CF57
:104260002C81A981BA816B81892F8F70853010F0E4
:1042700080E01FC0223010F442E001C046E0E8E0D8
:10428000F0E020E0EA17FB0720F42F5FEE0FFF1F9E
:10429000F9CF2295207F422B6295660F660F607CD6
:1042A000991F9927991F692B97DF8111D6CFE0CFEE
:1042B00081E0DF91CF911F910F91089580918D033F
:1042C00087FF11C08091E80082FD05C080918C03BA
:1042D0008111F8CF11C08091E8008B770BC08091DD
:1042E0008C03882349F08091E80080FFF8CF80910B
:1042F000E8008E778093E80008952091E4003091E3
:10430000E50095E64091EC00842F817040FF23C0CA
:104310008091E80080FD1DC080918C03882399F076
:10432000853099F08091EB0085FD11C04091E4004B
:104330005091E5002417350729F3915011F09A01A7
:10434000E1CF84E0089582E0089583E0089581E05C
:10435000089580E008954091E80042FFDDCF089580
:1043600041D043D08091D8008F778093D80080913E
:10437000D80080688093D8008091D8008F7D80938A
:10438000D80084E089BD86E089BD09B400FEFDCF78
:1043900010928C031092880310928A031092890362
:1043A00042E060E080E018DF8091E1008E7F809342
:1043B000E1008091E20081608093E2008091E20060
:1043C00088608093E2008091E0008E7F8093E0001F
:1043D0000895E3E6F0E080818E7F808381E0809322
:1043E0008B03BECF1092E20008951092E100089571
:1043F0001F920F920FB60F9211242F933F934F935A
:104400005F936F937F938F939F93AF93BF93EF933C
:10441000FF938091E10082FF0AC08091E20082FF59
:1044200006C08091E1008B7F8093E10025D28091CE
:10443000E10080FF17C08091E20080FF13C08091EF
:10444000E2008E7F8093E2008091E20080618093A1
:10445000E2008091D80080628093D80019BC10924D
:104460008C030FD38091E10084FF2FC08091E20084
:1044700084FF2BC084E089BD86E089BD09B400FEBD
:10448000FDCF8091D8008F7D8093D8008091E1008E
:104490008F7E8093E1008091E2008F7E8093E20026
:1044A0008091E20081608093E200809188038823FC
:1044B00011F084E007C08091E30087FD02C081E035
:1044C00001C083E080938C03DAD28091E10083FF06
:1044D00027C08091E20083FF23C08091E100877FA5
:1044E0008093E10082E080938C0310928803809196
:1044F000E1008E7F8093E1008091E2008E7F8093C7
:10450000E2008091E20080618093E20042E060E09E
:1045100080E062DE8091F00088608093F000ACD192
:10452000FF91EF91BF91AF919F918F917F916F918B
:104530005F914F913F912F910F900FBE0F901F9061
:1045400018951F920F920FB60F9211242F933F933D
:104550004F935F936F937F938F939F93AF93BF938B
:10456000CF93DF93EF93FF93C091E900CF708091D9
:10457000EC00D82FD17080FDD0E81092E900809136
:10458000F000877F8093F00078941ED01092E900AD
:104590008091F00088608093F000CD2BCF70C093A5
:1045A000E900FF91EF91DF91CF91BF91AF919F9182
:1045B0008F917F916F915F914F913F912F910F90CC
:1045C0000FBE0F901F9018951F93CF93DF93CDB719
:1045D000DEB7AA970FB6F894DEBF0FBECDBFEDE8E9
:1045E000F3E08091F100819323E0E539F207C9F708
:1045F0004DD28091E80083FF27C180918D03909177
:104600008E03953009F478C030F4913081F168F070
:10461000933069F119C1983009F4E3C0993009F475
:10462000F2C0963009F010C189C0803881F082381C
:1046300009F00AC1809191038F708093E900809105
:10464000EB0085FB882780F91092E90006C0809175
:10465000890390918A03911182609091E800977F7D
:104660009093E8008093F1001092F100C5C0282FCC
:104670002D7F09F0E9C0882319F0823061F0E4C091
:1046800080918F03813009F0DFC0933009F080E022
:1046900080938A032BC080918F03811127C0809162
:1046A00091038F7009F4D0C08093E9002091EB0052
:1046B00020FF1CC0933021F48091EB00806214C075
:1046C0009091EB0090619093EB0021E030E0A90124
:1046D00002C0440F551F8A95E2F74093EA001092FA
:1046E000EA008091EB0088608093EB001092E90073
:1046F0008091E800877F83C08111A6C010918F034D
:104700001F778091E3008078812B8093E300809174
:10471000E800877F8093E800D1DD8091E80080FF8A
:10472000FCCF8091E30080688093E300111102C008
:1047300082E001C083E080938C0386C08058823081
:1047400008F082C080918F03909190038C3D53E0DC
:10475000950771F583E08A838AE289834FB7F894DD
:10476000DE01139620E03EE051E2E32FF0E05093AB
:104770005700E49120FF03C0E295EF703F5FEF70B8
:104780008E2F90E0EA3010F0C79601C0C0968D934E
:104790009D932F5F243149F74FBF8091E800877FB9
:1047A0008093E8006AE270E0CE0101965CDC13C001
:1047B000AE014F5F5F4F609191030E942707BC01DC
:1047C000892B09F441C09091E800977F9093E8000D
:1047D00089819A81A3DC8091E8008B778093E8003F
:1047E00033C0803889F58091E800877F8093E800A6
:1047F000809188038093F1008091E8008E77809308
:10480000E8005CDD21C081111FC080918F03909171
:10481000900399270297C4F48091E800877F8093E2
:10482000E80080918F038093880348DD809188039E
:10483000811106C08091E30087FD02C081E001C0C4
:1048400084E080938C031FD18091E80083FF0AC02D
:104850008091E800877F8093E8008091EB00806280
:104860008093EB00AA960FB6F894DEBF0FBECDBFC3
:10487000DF91CF911F9108950895CF9380918C037C
:10488000882399F0C091E900CF709091EC00892FB6
:10489000817090FD80E8C82B1092E9008091E800BB
:1048A00083FD92DECF70C093E900CF910895089503
:1048B0000C94530ADCD94ED90FD90E94FA090E94F0
:1048C000F51B0C940A0C0E94BD1804C8089587E2D9
:1048D00091E0CFDA97FF0E94A90E87E291E0B3DA68
:1048E000CCCFCF93DF93EC010E9463092A813B81F7
:1048F0004A815B81452BE1F04881598184179507F6
:1049000030F448815981841B950B019704C048817C
:104910005981841B950B2817390750F481E08C834B
:10492000288139818A819B81820F931F9983888393
:10493000DF91CF9108950F931F93CF93DF9304E0FE
:1049400011E0C0E0D0E0C801CCDFCE0167E070E04C
:10495000A1D0FC01EC5FFE4F8481882381F085812A
:104960009681892B21F00580F681E02D0995CE01F5
:1049700067E070E08FD08C5F9E4FFC01148221961F
:10498000095F1F4FC530D105F1F6DF91CF911F911F
:104990000F919DCF84B7877F84BF0FB6F894A895F9
:1049A00080916000886180936000109260000FBE6B
:1049B00090E080E80FB6F8948093610090936100D6
:1049C0000FBE07DD0E94570781E00E94DE0781E0ED
:1049D0000E94CF0761E080E00E946C0761E081E007
:1049E0000E946C0761E082E00E946C070C94E8076B
:1049F000CF93DF93CDB7DEB72E970FB6F894DEBF17
:104A00000FBECDBFC7DF0E94891BBE016F5F7F4F06
:104A100087E291E064DAC980DA80EB80FC800D8166
:104A20001E812F81388549855A856B857C858D85CA
:104A30009E85E7D878940E9462090E94130A0E941A
:104A4000FC1C0E94451C0E94ED1B0E94360A3CD8AB
:104A50000E94ED0A0E94F2096ED80E94541C0E9426
:104A60009A180E94CC060E94A00E80E00E94F00AD4
:104A70000E94280B60DF2BDF0E947511FBCF81E0C5
:104A8000BAC880E0B8C887E291E053C987E291E0F4
:104A90003ACA08950024552704C0080E591F880FEC
:104AA000991F009729F076956795B8F37105B9F7C6
:104AB000802D952F0895EE27FF27AA27BB2708C032
:104AC000A20FB31FE41FF51F220F331F441F551FF2
:104AD000969587957795679598F37040A9F7009715
:104AE00099F7BD01CF010895AA1BBB1B51E107C077
:104AF000AA1FBB1FA617B70710F0A61BB70B881F6E
:104B0000991F5A95A9F780959095BC01CD010895FC
:104B1000A1E21A2EAA1BBB1BFD010DC0AA1FBB1FC1
:104B2000EE1FFF1FA217B307E407F50720F0A21B33
:104B3000B30BE40BF50B661F771F881F991F1A94A0
:104B400069F760957095809590959B01AC01BD01CA
:104B5000CF010895052E97FB16F400940FD057FD52
:104B600005D0D6DF07FC02D046F408C0509540952A
:104B7000309521953F4F4F4F5F4F08959095809509
:104B8000709561957F4F8F4F9F4F0895FB01DC011A
:104B90008D91059080190110D9F3990B0895A0E02B
:104BA000B0E0E4EDF5E207C3AE01475F5F4F6F8110
:104BB00078858D819E8143D0E2E019C3A0E0B0E00A
:104BC000E3EEF5E2F6C20F811885F8018381886073
:104BD0008383AE01455F5F4F69857A85C8012FD019
:104BE000F8012381277F2383E4E0FFC2EF92FF9245
:104BF0000F931F93CF93DF93DB0113962C9121FF2B
:104C000018C08B017C01D0E0C0E0F70181917F01E9
:104C1000882361F0D8011896ED91FC911997B8019D
:104C20000995892B91F3DFEFCFEFEFCF8D2F9C2FDD
:104C300002C08FEF9FEFCDB7DEB7E6E0D4C2ABE0A6
:104C4000B0E0E4E2F6E2A7C26C017B018A01FC015C
:104C500017821682838181FFC0C1CE0101963C017B
:104C6000F6019381F70193FD859193FF81917F0177
:104C7000882309F4AEC1853239F493FD859193FF01
:104C800081917F01853221F4B60190E0C1D1E8CF56
:104C9000912C212C312CFFE1F315E0F08B3279F0CF
:104CA00038F4803279F08332A9F4232D206110C0CA
:104CB0008D3259F0803371F4232D216009C0832D8A
:104CC0008260382EE32DE46022C0F32DF86025C009
:104CD000322E27C037FC2DC020ED280F2A3088F453
:104CE00036FE06C0892D6AE04DD2922E980E19C06C
:104CF000822D6AE047D2222E280E832D8062382E24
:104D000010C08E3231F436FC64C1E32DE0643E2ED7
:104D100008C08C3621F4F32DF0683F2E02C088368F
:104D200041F4F70193FD859193FF81917F018111FA
:104D3000B2CF982F9F7D9554933028F40C5F1F4F6E
:104D40002FE329830DC0833631F0833771F083352B
:104D500009F055C020C0F801808189830E5F1F4F84
:104D600088248394912C530112C02801F2E04F0E45
:104D7000511CF801A080B18036FE03C0692D70E09F
:104D800002C06FEF7FEFC50138D14C018201F32DD6
:104D9000FF773F2E15C0280122E0420E511CF8017A
:104DA000A080B18036FE03C0692D70E002C06FEFB5
:104DB0007FEFC50117D14C01F32DF0683F2E820122
:104DC00033FC19C0822D90E088169906A0F4B60134
:104DD00080E290E01DD12A94F5CFF50137FC859152
:104DE00037FE81915F01B60190E012D121102A9423
:104DF00021E0821A91088114910479F7E1C0843688
:104E000011F0893639F5F80137FE07C060817181EC
:104E1000828193810C5F1F4F08C060817181072ED2
:104E2000000C880B990B0E5F1F4FF32DFF763F2E62
:104E300097FF09C090958095709561957F4F8F4F32
:104E40009F4FF0683F2E2AE030E0A3011DD1882E4D
:104E5000861844C0853731F4232D2F7EB22E2AE0E8
:104E600030E025C0932D997FB92E8F36C1F018F40C
:104E7000883579F0AEC0803719F0883721F0A9C0A5
:104E8000E92FE061BE2EB4FE0DC0FB2DF460BF2EF5
:104E900009C034FE0AC0292F2660B22E06C028E0C1
:104EA00030E005C020E130E002C020E132E0F8014E
:104EB000B7FE07C060817181828193810C5F1F4FB3
:104EC00006C06081718180E090E00E5F1F4FA301FA
:104ED000DBD0882E8618FB2DFF773F2E36FE0DC0C7
:104EE000232D2E7FA22E891458F434FE0BC032FCE1
:104EF00009C0832D8E7EA82E05C0B82CA32C03C01C
:104F0000B82C01C0B92CA4FE0FC0FE01E80DF11DA4
:104F10008081803321F49A2D997EA92E09C0A2FEAA
:104F200006C0B394B39404C08A2D867809F0B39474
:104F3000A3FC10C0A0FE06C0B21480F4280C922C72
:104F40009B180DC0B21458F4B60180E290E060D016
:104F5000B394F8CFB21418F42B1802C0982C212C5B
:104F6000A4FE0FC0B60180E390E052D0A2FE16C0AE
:104F7000A1FC03C088E790E002C088E590E0B6019C
:104F80000CC08A2D867851F0A1FE02C08BE201C0D0
:104F900080E2A7FC8DE2B60190E03AD0891430F4AB
:104FA000B60180E390E034D09A94F8CF8A94F3016C
:104FB000E80DF11D8081B60190E02AD08110F6CF76
:104FC000222009F44DCEB60180E290E021D02A944F
:104FD000F7CFF6018681978102C08FEF9FEF2B9666
:104FE000E2E1F5C0FC010590615070400110D8F776
:104FF000809590958E0F9F1F0895FC016150704021
:1050000001900110D8F7809590958E0F9F1F0895FD
:105010000F931F93CF93DF93FB01238121FD03C0E7
:105020008FEF9FEF2CC022FF16C04681578124814D
:1050300035814217530744F4A081B1819D012F5F50
:105040003F4F318320838C93268137812F5F3F4FE1
:105050003783268314C08B01EC01FB010084F185AA
:10506000E02D0995892BE1F6D80116968D919C913A
:105070001797019617969C938E931697CE01DF9102
:10508000CF911F910F910895FA01AA27283061F15D
:10509000203191F1E8946F936E7F6E5F7F4F8F4F59
:1050A0009F4FAF4FB1E040D0B4E03ED0670F781FC4
:1050B000891F9A1FA11D680F791F8A1F911DA11DAD
:1050C0006A0F711D811D911DA11D22D009F46894E4
:1050D0003F91062E000C3019000C000C3019305D89
:1050E0003193CEF6CF010895462F4770405D41932E
:1050F000B3E00FD0C9F7F6CF462F4F70405D4A336B
:1051000018F0495D31FD4052419302D0A9F7EACF32
:10511000B4E0A6959795879577956795BA95C9F761
:1051200000976105710508959B01AC010A2E069454
:105130005795479537952795BA95C9F7620F731F0D
:10514000841F951FA01D0895F999FECF92BD81BDC2
:10515000F89A992780B50895262FF999FECF92BD28
:1051600081BDF89A019700B4021639F01FBA20BD2C
:105170000FB6F894FA9AF99A0FBE08950196272F60
:10518000ECDFEACF002480FD060E660F11F0869555
:10519000D1F7802D08952F923F924F925F926F9298
:1051A0007F928F929F92AF92BF92CF92DF92EF92B7
:1051B000FF920F931F93CF93DF93CDB7DEB7CA1B38
:1051C000DB0B0FB6F894DEBF0FBECDBF09942A8863
:1051D000398848885F846E847D848C849B84AA840B
:1051E000B984C884DF80EE80FD800C811B81AA8198
:1051F000B981CE0FD11D0FB6F894DEBF0FBECDBF63
:08520000ED010895F894FFCFC1
:10520800630101030000010000662400000A000099
:10521800582400006400005A24000032000063246F
:105228000000E80300572400831000000104100068
:1052380000018208000001000000000000000000DA
:1052480000004F4B3A25690A0D005357495443480B
:1052580020256C752052454C45415345440A0D00A4
:1052680053574954434820256C7520505245535391
:1052780045440A0D00444953504C41592042544E6C
:105288002052454C45415345440A0D00444953506A
:105298004C41592042544E20505245535345440ADC
:1052A8000D005741544552204C4F57204C45564508
:1052B8004C204C4F57200A0D005741544552204C62
:1052C8004F57204C4556454C20484947480A0D0041
:1052D80057415445522048494748204C4556454C6B
:1052E800204C4F570A0D0057415445522048494712
:1052F80048204C4556454C20484947480A0D004F20
:105308004B3A425245574F4E450A0D004552523AC4
:10531800425245574552520A0D004F4B3A425245A8
:105328005754574F0A0D004552523A425245574575
:10533800525220434E540A0D0055534147453A20D6
:10534800274D414B45204F4E45435550272C20278C
:105358004D414B452054574F4355502720666F7297
:10536800206F6E65206F722074776F20637570737D
:105378000A0D004F4B3A504F574552444F574E0A6B
:105388000D004F4B3A504F5745524F4E0A0D004FA4
:085398004B3A256C640A0D007C
:00000001FF
