S0170000436F6666655F4D616B65725F4D4B492E737265639B
S1130000B6C40000D1C40000CFC40000CDC40000B9
S1130010CBC40000C9C40000C7C40000C5C40000AC
S1130020C3C40000C1C40000BFC400000C94221B60
S11300300C94CB1BB9C40000B7C4000040C7000037
S113004034C7000028C70000AFC40000E4C60000A5
S1130050ABC40000A9C40000A7C40000ADC70000E1
S11300606BC70000A1C400009FC400009DC4000031
S11300709BC400001C034C005500460041002000B6
S11300804300440043002000440065006D006F00FD
S1130090000018034400650061006E002000430066
S11300A061006D0065007200610000000403090432
S11300B009023E00020100C03209040000010202EC
S11300C00100052400100104240206052406000191
S11300D0070582030800FF09040100020A0000006A
S11300E0070504021000050705830210000512012C
S11300F0100102000008EB03442001000102DC01AE
S11301004F4B0A0D004552523A5041525345520A40
S11301100D004552523A504152414D0A0D0055537B
S11301204147453A2027474554204543484F272C0B
S11301302027534554204543484F205858585827A2
S113014020776974682030203D204F464620616E38
S11301506420656C7365204F4E0A0D00555341476A
S1130160453A20274745542053544259544D50276B
S11301702C20275345542053544259544D50205851
S11301805858580A0D0055534147453A20275345BE
S113019054204155544F4F4646204F4E272C20277C
S11301A0534554204155544F4F4646204F46462709
S11301B0206F722027534554204155544F4F4646D3
S11301C0204F464627200A0D0055534147453A2003
S11301D027474554204C45564C4527206F7220270D
S11301E0534554204C4556454C20585858582720C0
S11301F0776974682072616E6765206F66203020AD
S1130200746F20320A0D0055534147453A20274761
S1130210455420424F494C4552544D502720746F49
S11302202072656164207468652063757272656EFE
S11302307420626F696C65722074656D7020696EDC
S113024020312F3130302064656772656520432E7C
S11302500A0D004F4B3A25690A0D00555341474595
S11302603A2027474554204355525057522720746B
S11302706F207265616420746865206375727265AD
S11302806E7420706F776572207573656420696E73
S1130290206D410A0D004F4B3A25690A0D00555354
S11302A04147453A20274745542043485052472761
S11302B0206F7220275345542043485052472058FA
S11302C05858582720776974682072616E676520D2
S11302D06F66203020746F20370A0D004F4B3A258B
S11302E0690A0D0055534147453A20274745542094
S11302F050524727206F72202753455420505247AD
S113030020585858582720776974682072616E679E
S113031065206F66203020746F20370A0D004F4B24
S11303203A25690A0D0055534147453A2027474568
S113033054205741495427206F7220275345542095
S113034057414954205858585827207769746820D1
S113035072616E6765206F66203020746F203635B9
S11303603533350A0D004F4B3A25690A0D005553B4
S11303704147453A20274745542057415445522781
S1130380206F72202753455420574154455220581A
S11303905858582720776974682072616E67652001
S11303A06F66203020746F2036353533350A0D00E2
S11303B04F4B3A25690A0D0055534147453A2027CA
S11303C0474554205052574127206F7220275345E8
S11303D05420505257412058585858272077697450
S11303E0682072616E6765206F66203020746F200C
S11303F036353533350A0D0055534147453A2027E4
S11304004745542054454D5027206F7220275345AB
S1130410542054454D502058585858272077697413
S1130420682072616E6765206F66203020746F20CB
S1130430393939390A0D004F4B3A25690A0D004EF6
S11304406F20286D6F72652920626F74746C6573F8
S1130450206F662062656572206F6E207468652067
S113046077616C6C2C0A0D4E6F20286D6F726529B4
S113047020626F74746C6573206F662062656572A8
S11304802E0A0D476F20746F207468652073746F93
S1130490726520616E642062757920736F6D6520CA
S11304A06D6F72652C0A0D4E696E6574792D6E69D7
S11304B06E6520626F74746C6573206F662062656C
S11304C06572206F6E207468652077616C6C2E0AEB
S11304D00D00256920426F74746C65287329206FA0
S11304E0662062656572206F6E207468652077618E
S11304F06C6C2C20256920626F74746C65287329D8
S1130500206F6620626565720A0D54616B65206F09
S11305106E6520646F776E20616E64207061737302
S11305202069742061726F756E642C0A0D25692030
S1130530626F74746C65287329206F662062656528
S113054072206F6E207468652077616C6C0A0D00F0
S113055053656E736548614A6F202D2048656C7041
S11305600A0D2D2D2D2D2D2D2D2D2D2D2D2D2D2DFA
S11305702D2D2D2D2D2D2D2D2D2D2D2D2D2D2D2DA7
S11305802D2D2D2D2D2D2D2D2D2D2D2D2D2D2D2D97
S11305902D2D2D2D2D2D2D2D2D2D2D2D2D2D2D2D87
S11305A02D2D2D2D2D2D2D2D2D2D2D2D2D2D2D2D77
S11305B02D2D2D2D2D2D2D2D2D2D2D2D0A0D55733C
S11305C065205345542C204745542C20434D44204A
S11305D0616E642048454C500A0D436F6D6D616E29
S11305E06473206172653A0A0D54454D50202D20E4
S11305F0536574206F72204765742050726F672EA4
S11306002054656D702E0A0D505247202D205365DD
S113061074206F72204765742063757272656E74FE
S11306202050726F672E0A0D4348505247202D20E8
S1130630536574206F722047657420746865206365
S1130640757272656E742050726F672E20746F20FD
S11306506D6F646966790A0D50525741202D2053FD
S11306606574206F72204765742074686520616D1D
S11306706F756E74206F6620776174657220757370
S1130680656420746F2077657420746865207061D8
S1130690640A0D5741544552202D20536574206F30
S11306A072204765742074686520616D6F756E747F
S11306B0206F662077617465722075736564207499
S11306C06F20627265772074686520636F66666563
S11306D0650A0D57414954202D20536574206F72CB
S11306E0204765742074686520616D6F756E742091
S11306F06F662074696D6520746F2077616974205A
S11307006265747765656E2077657420746865200A
S113071070616420616E64206D616B65207468652E
S113072020636F666665650A0D4355525057522023
S11307302D20476574207468652063757272656E38
S11307407420706F77657220757365640A0D424F6B
S1130750494C4552544D50202D20476574207468EF
S1130760652063757272656E7420626F696C657260
S11307702074656D702E0A0D4C4556454C202D2075
S1130780536574206F722047657420746865206314
S1130790757272656E742066696C6C206C65766522
S11307A06C206F6620746865204375700A0D41558E
S11307B0544F4F46202D20536574206F7220476597
S11307C074207468652054696D6520696E204D69D4
S11307D06E7574657320756E74696C6C20417574E4
S11307E06F204F66660A0D5354425954454D5020AC
S11307F02D20536574206F722047657420746865DA
S1130800207374616E6462792074656D702E0A0DB4
S11308104D414B4520284F4E45435550202C2054E4
S1130820574F43555029207573656420746F206DAC
S1130830616B6520636F666665650A0D4543484FC5
S1130840202D20656E61626C65206F72206469736F
S113085061626C652073657269616C204543484F21
S11308600A0D466F72206D6F72652048656C7020AA
S1130870747970652048454C50203C434F4D4D41A0
S11308804E443E0A0D2D2D2D2D2D2D2D2D2D2D2D8E
S11308902D2D2D2D2D2D2D2D2D2D2D2D2D2D2D2D84
S11308A02D2D2D2D2D2D2D2D2D2D2D2D2D2D2D2D74
S11308B02D2D2D2D2D2D2D2D2D2D2D2D2D2D2D2D64
S11308C02D2D2D2D2D2D2D2D2D2D2D2D2D2D2D2D54
S11308D02D2D2D2D2D2D2D2D2D2D2D2D2D2D2D2D44
S11308E00A0D004F4646004F4E0054574F43555093
S11308F0004F4E4543555000504F574552004D410F
S11309004B45004543484F005354425954454D50BC
S1130910004155544F4F4646004C4556454C004205
S11309204F494C4552544D50004355525057520074
S113093043485052470050524700574149540057CA
S11309404154455200505257410054454D500042C5
S11309504545520048454C5000434D4400474554DA
S113096000534554002563006548614A6F00112413
S11309701FBECFEFD4E0DEBFCDBF11E0A0E0B1E0F9
S1130980E6E4F4E402C005900D92A03DB107D9F766
S113099022E0A0EDB1E001C01D92A13CB207E1F755
S11309A00E942F1E0C9421222BCB8F9387EF0000E3
S11309B00197F1F78F9108953D983C9A449A459890
S11309C008953D9AF2DF1DC008954498EEDF3D98E6
S11309D0ECDF449AEADF3D9AE8DF13C00895082E5D
S11309E03D9AE3DF802D0DD0882311F002D0F8CF9B
S11309F0089544983D9AD9DF449AD7DF3D98D5CFDE
S1130A0008950894881F01C0880F59F0449818F479
S1130A1000003D9802C03D9A00C0C7DF449AC5DF7C
S1130A20F3CF44983D98C1DF449A8827359981E0F3
S1130A30BCDF99270895882701C081E071E04498BC
S1130A403D98B3DF449AB1DFFFCF88943599089479
S1130A50771FA8F74498813011F03D9801C03D9A62
S1130A60A4DF449AFFCFA1DF872F99270895292F68
S1130A7033272230310559F02330310569F0213014
S1130A803105E9F482E190E02EEE30E01CC08EE303
S1130A9090E020EB30E017C099278130910549F0B0
S1130AA028F0029761F4E4E7F0E005C0ECEAF0E036
S1130AB002C0E2E9F0E0849190E09F0104C080E08C
S1130AC090E020E030E0FA01318320830895599AC0
S1130AD0519A589A509A5F9A579A2C9A249A2E9A15
S1130AE0269A2098289A25982D9A27982F9A3E98E6
S1130AF0469A3F98479A0895813081F018F08230E1
S1130B00C1F00895611102C05F980895613011F435
S1130B105F9A08958BB180588BB90895611102C012
S1130B202C980895613011F42C9A089595B180E1C0
S1130B300AC0611102C02E980895613011F42E9AF2
S1130B40089595B180E4892785B90895813069F0C5
S1130B5038F0823071F483B186FB882780F90895D8
S1130B6089B1881F8827881F089583B18295817071
S1130B70089581E00895813059F038F0823069F4A5
S1130B8083B1881F8827881F089583B181700895D1
S1130B9083B185FB882780F9089581E0089588232F
S1130BA039F0813051F486B1881F8827881F089551
S1130BB086B186FB882780F9089581E00895811124
S1130BC002C0599A08955998089529B121FB88279C
S1130BD080F990E021E0822781700895811102C09C
S1130BE0589A08955898089589B180958170089508
S1130BF083C1CF93DF93C82F7BD181E090D1C11102
S1130C0002C080EE01C080EA8AD1C82FD0E0DC2F78
S1130C10CC278AEA84D1C82B6DD1CE0124E0880F79
S1130C20991F2A95E1F7DF91CF9108953C98449854
S1130C303498089586B18295817008958430A1F125
S1130C4048F4813011F190F0823009F44AC08330C5
S1130C50C9F10895863009F462C008F451C08730A0
S1130C6009F46CC0883009F478C008958091D001EB
S1130C709091D101611102C080627CC0623019F48C
S1130C8020E2822777C08F7D75C08091D00190913A
S1130C90D101611102C084606DC0623019F424E096
S1130CA0822768C08B7F66C08091D0019091D1016A
S1130CB0611102C080685EC0623011F480585AC06D
S1130CC08F7758C08091D0019091D101611102C0F9
S1130CD0806450C0623019F420E482274BC08F7BBB
S1130CE049C08091D0019091D101611102C080610D
S1130CF041C0623019F420E182273CC08F7E3AC0A3
S1130D008091D0019091D101611102C0886032C0FC
S1130D10623019F428E082272DC0877F2BC0809190
S1130D20D0019091D101611102C0816023C0623071
S1130D3019F421E082271EC08E7F1CC08091D0014F
S1130D409091D101611102C0826014C0623019F423
S1130D5022E082270FC08D7F0DC08091D001909139
S1130D60D101611102C0906805C0623011F490583D
S1130D7001C09F779093D1018093D0010895E0ED55
S1130D80F1E0808191819078918380838081918149
S1130D90982F882790952081318188279F77822BEF
S1130DA0932B918380830895EADF2091D0013091C1
S1130DB0D1018091D2019091D30128173907A1F074
S1130DC0FBDD8EE7FEDD81110EC08091D00119DEBE
S1130DD08091D10116DE8091D0019091D101909340
S1130DE0D3018093D20105DE21CF893090F4409164
S1130DF0D2015091D30121E030E002C0220F331F11
S1130E008A95E2F72423352381E0232B19F080E02F
S1130E10089581E008951F920F920FB60F92112446
S1130E202F933F934F935F936F937F938F939F93EE
S1130E30AF93BF93EF93FF938091D4019091D50129
S1130E4001969093D5018093D4018091D40190911F
S1130E50D50180FD04C081E0CCDE0E946D16809136
S1130E60D4019091D5018F779927892B19F480E0CB
S1130E70C0DEEAD0FF91EF91BF91AF919F918F9126
S1130E807F916F915F914F913F912F910F900FBE82
S1130E900F901F9018951F920F920FB60F92112466
S1130EA00F900FBE0F901F9018951F920F920FB6C0
S1130EB00F9211240F900FBE0F901F9018951F9240
S1130EC00F920FB60F9211240F900FBE0F901F9028
S1130ED0189582E084BD93E095BD9AEF97BD809309
S1130EE06E000895F6CF8091D4019091D5010895B4
S1130EF042980895429A0895ECECF0E01182108231
S1130F00429A3A9A5D9A559A80EC8093CA0084E09A
S1130F1090E09183808388E18093C9000895909143
S1130F20C80095FFFCCF8093CE008091C80087FF56
S1130F30FCCF8091CE0008951F920F920FB60F92AE
S1130F4011242F933F934F935F936F937F938F93CA
S1130F509F93AF93BF93EF93FF938091D601882320
S1130F60A1F08091D60181508093D601E091D70100
S1130F70F091D8010190F081E02D309711F080813B
S1130F8001C08AEA8093CE0006C08091C9008F71A7
S1130F908093C900AFDFFF91EF91BF91AF919F9113
S1130FA08F917F916F915F914F913F912F910F900E
S1130FB00FBE0F901F9018951F920F920FB60F92AD
S1130FC011248F939F93AF93BF93EF93FF93E0917B
S1130FD0D701F091D801A281B3818091CE001097FE
S1130FE031F08C9382819381019693838283FF9164
S1130FF0EF91BF91AF919F918F910F900FBE0F9082
S11310001F90189580E00E94BA151092DA01109290
S1131010D901089536D02091D9013091DA0182178F
S1131020930714F480E001C081E0C9CD9093DA0104
S11310308093D901089525C0C8DD91E0813009F479
S113104090E0892F0895089590934102809340027F
S1131050A0E0B0E0BC01CD016C567140810991095A
S113106024E630E040E050E00E947A1E20ED31E0BA
S113107040E050E00E94C91E309343022093420294
S113108008958091420290914302089520E030E057
S113109041E0A2E0C90165E070E00E94691EFC0124
S11310A0E552FE4F12824383A08341832F5F3F4F5B
S11310B02430310579F70895833018F0833011F422
S11310C0B9CD59CD81E008951F93CF93DF93C0E04C
S11310D0D0E011E08C2FF0DF282FCE0165E070E026
S11310E00E94691EFC01E552FE4F3381231731F043
S11310F0128223832481211124C00DC03281353012
S113110021F421831083148316C02281263040F0F9
S11311102481211105C0FC01E552FE4F108211C04B
S1131120CE0165E070E00E94691EFC01E552FE4FAD
S113113022812F3F31F022812F5FFC01E552FE4FC7
S113114022832196C430D10529F6DF91CF911F91D6
S11311500895843060F490E065E070E00E94691EB8
S1131160FC01E552FE4F14828081918108958091A3
S1131170EA019091EB01089580910A0290910B028B
S11311800895803127E2920710F08FE097E2909360
S11311900B0280930A0285E092E00C943B131092B8
S11311A00F0208951F93CF93DF93CDB7DEB76097F7
S11311B00FB6F894DEBF0FBECDBF90910F029923F6
S11311C031F090910F02913011F080E016C0883018
S11311D0E0F7182FBE016F5F7F4F0E94D81388235A
S11311E0A1F380E1FE013196A5EFB1E001900D92EB
S11311F08A95E1F71093F00181E060960FB6F894B8
S1131200DEBF0FBECDBFDF91CF911F9108958091B6
S1131210F0010895CF93DF93CDB7DEB72A970FB6C9
S1131220F894DEBF0FBECDBFCE0101960E946513B8
S1131230882359F08AE0FE013196A5E0B2E00190DE
S11312400D928A95E1F781E005C085E092E00E9465
S1131250CB1280E02A960FB6F894DEBF0FBECDBF46
S1131260DF91CF91089590910F02992321F09091ED
S11312700F02913081F4823020F08091EF0184607C
S113128003C08091EF018B7F8093EF0182E0809314
S11312900F0281E0089580E00895882341F0809151
S11312A00F02811106C081E080930F02089510920D
S11312B00F02089590910F02992321F090910F024B
S11312C0913049F4833008F082E08093090285E08C
S11312D092E00C943B1308958091090208958D3394
S11312E008F08CE38093050285E092E00C943B13B4
S11312F0809105020895CF93C82F65E080E00E9495
S1131300B412C13021F050F466E081E002C066E01E
S113131080E00E94B41267E081E006C066E080E0ED
S11313200E94B41267E080E0CF910C94B412CF9382
S1131330C82F83E00EDFC230A0F4813091F4911104
S113134010C0809109028F5F809309028091090285
S1131350833010F01092090285E092E0CF910C9452
S11313603B13CF91089560E0882311F081E001C020
S113137080E00C94B41262E0813011F483E005C083
S113138081E00E94B41262E084E00C94AA12662305
S113139039F064E080E00E94AA1263E080E01AC0A1
S11313A063E0882351F080E00E94B41263E084E09B
S11313B00E94AA1264E083E00DC081E00E94B4128E
S11313C064E081E00E94B41263E084E00E94AA1207
S11313D064E084E00C94AA128F929F92AF92BF9221
S11313E0CF92DF92EF92FF920F931F93CF93DF93ED
S11313F0CDB7DEB72A970FB6F894DEBF0FBECDBFC8
S113140081E0A7DE182FF92E80E0A3DEA82EC92ED6
S113141082E09FDEB82ED92E8091EF018E7F8093DB
S1131420EF010E949115022FE42E2E833F834887FB
S113143059876A87411102C0222351F080910F021B
S1131440882321F081E080930F0202C010920F02E2
S113145080910F02843009F43BC158F4813009F4BF
S11314606DC098F0823009F4BFC0833009F4F7C02E
S113147013C2863009F44AC108F4BBC1873009F4A9
S1131480E8C1883009F4FBC107C21092F10110923F
S1131490F2011092F3011092F40180E090E8C6DDAD
S11314A081E09CDB68E080E00E944E1668E082E008
S11314B00E944E1668E081E00E944E168091EF0172
S11314C08B7F8093EF011130A1F4F11012C0609171
S11314D0050270E080E090E020E63AEE40E050E063
S11314E00E947A1EAB01BC0181E00E943D1710935B
S11314F00F0281E0A81210C0C1100EC0D11004C0A8
S113150087E080930F0208C082E080930F028091ED
S1131510EF018B7F8093EF0181E0B812BFC1D1103E
S1131520BDC1C11002C087E0A7C182E080930F0251
S11315308091EF0184608093EF01B0C168E080E0A6
S11315400E944E1668E082E00E944E1681E00E94DE
S1131550F0168091EF018B7F8093EF01002329F037
S113156080E090E863DD60E010C080910A02909111
S11315700B025CDD60DD20910A0230910B028217C0
S1131580930710F463E001C069E081E00E944E1605
S1131590113021F4F11002C010920F0281E0A81260
S11315A00AC0C11008C082E080930F028091EF014D
S11315B08B7F8093EF0181E0B8120AC0D11008C07C
S11315C082E080930F028091EF0184608093EF01A9
S11315D080910502882309F461C181E00E944C17BF
S11315E0813009F05BC158C18091EF018160809323
S11315F0EF0168E081E00E944E168091EF0168E0FF
S113160082FD06C082E00E944E1662E080E005C0C2
S113161080E00E944E1662E082E00E944E168091A5
S1131620F5019091F601845D9E4F00DD04DD40914B
S1131630F5015091F601092E000CAA0BBB0B60E0DA
S113164070E084179507A607B70714F400003AC0A2
S113165080E00E94F01683E080930F0233C068E0BC
S113166081E00E944E168091EF0168E082FD06C081
S113167082E00E944E1662E080E005C080E00E9495
S11316804E1662E082E00E944E160E94FB162091E4
S1131690F9013091FA014901A12CB12C68157905A1
S11316A08A059B0578F084E080930F0281E00E9414
S11316B0F0164091FB015091FC0160E070E080E085
S11316C00E943D17113009F0E9C0F110E7C0E4C0F1
S11316D068E081E00E944E168091EF0168E082FD8F
S11316E006C082E00E944E1662E080E005C080E001
S11316F00E944E1662E082E00E944E1680E00E9434
S11317004C17882309F4C6C086E0B6C08091F7015F
S11317109091F801A0E0B0E08093F1019093F20180
S1131720A093F301B093F4018091EF0182FF14C000
S11317308091F1019091F201A091F301B091F40133
S1131740880F991FAA1FBB1F8093F1019093F20188
S1131750A093F301B093F40180910902813051F018
S113176030F56091F1017091F2018091F301909153
S1131770F4010EC08091F1019091F201A091F30166
S1131780B091F401BC01CD01660F771F881F991F2A
S113179023E030E040E050E00E94A71E2093F101D6
S11317A03093F2014093F3015093F40110C08091FF
S11317B0F1019091F201A091F301B091F4018093B1
S11317C0F1019093F201A093F301B093F40185E049
S11317D080930F024091F1015091F2016091F30165
S11317E07091F40182E00E943D1780E00E94F0169F
S11317F055C068E081E00E944E168091EF0162E0DE
S113180082FF06C082E00E944E1668E080E005C0B8
S113181080E00E944E1668E082E00E944E1682E04C
S11318200E944C178823D1F181E00E94F016609148
S1131830050270E080E090E020E63AEE40E050E0FF
S11318400E947A1EAB01BC0181E00E943D1781E039
S113185013C080E090E8EADB62E080E00E944E166C
S113186062E081E00E944E1662E082E00E944E1621
S113187080E00E94F01688E080930F020FC00E945F
S1131880911529833A834B835C836D83213021F046
S1131890313011F0000002C010920F0280910F024B
S11318A046DD8091EF0181705EDD8091090223DDC8
S11318B081E0011101C080E05EDDBEDB61E0E1108A
S11318C001C060E02A960FB6F894DEBF0FBECDBF0C
S11318D0DF91CF911F910F91FF90EF90DF90CF9008
S11318E0BF90AF909F908F9052CD80E090E0FC012C
S11318F0EA5BFD4F1082019680349105C1F7109286
S113190087020895809144028E7F8093440210924E
S11319104502EBCFCF93DF9390918702903468F424
S1131920E0918702F0E0EA5BFD4F808390918702AB
S11319309F5F90938702D1E003C080938502D0E03B
S11319409091440290FF17C0C82F0E94C81D88239D
S113195091F00E94CF1D1F92CF9325E639E03F936B
S11319602F939F938F930E94FD1E0F900F900F90C3
S11319700F900F900F908D2FDF91CF9108958F923C
S11319809F92AF92BF92EF92FF920F931F93CF93C8
S11319908C017B01FB011082118212821382FC01F3
S11319A080818B3221F08D3231F4C1E001C0C0E07E
S11319B00F5F1F4F36C0C0E034C0C42F3323C9F1BA
S11319C0C11137C02A3098F5F70160817181828195
S11319D0938141E06939F9E97F078F07F9E19F07AE
S11319E060F72AE030E040E050E00E947A1EF70100
S11319F06083718382839383F80121918F0130E0A6
S1131A00205331094901330FAA08BB08DC01CB017B
S1131A10880D991DAA1DBB1DF70180839183A283A4
S1131A20B383F801308120ED230F4C2FC6CFC1E0E2
S1131A30C5CF8C2FCF911F910F91FF90EF90BF9046
S1131A40AF909F908F900895FC0120E03E2F381BAB
S1131A507081DA019C91772351F0391740F42111F8
S1131A6006C0761302C0108221E03196EFCF931B9B
S1131A70DA019C93211102C0E0E0F0E0CF01089567
S1131A800E94C81D882371F00E94CF1D22E131E01D
S1131A903F932F939F938F930E94FD1E0F900F905F
S1131AA00F900F9008950E94C81D882371F00E9422
S1131AB0CF1D25E031E03F932F939F938F930E9496
S1131AC0FD1E0F900F900F900F9008950E94C81D57
S1131AD0882371F00E94CF1D20E031E03F932F93C3
S1131AE09F938F930E94FD1E0F900F900F900F9065
S1131AF008952F923F924F925F926F927F928F92AE
S1131B009F92AF92BF92CF92DF92EF92FF920F9388
S1131B101F93CF93DF93CDB7DEB727970FB6F89413
S1131B20DEBF0FBECDBF86E08A8381E089831B823E
S1131B301C821D821E8280E48F8306E412E0F12C55
S1131B4086E0E82E99E0992E28E0822E37E0332EA5
S1131B5045E0242E54E0D52E63E0C62E412C512CB2
S1131B6032014394AE01495F5F4F60E2C8016CDF0C
S1131B705C010115110509F403C181E0F816C1F1F6
S1131B80F81628F092E0F91609F4BCC0F6C061E634
S1131B9079E0C8010E94E51E892B11F41982EDC079
S1131BA06DE579E0C8010E94E51E892B11F481E0FE
S1131BB008C069E579E0C8010E94E51E892B19F483
S1131BC082E08983DAC064E579E0C8010E94E51EF9
S1131BD0892B11F4C98208C06FE479E0C8010E941E
S1131BE0E51E892B19F4D9828CE019C0E982C5C09D
S1131BF08981833019F0823008F06EC06AE479E09C
S1131C00C8010E94E51E892B11F41A82B6C065E44E
S1131C1079E0C8010E94E51E892B19F481E08A83CA
S1131C20ACC06FE379E0C8010E94E51E892B11F472
S1131C3082E0F5CF6AE379E0C8010E94E51E892BB2
S1131C4011F4CA829AC066E379E0C8010E94E51ED5
S1131C50892B11F4DA8291C060E379E0C8010E9413
S1131C60E51E892B11F42A8288C069E279E0C80153
S1131C700E94E51E892B11F43A827FC06FE179E05E
S1131C80C8010E94E51E892B11F48A8276C069E19D
S1131C9079E0C8010E94E51E892B11F49A826DC077
S1131CA061E179E0C8010E94E51E892B11F48AE004
S1131CB0B6CF68E079E0C8010E94E51E892B19F4CB
S1131CC09BE09A835AC063E079E0C8010E94E51E54
S1131CD0892B21F48DE0A3CF823011F0EA824DC02C
S1131CE06EEF78E0C8010E94E51E892B11F48EE0A6
S1131CF096CF68EF78E0C8010E94E51E892B71F742
S1131D008FE08DCF8981823048F4813031F0BE017B
S1131D106D5F7F4FC80133DE8111EA828981823091
S1131D2061F58A818E30C1F461EF78E0C8010E94C8
S1131D30E51E892B29F41B821C821D821E821DC074
S1131D406AEE78E0C8010E94E51E892B39F64B82C1
S1131D505C826D827E8211C08F3079F467EE78E008
S1131D60C8010E94E51E892B91F363EE78E0C80157
S1131D700E94E51E892BF9F2B1CFF3948501F2CECE
S1131D808A81873009F043C089818130E1F40E945F
S1131D90C81D882309F465C00E94CF1D182F092F80
S1131DA0F1D79F938F937F936F9386E992E09F93EC
S1131DB08F930F931F930E94FD1E0FB6F894DEBFFE
S1131DC00FBECDBF4EC08330A9F50E94C81D882325
S1131DD009F447C00E94CF1D2BE532E00DC09130BD
S1131DE009F4B9C0933031F50E94C81D8823C9F1A4
S1131DF00E94CF1D28EF33E03F932F939F938F933F
S1131E000E94FD1E0F900F900F900F902AC08830F3
S1131E1098F08B3009F466C108F42FC18D3009F4B1
S1131E20D6C108F05AC28981833009F407C28430CC
S1131E3009F418C238DE15C0833069F108F0CCC04B
S1131E409981813009F454C008F099C09111C7CF29
S1131E50809145022B813C814D815E8160E036D5C5
S1131E6035DE43DD27960FB6F894DEBF0FBECDBF37
S1131E70DF91CF911F910F91FF90EF90DF90CF9062
S1131E80BF90AF909F908F907F906F905F904F9096
S1131E903F902F9008958981811108C08091450257
S1131EA02B813C814D815E8163E0D9CF813099F4EF
S1131EB00E94C81D8823A9F20E94CF1D182F092F44
S1131EC08091450263E059D59F938F937F936F93DD
S1131ED086E693E06CCF833009F0ACCF0E94C81D36
S1131EE0882309F4BECF0E94CF1D26E233E084CFBD
S1131EF0911108C0809145022B813C814D815E8106
S1131F0062E0ADCF9130D1F40E94C81D882309F45A
S1131F10A8CF0E94CF1D182F092F8091450262E09F
S1131F202CD59F938F937F936F9382E491E09F933B
S1131F308F930F931F930E94EE1E3FCF933009F0AF
S1131F4079CF0E94C81D882309F48BCF0E94CF1D2E
S1131F5028EB33E051CF0E94C81D882309F481CFB8
S1131F600E94CF1D182F092F8091450260E005D5EE
S1131F709F938F937F936F9387E394E018CF91118E
S1131F8008C0809145022B813C814D815E8161E0D6
S1131F9066CF9130A1F40E94C81D882309F461CF53
S1131FA00E94CF1D182F092F8091450261E0E5D4CE
S1131FB09F938F937F936F9380EB93E0F8CE93304E
S1131FC009F038CF0E94C81D882309F44ACF0E9423
S1131FD0CF1D2EE633E010CF853089F5898181113C
S1131FE00DC08B819C81AD81BE8188309105A10596
S1131FF0B10508F068C08093450232CF813091F476
S11320000E94C81D882309F42CCF0E94CF1D209163
S113201045021F922F932CED32E03F932F939F9311
S11320208F9328C0833009F005CF0E94C81D8823F0
S113203009F417CF0E94CF1D2EE932E0DDCE8630A1
S113204008F0F8CE89818823D1F1813009F03DC0B0
S11320500E94C81D882309F404CF0E94CF1D182FA5
S1132060092FD5D81F928F938EE193E09F938F937E
S11320700F931F930E94FD1E1BC09981893009F0A4
S113208066C0913009F051C00E94C81D882309F42C
S1132090E8CE0E94CF1D182F092F1ED91F928F93AF
S11320A08BE491E09F938F930F931F930E94EE1EF6
S11320B00F900F900F900F900F900F90D2CE8B81B6
S11320C071D88111CDCEDCDCCCCE833009F0B2CE18
S11320D00E94C81D882309F4C4CE0E94CF1D24EE9B
S11320E032E08ACE8981813009F0BBCE0E94C81DBE
S11320F0882339F00E94CF1D182F092F3DD89F93B4
S1132100CECF8981811104C08B819C813AD8A8CE1D
S1132110833009F08FCE0E94C81D882309F4A1CE14
S11321200E94CF1D2CE531E067CE911103C08B8155
S1132130C1D896CE933009F07DCE0E94C81D882365
S113214009F48FCE0E94CF1D29EC31E055CE8A30A0
S1132150F8F4913081F40E94C81D882309F481CEDB
S11321600E94CF1D182F092F0E941B089F938F9345
S113217083E592E07BCF933009F05CCE0E94C81DCA
S1132180882309F46ECE0E94CF1D27E032E034CEBE
S1132190913059F40E94C81D882309F462CE0E942C
S11321A0CF1D182F092FA4D879CF911103C08B818B
S11321B096D856CE933009F03DCE0E94C81D882390
S11321C009F44FCE0E94CF1D26E831E015CE898157
S11321D0813099F40E94C81D882309F442CE0E94DC
S11321E0CF1D2091440221701F922F932BE431E0E4
S11321F03F932F939F938F9359CF811112C08B815B
S11322009C81AD81BE81892B8A2B8B2B21F08091FF
S11322104402816003C0809144028E7F8093440213
S11322201FCE833009F006CE0E94C81D882309F40E
S113223018CE0E94CF1D2EE131E0DECD0E94C81DD4
S1132240882309F40ECE0E94CF1D182F092F8091E8
S1132250450260E092D39F938F937F936F9380E5C1
S113226095E0A5CD80910001882321F10E94C81D2D
S1132270882309F4F6CD0E94CF1D209100015091CE
S113228000014091000130E0215031093F932F9328
S11322901F925F931F924F9322ED34E03F932F934D
S11322A09F938F930E94FD1E809100018150809323
S11322B0000183CD0E94C81D882309F4D2CD0E9459
S11322C0CF1D2FE334E03F932F939F938F930E946E
S11322D0FD1E83E68093000195CD8E3009F04BC03E
S11322E089818230C1F58B819C81AD81BE8100974B
S11322F0A105B10529F00197A105B10589F0E3CE47
S113230081E00E9433098823D9F00E94C81D8823E4
S113231009F4A7CD0E94CF1DBC018FE691E028C02F
S113232081E00E943309882359F00E94C81D882344
S113233009F497CD0E94CF1DBC018AE891E018C032
S11323400E94C81D882309F48CCD0E94CF1DBC01B6
S11323508CE791E00DC0833009F083CD0E94C81D45
S1132360882309F47ECD0E94CF1DBC0186E991E04B
S11323700E94151F76CD8F3009F073CD898182308C
S113238059F58B819C81AD81BE810097A105B10572
S113239029F00197A105B10579F095CE0E94C81DD9
S11323A0882309F45ECD0E94CF1DBC0183E591E032
S11323B00E94151F80E00DC00E94C81D882309F4E7
S11323C050CD0E94CF1DBC0182E691E00E94151FF2
S11323D081E00E944D0945CD833009F042CD73CE92
S11323E01092860280918702882379F0E091870217
S11323F0F0E0EB5BFD4F80818D3039F4E091870292
S1132400F0E0EB5BFD4F108274CB0895EF92FF92E6
S11324100F931F93CF93DF9386E2E82E82E0F82E8A
S11324200DE112E0C0E0D4E0F701D1937F01F8019F
S1132430D1938F0161E08C2F0E941E06CF5FC930BB
S113244099F7DF91CF911F910F91FF90EF900C942A
S1132450D406AF92BF92CF92DF92EF92FF920F9386
S11324601F93CF93309113023F5F30931302209157
S113247012022F5F20931202909111029F5F90939A
S11324801102809110028F5F80931002311110921B
S11324901302223010F010921202953010F01092B4
S11324A011028A3010F0109210020DE112E086E25F
S11324B0C82E82E0D82E94E1E92E92E0F92EC0E0F5
S11324C0F80190815601F6018081981799F09430B3
S11324D041F4F80180838C2F0E94F506F701808374
S11324E009C0843039F4F8018083F70160818C2FAE
S11324F00E941E06FFEFCF1ADF0AF50180818130AA
S113250059F038F0823059F0833089F48091100208
S113251008C08091130205C08091120202C080910C
S11325201102811104C062E08C2F0E941E06CF5F4D
S11325300F5F1F4FFFEFEF1AFF0AC93009F6CF9163
S11325401F910F91FF90EF90DF90CF90BF90AF90CD
S11325500C94D406693038F4E62FF0E0EA5DFD4FC0
S11325609081981380830895982F862F692F0C9457
S11325701E068627082E8295807F8025092E982F97
S113258082958F700826869598278927880F880F4B
S1132590880F80250895FC01838180788C608F7773
S11325A0838382E3818386EE82838CE49DE1968338
S11325B0858382E0848317820895FC0188EE93E08A
S11325C0958384838CEA9DE0978386838CE49DE1E4
S11325D09383828388E293E2918380838AEA9AEAEE
S11325E09187808725E535E533872287958784871A
S11325F0178616860895EF92FF920F931F93CF9339
S1132600DF93CDB7DEB72A970FB6F894DEBF0FBEBF
S1132610CDBF85E6898388E48A8381E68B838AE457
S11326208C838FE68D838AE98E8387EB8F838EE993
S1132630888785EB898780E98A87CE0101967C01AA
S113264006EF13E0F70161917F01C8010E94CB21DD
S11326500F5F1F4F0115F4E01F07A1F72A960FB66D
S1132660F894DEBF0FBECDBFDF91CF911F910F91C4
S1132670FF90EF900895EF92FF920F931F93CF93E3
S1132680DF93EC017C0188E0E80EF11C8E018FEFF2
S11326909FEFF80161918F016CDF0E151F05C9F7DB
S11326A09987888702E813E06991C8010E94CB21C9
S11326B00F5F1F4F0C38F3E01F07B1F7DF91CF9185
S11326C01F910F91FF90EF900895CF92DF92EF92B8
S11326D0FF920F931F93CF93DF93EC016C0102E8F9
S11326E013E0EE24EA94FE2CC8010E94C321F601F3
S11326F081936F01682FC7013CDF7C010F5F1F4F7F
S11327000A38F3E01F0781F78AE893E00E94C321A7
S113271088878BE893E00E94C321898781E028851C
S113272039852E153F0509F080E0DF91CF911F9187
S11327300F91FF90EF90DF90CF900895CF92DF92AA
S1132740EF92FF920F931F93CF93DF93883038F566
S1132750EB01082F6B018EE0C80ED11C7B018FEFBB
S11327609FEFF70161917F0104DFEC14FD04C9F7C9
S11327709F878E8710E084E0000F111F8A95E1F790
S1132780E12CF12C6991C8018E0D9F1D0E94CB2173
S1132790FFEFEF1AFF0A80E1E816F10499F7DF91E1
S11327A0CF911F910F91FF90EF90DF90CF900895FC
S11327B0CF92DF92EF92FF920F931F93CF93DF9309
S11327C0CDB7DEB728970FB6F894DEBF0FBECDBFE6
S11327D0282F30E094E0220F331F9A95E1F73887D1
S11327E02F832FEF3FEF3E832D831C821B8220E13A
S11327F030E03A832983883008F058C089819A816F
S1132800039728F089819A8102979A8389838B019F
S1132810E12CF12C6801CE0CDF1C89819A81E81629
S1132820F90680F48F8198858E0D9F1D9C838B8380
S11328308B819C810E94C321F6018083FFEFEF1AF4
S1132840FF0AE8CFE12CF12C6801CE0CDF1C898152
S11328509A81E816F90658F4F60160818D819E810B
S113286088DE9E838D83FFEFEF1AFF0AEDCF8F8101
S113287098850E969C838B838B819C810E94C321B7
S1132880F60180838F8198850F969C838B838B813F
S11328909C810E94C321F60181832D813E8181E0C8
S11328A0F801468557854217530709F080E02896BA
S11328B00FB6F894DEBF0FBECDBFDF91CF911F914D
S11328C00F91FF90EF90DF90CF900895CF92DF9219
S11328D0EF92FF920F931F93CF93DF93CDB7DEB7A1
S11328E060970FB6F894DEBF0FBECDBF182F062F2A
S11328F069017A01BE016F5F7F4F5ADF013009F130
S113290028F0023061F0033099F028C08FEFC81628
S1132910D806E104F10410F5DA82C9821AC08FEFF7
S1132920C816D806E104F104C8F4DE82CD8211C0D1
S11329308FEFC816D806E104F10480F4D886CF825C
S113294008C08FEFC816D806E104F10438F4DC821D
S1132950CB82BE016F5F7F4F812FF0DE60960FB692
S1132960F894DEBF0FBECDBFDF91CF911F910F91C1
S1132970FF90EF90DF90CF9008951F93CF93DF9354
S1132980CDB7DEB760970FB6F894DEBF0FBECDBFEC
S1132990162FBE016F5F7F4F0BDF113071F038F0DF
S11329A0123041F0133071F46F81788508C0698169
S11329B07A8105C06D817E8102C06B817C8180E05B
S11329C090E003C060E070E0CB0160960FB6F8942D
S11329D0DEBF0FBECDBFDF91CF911F91089560E0A0
S11329E070E080E092E00C94DD21CF92DF92EF92D0
S11329F0FF920F931F93CF93DF93CDB7DEB7A797C3
S1132A000FB6F894DEBF0FBECDBF06EF13E07E0114
S1132A108BE1E80EF11C6701C8010E94C321F70194
S1132A2081937F010F5F1F4F0115F4E01F07A1F78A
S1132A30D601E8E6F9E09E01205E3F4F80E09D91DB
S1132A409FA314969C91149790959EA394919DA3F3
S1132A504FA19EA1491303C04DA19FA149138F5FAC
S1132A6031962A173B0759F78823A1F0CE014196E6
S1132A7092DDCE014196FFDDCE0101969EDD10E090
S1132A80BE016F5F7F4F812F59DE1F5F1830C1F782
S1132A90A6DFB1DDA7960FB6F894DEBF0FBECDBF9B
S1132AA0DF91CF911F910F91FF90EF90DF90CF9026
S1132AB00895E8E8F2E013821282148210821182EF
S1132AC0089510928B0210928A0210928C02109236
S1132AD088021092890254D2813059F028F0823051
S1132AE069F0833059F00FC0109288021092890265
S1132AF00AC0809389021092880205C081E0809305
S1132B008802809389020E9441088131974224F00F
S1132B1081E080938A0202C010928A0210928B0292
S1132B200895CF93DF9300D000D01F92CDB7DEB7C6
S1132B3085E0E8E8F2E0DE01119601900D928A95B5
S1132B40E1F729813A814B815C816D8170E080E0FD
S1132B5090E00F900F900F900F900F90DF91CF9116
S1132B600895109231021092300210922F0281E0E7
S1132B700C94DF05853608F084E6809330020895CE
S1132B80E0E9F2E087E08083818391E092838383AC
S1132B908483958386838783908710928E02109214
S1132BA08D021092990210928F0208950F931F9331
S1132BB0CF9380918E028F5F80938E0280918F02DB
S1132BC08F5F80938F02809199028F5F8093990227
S1132BD080918D028F5F80938D0280918E0281118E
S1132BE010928E0280918F02823010F010928F0228
S1132BF080919902853010F01092990280918D0293
S1132C008A3010F010928D0200E912E0C0E0F80161
S1132C1080819181891771F08183873031F08C2F05
S1132C200E94A605F801828305C0F80162818C2FF9
S1132C300E947C05F80180818230D1F028F4882339
S1132C4061F0813091F020C08830C1F08930C1F04A
S1132C508330D1F480918D020DC080918E02811158
S1132C6004C062E08C2F0E947C0580918F0202C018
S1132C7080919902811108C062E003C061E001C043
S1132C8060E08C2F0E947C05CF5F0D5F1F4FC33027
S1132C9009F0BDCFCF911F910F910895813059F064
S1132CA018F0823079F0089580919002861779F0B7
S1132CB060939002089580919302681741F06093A5
S1132CC09302089580919602681360939602089582
S1132CD0109239021092380208950F931F93209195
S1132CE03202309133022F5F3F4F309333022093EF
S1132CF03202209132023091330221153041F8F032
S1132D00409134025091350260913602709137023D
S1132D102CE076956795579547952A95D1F750936A
S1132D203902409338021092330210923202109208
S1132D3034021092350210923602109237024091FA
S1132D40340250913502609136027091370297FF38
S1132D5002C09F7706C020E030E8F901E81BF90BB8
S1132D60CF018A019B01080F191F211D311D0093FA
S1132D7034021093350220933602309337021F91A8
S1132D800F910895809138029091390262E672E0C1
S1132D90A0D768EE73E0C7D780E090E00895109262
S1132DA03C0210923B0283E080933A0208950E9411
S1132DB0F405813039F410923C0210923B02809366
S1132DC03A02089580913B0290913C028F3F2FEF8D
S1132DD0920729F0019690933C0280933B02089558
S1132DE0882331F0813031F410923C0210923B027E
S1132DF00C94EE05089580913B0290913C0264E6A8
S1132E0070E067D7BC0180E090E00895EAE9F2E061
S1132E101082118212821382148215821682178202
S1132E201086118612861386089580E090E0FC01D6
S1132E30EE0FFF1FEE0FFF1FE656FD4F408151813D
S1132E4062817381453651056105710568F04081E1
S1132E50518162817381445651096109710940832A
S1132E6051836283738304C010821182128213829D
S1132E70019683309105D9F60895833060F4E82FE4
S1132E80F0E0EE0FFF1FEE0FFF1FE656FD4F4083ED
S1132E905183628373830895833098F4E82FF0E0BC
S1132EA0EE0FFF1FEE0FFF1FE656FD4F40815181CD
S1132EB06281738181E0452B462B472B19F080E01A
S1132EC0089581E00895CF9380E00E94CF05C82F34
S1132ED081E00E94CF0590910201C91791F0909171
S1132EE03D02C11103C09A3048F402C0933030F45B
S1132EF090913D029F5F90933D0205C09091020125
S1132F0002C010923D0290910101891789F081114C
S1132F1005C080913E028A3068F404C080913D026D
S1132F20833040F480913E028F5F80933E0202C062
S1132F3010923E028091020180930101809101016F
S1132F40811107C080910201811103C01092030115
S1132F5015C080910101813021F4909102019923DF
S1132F6059F080910101813031F480910201813066
S1132F7011F482E001C083E080930301CF910895AE
S1132F80809103010895CF93DF93EC01FC017096C7
S1132F908BE0DF011D928A95E9F782E08C838987B3
S1132FA083E08E8761E0CE01019675D2882361F0BB
S1132FB061E0CE0106966FD2882331F061E0CE0144
S1132FC00B96DF91CF9167C280E0DF91CF91089596
S1132FD00F931F93CF932091AA022430F9F4FC019C
S1132FE00489158926893789012B022B032BB1F01B
S1132FF0C62F81818F708093E9008091E80085FF5E
S113300004C0C093F10080E00AC08091E8008E778C
S11330108093E8009CD28823A1F301C082E0CF9181
S11330201F910F910895FB01682F84859585D0DF4A
S113303021E030E0811102C020E030E088279927A8
S1133040821B930B08952091AA02243021F5FC01E0
S11330504489558966897789452B462B472BD9F0B6
S113306081818F708093E9008091F200882389F038
S11330709091E8008091E8008E778093E80095FDB8
S113308008C065D2811108C08091E8008E778093D2
S1133090E80080E0089582E008952091AA02243097
S11330A089F4FC014489558966897789452B462B27
S11330B0472B41F021812F702093E9002091E800F3
S11330C020FDC1CF08952091AA02243019F08FEF7A
S11330D09FEF0895FC014489558966897789452BBA
S11330E0462B472BA1F386818F708093E900809152
S11330F0E80082FFECCF8091F200882321F0209138
S1133100F10030E002C02FEF3FEF8091F200811117
S113311005C08091E8008B778093E800C901089589
S1133120FC0184859585CFDF97FF02C08EEF9FEF6A
S11331300895FB012EE0DB011D922A95E9F723E0B7
S1133140238323E138E13187208720E938E133877D
S113315022879587848708950895CF93DF93EC01A0
S11331608091E80083FFA6C0888190E02091AF029F
S11331703091B0022817390709F09CC08091AC0245
S1133180813261F020F4803209F43EC093C082326F
S113319009F46CC0833209F47DC08CC08091AB0209
S11331A0813A09F087C08091E800877F8093E80026
S11331B08091E80080FFFCCF8C899D89AE89BF890E
S11331C08093F100492F5A2F6B2F77274093F100FA
S11331D0AD01662777274093F1008B2F9927AA2703
S11331E0BB278093F100888D8093F100898D8093B3
S11331F0F1008A8D8093F1008091E8008E778093AE
S1133200E800DF91CF9184C18091AB02813209F053
S113321051C08091E800877F8093E8008091E800A6
S113322082FD05C08091AA028111F8CF43C030917C
S1133230F1002091F1009091F1008091F1003C8B1C
S11332402D8B9E8B8F8B8091F100888F8091F10064
S1133250898F8091F1008A8F8091E8008B77809329
S1133260E80056D1CE01DF91CF9176CF8091AB02A9
S1133270813201F58091E800877F8093E80048D18E
S11332808091AD029091AE02998B888BCE01DF9133
S1133290CF911EC58091AB02813261F48091E80028
S11332A0877F8093E80034D16091AD02CE01DF9135
S11332B0CF9152CFDF91CF9108952091B1023091F7
S11332C0B2022617370748F06115710539F42091C9
S11332D0E8002E772093E80001C0B901FC0120E04A
S11332E06115710561F18091AA028823D9F18530B5
S11332F0D9F18091E80083FD39C08091E80082FD16
S11333002BC08091E80080FFEBCF8091F20090E029
S11333106115710551F08830910538F4219120939D
S1133320F100615071090196F3CF21E0089709F08B
S113333020E08091E8008E778093E800D1CF2111BE
S1133340D2CF0AC08091AA02882361F0853061F04F
S11333508091E80083FD0AC08091E80082FFF2CFEB
S113336080E0089582E0089583E0089581E008955F
S11333702091B1023091B2022617370748F0611547
S1133380710539F42091E8002E772093E80001C0FC
S1133390B901FC0120E06115710579F18091AA025F
S11333A0882309F43DC0853009F43CC08091E800CD
S11333B083FD3AC08091E80082FD2CC08091E80032
S11333C080FFE9CF8091F20090E06115710559F01A
S11333D08830910540F424912093F1003196615096
S11333E071090196F2CF21E0089709F020E080915D
S11333F0E8008E778093E800CECF2111CFCF0AC0AA
S11334008091AA02882361F0853061F08091E80000
S113341083FD0AC08091E80082FFF2CF80E0089526
S113342082E0089583E0089581E00895982F95300F
S113343068F59093E900981739F07091EC002091A9
S1133440ED005091F00003C0242F762F50E021FDB1
S113345002C09F5FECCF3091EB003E7F3093EB00D6
S11334603091ED003D7F3093ED003091EB00316001
S11334703093EB007093EC002093ED005093F00038
S11334802091EE0027FDE5CF80E008958F708093B2
S1133490E90081E008950F931F93CF93DF93062FE4
S11334A0EC0110E0101771F19881911103C01F5FB6
S11334B02596F8CF2C81A981BA816B81892F8F70D1
S11334C0853010F080E01FC0223010F442E001C0CB
S11334D046E0E8E0F0E020E0EA17FB0720F42F5F85
S11334E0EE0FFF1FF9CF2295207F422B6295660FC6
S11334F0660F607C991F9927991F692B97DF8111AB
S1133500D6CFE0CF81E0DF91CF911F910F91089545
S11335108091AB0287FF11C08091E80082FD05C055
S11335208091AA028111F8CF11C08091E8008B77B5
S11335300BC08091AA02882349F08091E80080FFA3
S1133540F8CF8091E8008E778093E8000895209169
S1133550E4003091E50095E64091EC00842F817001
S113356040FF23C08091E80080FD1DC08091AA0225
S1133570882399F0853099F08091EB0085FD11C086
S11335804091E4005091E5002417350729F3915048
S113359011F09A01E1CF84E0089582E0089583E078
S11335A0089581E0089580E008954091E80042FF85
S11335B0DDCF089541D043D08091D8008F77809398
S11335C0D8008091D80080688093D8008091D8007A
S11335D08F7D8093D80084E089BD86E089BD09B4DD
S11335E000FEFDCF1092AA021092A6021092A80229
S11335F01092A70242E060E080E018DF8091E100D1
S11336008E7F8093E1008091E20081608093E200EC
S11336108091E20088608093E2008091E0008E7FD8
S11336208093E0000895E3E6F0E080818E7F80835C
S113363081E08093A902BECF1092E2000895109217
S1133640E10008951F920F920FB60F9211242F9349
S11336503F934F935F936F937F938F939F93AF9316
S1133660BF93EF93FF938091E10082FF0AC08091A2
S1133670E20082FF06C08091E1008B7F8093E1002D
S113368025D28091E10080FF17C08091E20080FF85
S113369013C08091E2008E7F8093E2008091E2006B
S11336A080618093E2008091D80080628093D8008A
S11336B019BC1092AA0203D38091E10084FF2FC0A9
S11336C08091E20084FF2BC084E089BD86E089BD3F
S11336D009B400FEFDCF8091D8008F7D8093D8007F
S11336E08091E1008F7E8093E1008091E2008F7EE3
S11336F08093E2008091E20081608093E2008091F7
S1133700A602882311F084E007C08091E30087FDBE
S113371002C081E001C083E08093AA02CCD28091F0
S1133720E10083FF27C08091E20083FF23C08091E2
S1133730E100877F8093E10082E08093AA021092E7
S1133740A6028091E1008E7F8093E1008091E200E7
S11337508E7F8093E2008091E20080618093E2009A
S113376042E060E080E062DE8091F0008860809357
S1133770F000ACD1FF91EF91BF91AF919F918F91E8
S11337807F916F915F914F913F912F910F900FBE59
S11337900F901F9018951F920F920FB60F9211243D
S11337A02F933F934F935F936F937F938F939F9345
S11337B0AF93BF93CF93DF93EF93FF93C091E9004F
S11337C0CF708091EC00D82FD17080FDD0E810929A
S11337D0E9008091F000877F8093F00078941ED0F8
S11337E01092E9008091F00088608093F000CD2B66
S11337F0CF70C093E900FF91EF91DF91CF91BF911A
S1133800AF919F918F917F916F915F914F913F9174
S11338102F910F900FBE0F901F9018951F93CF9369
S1133820DF93CDB7DEB7AA970FB6F894DEBF0FBE0D
S1133830CDBFEBEAF2E08091F100819322E0E33B1B
S1133840F207C9F742D28091E80083FF27C1809133
S1133850AB029091AC02953009F478C030F4913009
S113386081F168F0933069F119C1983009F4E3C02B
S1133870993009F4F2C0963009F010C189C080383B
S113388081F0823809F00AC18091AF028F70809371
S1133890E9008091EB0085FB882780F91092E9000C
S11338A006C08091A7029091A80291118260909124
S11338B0E800977F9093E8008093F1001092F10064
S11338C0C5C0282F2D7F09F0E9C0882319F0823064
S11338D061F0E4C08091AD02813009F0DFC0933023
S11338E009F080E08093A8022BC08091AD02811181
S11338F027C08091AF028F7009F4D0C08093E90093
S11339002091EB0020FF1CC0933021F48091EB0048
S1133910806214C09091EB0090619093EB0021E0E1
S113392030E0A90102C0440F551F8A95E2F7409385
S1133930EA001092EA008091EB0088608093EB002B
S11339401092E9008091E800877F83C08111A6C0AE
S11339501091AD021F778091E3008078812B8093D2
S1133960E3008091E800877F8093E800D1DD8091B7
S1133970E80080FFFCCF8091E30080688093E3003F
S1133980111102C082E001C083E08093AA0286C0C4
S11339908058823008F082C08091AD029091AE02CE
S11339A08C3D53E0950771F583E08A838AE289832D
S11339B04FB7F894DE01139620E03EE051E2E32F86
S11339C0F0E050935700E49120FF03C0E295EF70BC
S11339D03F5FEF708E2F90E0EA3010F0C79601C081
S11339E0C0968D939D932F5F243149F74FBF8091EB
S11339F0E800877F8093E8006AE270E0CE010196D8
S1133A005CDC13C0AE014F5F5F4F6091AF020E9458
S1133A103705BC01892B09F441C09091E800977FD8
S1133A209093E80089819A81A3DC8091E8008B77E8
S1133A308093E80033C0803889F58091E800877F5F
S1133A408093E8008091A6028093F1008091E800C1
S1133A508E778093E8005CDD21C081111FC08091C6
S1133A60AD029091AE0299270297C4F48091E800C8
S1133A70877F8093E8008091AD028093A60248DDA1
S1133A808091A602811106C08091E30087FD02C0E7
S1133A9081E001C084E08093AA0214D18091E800FF
S1133AA083FF0AC08091E800877F8093E8008091BB
S1133AB0EB0080628093EB00AA960FB6F894DEBF09
S1133AC00FBECDBFDF91CF911F9108950895CF937D
S1133AD08091AA02882399F0C091E900CF70909157
S1133AE0EC00892F817090FD80E8C82B1092E900CA
S1133AF08091E80083FD92DECF70C093E900CF91FE
S1133B00089508950C946408DED98FD950D90E9481
S1133B100A080E9461150E94EC0980913F020895F1
S1133B200E94291243C8089587E291E0CCDA97FFF6
S1133B300E948A0C87E291E0B0DAC9CFCF93DF9379
S1133B40EC010E9473072A813B814A815B81452BEA
S1133B50E1F0488159818417950730F448815981EF
S1133B60841B950B019704C048815981841B950BD4
S1133B702817390750F481E08C83288139818A81A0
S1133B809B81820F931F99838883DF91CF9108953E
S1133B9090913F0281E0911101C080E0089583EB90
S1133BA092E008950F931F93CF93DF9304E011E005
S1133BB0C0E0D0E0C801C2DFCE0167E070E089D088
S1133BC0FC01EC5FFE4F8481882381F0858196811E
S1133BD0892B21F00580F681E02D0995CE0167E05F
S1133BE070E077D08C5F9E4FFC0114822196095FB0
S1133BF01F4FC530D105F1F6DF91CF911F910F9181
S1133C0093CF84B7877F84BF0FB6F894A89580912B
S1133C106000886180936000109260000FBE90E0A5
S1133C2080E80FB6F89480936100909361000FBE12
S1133C30FADC0E94670581E00E94EE0581E00E94A3
S1133C40DF0561E080E00E947C0561E081E00E9484
S1133C507C0561E082E00E947C050C94F805D1DFCC
S1133C600E94F51463EB72E087E291E062DA7894E3
S1133C700E9472070E9423082BD80E94B1150E944B
S1133C8059150E9446088BD80E94CF080E9402084A
S1133C90BDD80E94C0150E9406120E94DC040E9436
S1133CA0820C80E00E94D2080E940A097BDF3CDF7C
S1133CB00E94F011FBCF81E080933F02089510929F
S1133CC03F02089587E291E05EC987E291E045CA28
S1133CD008950024552704C0080E591F880F991F02
S1133CE0009729F076956795B8F37105B9F7802D9B
S1133CF0952F0895EE27FF27AA27BB2708C0A20FF8
S1133D00B31FE41FF51F220F331F441F551F969541
S1133D1087957795679598F37040A9F7009799F779
S1133D20BD01CF010895AA1BBB1B51E107C0AA1F07
S1133D30BB1FA617B70710F0A61BB70B881F991F48
S1133D405A95A9F780959095BC01CD010895A1E2FB
S1133D501A2EAA1BBB1BFD010DC0AA1FBB1FEE1F01
S1133D60FF1FA217B307E407F50720F0A21BB30B4C
S1133D70E40BF50B661F771F881F991F1A9469F7C8
S1133D8060957095809590959B01AC01BD01CF0124
S1133D900895052E97FB16F400940FD057FD05D017
S1133DA0D6DF07FC02D046F408C050954095309504
S1133DB021953F4F4F4F5F4F089590958095709593
S1133DC061957F4F8F4F9F4F0895FB01DC018D91CB
S1133DD0059080190110D9F3990B0895A0E0B0E083
S1133DE0E3EFFEE107C3AE01475F5F4F6F81788564
S1133DF08D819E8143D0E2E019C3A0E0B0E0E2E00F
S1133E00FFE1F6C20F811885F801838188608383FE
S1133E10AE01455F5F4F69857A85C8012FD0F801EF
S1133E202381277F2383E4E0FFC2EF92FF920F9365
S1133E301F93CF93DF93DB0113962C9121FF18C0BE
S1133E408B017C01D0E0C0E0F70181917F018823E0
S1133E5061F0D8011896ED91FC911997B801099574
S1133E60892B91F3DFEFCFEFEFCF8D2F9C2F02C083
S1133E708FEF9FEFCDB7DEB7E6E0D4C2ABE0B0E0A2
S1133E80E3E4FFE1A7C26C017B018A01FC01178214
S1133E901682838181FFC0C1CE0101963C01F601E7
S1133EA09381F70193FD859193FF81917F0188238D
S1133EB009F4AEC1853239F493FD859193FF819164
S1133EC07F01853221F4B60190E0C1D1E8CF912C75
S1133ED0212C312CFFE1F315E0F08B3279F038F42A
S1133EE0803279F08332A9F4232D206110C08D3201
S1133EF059F0803371F4232D216009C0832D826031
S1133F00382EE32DE46022C0F32DF86025C0322E54
S1133F1027C037FC2DC020ED280F2A3088F436FE48
S1133F2006C0892D6AE04DD2922E980E19C0822DBA
S1133F306AE047D2222E280E832D8062382E10C0CC
S1133F408E3231F436FC64C1E32DE0643E2E08C0A9
S1133F508C3621F4F32DF0683F2E02C0883641F4EC
S1133F60F70193FD859193FF81917F018111B2CF78
S1133F70982F9F7D9554933028F40C5F1F4F2FE3A7
S1133F8029830DC0833631F0833771F0833509F00E
S1133F9055C020C0F801808189830E5F1F4F88249B
S1133FA08394912C530112C02801F2E04F0E511C4E
S1133FB0F801A080B18036FE03C0692D70E002C014
S1133FC06FEF7FEFC50138D14C018201F32DFF77EC
S1133FD03F2E15C0280122E0420E511CF801A0809A
S1133FE0B18036FE03C0692D70E002C06FEF7FEF31
S1133FF0C50117D14C01F32DF0683F2E820133FC2B
S113400019C0822D90E088169906A0F4B60180E2CA
S113401090E01DD12A94F5CFF50137FC859137FE48
S113402081915F01B60190E012D121102A9421E020
S1134030821A91088114910479F7E1C0843611F051
S1134040893639F5F80137FE07C0608171818281B4
S113405093810C5F1F4F08C060817181072E000C93
S1134060880B990B0E5F1F4FF32DFF763F2E97FFA2
S113407009C090958095709561957F4F8F4F9F4FA4
S1134080F0683F2E2AE030E0A3011DD1882E861867
S113409044C0853731F4232D2F7EB22E2AE030E040
S11340A025C0932D997FB92E8F36C1F018F4883529
S11340B079F0AEC0803719F0883721F0A9C0E92F14
S11340C0E061BE2EB4FE0DC0FB2DF460BF2E09C00E
S11340D034FE0AC0292F2660B22E06C028E030E044
S11340E005C020E130E002C020E132E0F801B7FE73
S11340F007C060817181828193810C5F1F4F06C06C
S11341006081718180E090E00E5F1F4FA301DBD0DE
S1134110882E8618FB2DFF773F2E36FE0DC0232DEB
S11341202E7FA22E891458F434FE0BC032FC09C031
S1134130832D8E7EA82E05C0B82CA32C03C0B82CCA
S113414001C0B92CA4FE0FC0FE01E80DF11D808151
S1134150803321F49A2D997EA92E09C0A2FE06C0AF
S1134160B394B39404C08A2D867809F0B394A3FC65
S113417010C0A0FE06C0B21480F4280C922C9B1828
S11341800DC0B21458F4B60180E290E060D0B3944C
S1134190F8CFB21418F42B1802C0982C212CA4FECA
S11341A00FC0B60180E390E052D0A2FE16C0A1FC7D
S11341B003C088E790E002C088E590E0B6010CC037
S11341C08A2D867851F0A1FE02C08BE201C080E204
S11341D0A7FC8DE2B60190E03AD0891430F4B60120
S11341E080E390E034D09A94F8CF8A94F301E80DF8
S11341F0F11D8081B60190E02AD08110F6CF2220F3
S113420009F44DCEB60180E290E021D02A94F7CF94
S1134210F6018681978102C08FEF9FEF2B96E2E132
S1134220F5C0FC010590615070400110D8F78095ED
S113423090958E0F9F1F0895FC016150704001906E
S11342400110D8F7809590958E0F9F1F08950F93B6
S11342501F93CF93DF93FB01238121FD03C08FEFD5
S11342609FEF2CC022FF16C04681578124813581DF
S11342704217530744F4A081B1819D012F5F3F4F42
S1134280318320838C93268137812F5F3F4F37837F
S1134290268314C08B01EC01FB010084F185E02D21
S11342A00995892BE1F6D80116968D919C91179763
S11342B0019617969C938E931697CE01DF91CF911A
S11342C01F910F910895FA01AA27283061F1203136
S11342D091F1E8946F936E7F6E5F7F4F8F4F9F4F86
S11342E0AF4FB1E040D0B4E03ED0670F781F891FD4
S11342F09A1FA11D680F791F8A1F911DA11D6A0FA6
S1134300711D811D911DA11D22D009F468943F9156
S1134310062E000C3019000C000C3019305D31935E
S1134320CEF6CF010895462F4770405D4193B3E028
S11343300FD0C9F7F6CF462F4F70405D4A3318F0BF
S1134340495D31FD4052419302D0A9F7EACFB4E070
S1134350A6959795879577956795BA95C9F7009728
S11343606105710508959B01AC010A2E06945795C9
S1134370479537952795BA95C9F7620F731F841F20
S1134380951FA01D0895F999FECF92BD81BDF89A9D
S1134390992780B50895262FF999FECF92BD81BD46
S11343A0F89A019700B4021639F01FBA20BD0FB66F
S11343B0F894FA9AF99A0FBE08950196272FECDF24
S11343C0EACF002480FD060E660F11F08695D1F722
S11343D0802D08952F923F924F925F926F927F9219
S11343E08F929F92AF92BF92CF92DF92EF92FF9201
S11343F00F931F93CF93DF93CDB7DEB7CA1BDB0BAD
S11344000FB6F894DEBF0FBECDBF09942A88398851
S113441048885F846E847D848C849B84AA84B98458
S1134420C884DF80EE80FD800C811B81AA81B98164
S1134430CE0FD11D0FB6F894DEBF0FBECDBFED0178
S10944400895F894FFCF7B
S1134446630101030000010000931D00000A00003F
S1134456821D0000640000841D0000320000901DCF
S11344660000E80300811D00831000000104100011
S113447600018208000001000000000000000000A6
S113448600004F4B3A256C640A0D004F4B3A2569E0
S11344960A0D004F4B3A504F574552444F574E0A58
S11344A60D004F4B3A504F5745524F4E0A0D004F91
S11344B64B3A425245574F4E450A0D004552523A21
S11344C6425245574552520A0D004F4B3A42524505
S11344D654574F0A0D0055534147453A20274D413D
S11344E64B45204F4E45435550272C20274D414BD5
S11344F6452054574F4355502720666F72206F6EE0
S113450665206F722074776F20637570730A0D00CF
S9030000FC
